S00C00006D61696E2E7372656373
S11300000C94CF020C94F7020C94F7020C94F702B0
S11300100C94F7020C94F7020C94F7020C94F70278
S11300200C94F7020C94F7020C94F7020C94F70268
S11300300C94F7020C94F7020C94F7020C94F70258
S11300400C9403210C94F7020C941F1E0C94511E63
S11300500C94F7020C94F7020C94F7020C94F70238
S11300600C9408180C94F702C707330739073607AE
S11300703C073F074207450748074B07D907D907FD
S1130080D9074E077507D9079C079F07A207AA0738
S1130090AD07B007D907D907D907D907D907D907B1
S11300A0D907D907B807380955095509A609A60972
S11300B0A609A609A609A60957098F0A8F0AD20913
S11300C0EA09020A810A830A850A880A8A0A8C0ACA
S11300D03A0E4D0E3D0E500E590E620E6B0E740EFE
S11300E07D0E8412D012B712061319132C133F136A
S11300F052136513E3124741494E5F54574F544816
S113010049524453004741494E5F53495854454569
S11301104E004741494E5F454947485400474149CD
S11301204E5F464F5552004741494E5F54574F006A
S11301304741494E5F4F4E45004144533A20002AFF
S11301402A4D6561737572656D656E742053746FA5
S11301507065642100496D706564616E6365207328
S113016065747570002A2A4D6561737572656D65D5
S11301706E74205374617274656421002D2D2D2DCD
S11301802D2D002D2D2D656E642D2D2D00523D003D
S1130190413D00563D00496D706564616E636520A4
S11301A07365747570002000453D00563D00493D5F
S11301B00025002B004D00500053657475702072AB
S11301C065717569726564004F6F6F6F707321009C
S11301D042313D776F726B3B2042323D73746F70D6
S11301E0004D6561737572656D656E740041430001
S11301F04243004142004143204400424320440022
S1130200414220440065250049333D0049323D0008
S113021049313D0041433D0042433D0041423D00E0
S113022045436F756E7400416D20414300416D205C
S1130230424300416D20414200566D204143005627
S11302406D20424300566D2041420056206761698B
S11302506E206D6178562F7374657000412067615C
S1130260696E206D6178562F7374657000436F6EEC
S11302706E656374696F6E2074797065002B002B52
S113028000230023004D2000230023005020007889
S11302900052333D0052323D0052313D00547269E8
S11302A0616E676C65005374617200302E323536AE
S11302B020302E3030373831323500302E3531325F
S11302C020302E30313536323500312E3032342064
S11302D0302E303331323500322E30343820302E47
S11302E03036323500342E30393620302E31323526
S11302F000362E31343420302E31383735006861E1
S11303002D68612C2069742773206A6F6B652E2019
S1130310546865726520617265206E6F742065781B
S11303206973747320637269746963616C206572A4
S1130330726F72005741524E494E47212121204D80
S11303406561737572656D656E742053746F706545
S11303506420494320455849535453210050726F37
S11303606261626C79206572726F7220657869735C
S11303707473002D2D2D656E642D2D2D002D2D2DC6
S1130380006572726F72203D20007065726665634D
S11303907420616D706572616765203D20006D6534
S11303A061737572656420616D7065726167652043
S11303B03D20006D6561737572656420766F6C74A1
S11303C0616765203D20007C0057696E64696E6733
S11303D0207C004E656564207365747570207061BF
S11303E072616D73005374616E642062792E2E2ED7
S11303F000436F6D706C65746564210044656275BB
S113040067206D6F646500616D7065726167655F1B
S11304106D756C745F61633A2000616D7065726123
S113042067655F6D756C745F62633A2000616D701F
S113043065726167655F6D756C745F61623A200017
S1130440766F6C746167655F6D756C745F61633A38
S11304502000766F6C746167655F6D756C745F62A4
S1130460633A2000766F6C746167655F6D756C74B8
S11304705F61623A2000696D706564616E63655FF7
S113048061633A2000696D706564616E63655F62E3
S1130490633A2000696D706564616E63655F6162D3
S11304A03A2000636F6E6E656374696F6E5F747972
S11304B070653A20006761696E5F766F6C7461677E
S11304C0653A20006761696E5F616D70657261678E
S11304D0653A2000454550524F4D2076616C756554
S11304E0733A00454550524F4D206669727374202B
S11304F07374617274207772697465642100427543
S113050074746F6E203220696E69746564210042D0
S11305107574746F6E203120696E6974656421008E
S11305204C434420696E697465642100496E6974A2
S113053069616C697A6174696F6E2E2E2E000000F9
S1130540000800020100000304070000000000008E
S11305500000010204081020408001020408102059
S11305600102040810200404040404040404020224
S1130570020202020303030303030000000023003A
S11305802600290000000000250028002B000000A0
S11305900000240027002A00D8139C1A811E11246D
S11305A01FBECFEFD8E0DEBFCDBF11E0A0E0B1E0C9
S11305B0E2E5F6E402C005900D92A03DB107D9F73B
S11305C023E0A0EDB1E001C01D92AF3CB207E1F71A
S11305D012E0CFECD2E004C02197FE010E94E52294
S11305E0CC3CD107C9F70E94AF1E0C9427230C946E
S11305F00000CF93DF93C1EFD1E0699179918991A4
S1130600999120E030E0A9010E940D1B8823E1F0BC
S113061020E030E0A9016F89788D898D9A8D0E9440
S11306200D1B882389F020E030E0A9016B857C85CF
S11306308D859E850E940D1B882331F081E0CD3F7E
S1130640D807D9F681E001C080E01092FD0188232B
S113065031F08EE18093D501DF91CF91089510920E
S1130660D50163ED73E089E293E0DF91CF910C94BF
S11306702C1FE3E6F1E0119211921192119210866F
S113068011861286138681E0EF36F807A1F781E020
S113069080937C010895CF92DF92EF92FF92809134
S11306A0D5018A3009F47EC09FEF980F9A3008F084
S11306B053C091E09093D401813001F520E030E003
S11306C0A9016091E3017091E4018091E5019091A9
S11306D0E6010E940D1B882321F080E090E0DC01FC
S11306E004C080E090E0A0E8BFE38093E30190932E
S11306F0E401A093E501B093E60154C02091E70121
S11307003091E8014091E9015091EA016091E301DF
S11307107091E4018091E5019091E6010E94A11A93
S11307206B017C0120E030E04AE754E40E946C1C39
S113073087FF09C0C092E301D092E401E092E50191
S1130740F092E6012FC01092E3011092E40110929E
S1130750E5011092E60126C093EF980F993040F41A
S1130760853111F08F5F01C08DE08093D5011AC0EF
S11307708E31C1F48DE08093D50181E08093EB014B
S11307801092120160E081E10E94652265E671E049
S113079089E293E00E942C1FFF90EF90DF90CF90AE
S11307A00C943903FF90EF90DF90CF9008958F92CF
S11307B09F92AF92BF92CF92DF92EF92FF9290E01E
S11307C0FC01EE0FFF1FEE0FFF1FE95AFE4F808062
S11307D09180A280B380880F991F880F991FFC0114
S11307E0E55BFE4FC080D180E280F380A7019601D3
S11307F0C501B4010E946C1C87FF34C0A50194019B
S1130800C701B6010E94A01A6B017C0120E030E010
S1130810A9010E946C1C18163CF420E030E048EC5E
S113082052E4C701B60107C0C701B601905820E0E1
S113083030E048EC52E40E94711C6B017C01209171
S11308401701309118014091190150911A01C50105
S1130850B4010E94A11A9B01AC01C701B6010E9418
S1130860121B03C060E070E0CB01FF90EF90DF90BB
S1130870CF90BF90AF909F908F900895CF92DF92CA
S1130880EF92FF920F936B017C01CA01B90124E03E
S1130890029FF0011124E551FE4F268137814085E6
S11308A051850E94121B9B01AC01C701B6010E9435
S11308B0A01A6B017C0120E030E0A9010E940D1B0D
S11308C0181674F401E02091170130911801409139
S11308D0190150911A01C701B6010E946C1C87FDD1
S11308E000E0802F0F91FF90EF90DF90CF9008955C
S11308F02F923F924F925F926F927F928F929F922C
S1130900AF92BF92CF92DF92EF92FF920F931F9319
S1130910CF93DF93CDB7DEB7A6970FB6F894DEBFBB
S11309200FBECDBF1D861E861F86188A198A1A8A95
S11309301B8A1C8A1D8A1E8A1F8A188E19821A8293
S11309401B821C821D821E821F82188619861A86AB
S11309501B861C861E012DE0220E311CCE01019641
S11309606C017C01510110E0612F80E692E00E944D
S11309708714BC0180E090E00E94BA1BD5016D93FE
S11309807D938D939D935D01612F8BE592E00E9491
S11309908714BC0180E090E00E94BA1BF7016193C8
S11309A07193819391937F011F5F1330E9F68091D6
S11309B0370190913801A0913901B0913A018F8F9C
S11309C098A3A9A3BAA380913B0190913C01A09163
S11309D03D01B0913E018BA39CA3ADA3BEA38FE3C5
S11309E0E82E81E0F82EABEEB1E0BA8FA98FE0E0FB
S11309F0F1E0FC8FEB8F3E8E2D8E10E0AD8DBE8D21
S1130A004D905D906D907D90BE8FAD8FA30192014E
S1130A10F70164A175A186A197A10E94A11AD7012B
S1130A2094966D937D938D939C939797F601808014
S1130A309180A280B380A5019401D0966D917D919F
S1130A408D919C91D3970E94A11AD701D0966D9352
S1130A507D938D939C93D397E98DFA8D258936895F
S1130A604789508D6F8D78A189A19AA10E94711C2C
S1130A70A30192010E94711C2B013C01D1016D93D1
S1130A807D938D939D931D01E98DFA8D21A132A152
S1130A9043A154A16BA17CA18DA19EA10E94711CB4
S1130AA0A50194010E94711CD6016D937D938D93D1
S1130AB09C931397EB8DFC8DA484B584F8EEAF164C
S1130AC0F3E0BF063CF4012FA30192010E943E040F
S1130AD081112DC01F5F24E0E20EF11C84E0C80EDA
S1130AE0D11CA98DBA8D1496BA8FA98FEB8DFC8D6C
S1130AF03296FC8FEB8F133009F080CFA6960FB699
S1130B00F894DEBF0FBECDBFDF91CF911F910F913F
S1130B10FF90EF90DF90CF90BF90AF909F908F9019
S1130B207F906F905F904F903F902F900895FFEFCC
S1130B30AF1ABF0AAB8DBC8D1D96BC92AE921C97AA
S1130B40C9CF4F925F926F927F928F929F92AF9292
S1130B50BF92CF92DF92EF92FF920F931F93CF93A6
S1130B60DF93CDB7DEB760970FB6F894DEBF0FBE44
S1130B70CDBF19821A821B821C821D821E821F8293
S1130B80188619861A861B861C867B0121EF822E05
S1130B9021E0922E37E5A32E31E0B32E6C018E01B5
S1130BA00F5F1F4F3B018CE0680E711CD7016D91E4
S1130BB07D918D919D917D01F4012191319141911E
S1130BC051914F010E94121BD5016D937D938D931A
S1130BD09D935D01F60121913191419151916F01F4
S1130BE00E94A01AD8016D937D938D939D938D01DE
S1130BF0E614F704D9F649805A806B807C808D8096
S1130C009E80AF80B884A5019401C301B2010E9403
S1130C10A01A6B017C0120E030E0A9010E946C1C49
S1130C20181624F0F7FAF094F7F8F09489859A8569
S1130C30AB85BC858D879E87AF87B88B9C01AD0142
S1130C40C501B4010E94A01A4B015C0120E030E010
S1130C50A9010E946C1C181624F0B7FAB094B7F8D6
S1130C60B094A5019401C701B6010E94A11A6B01B9
S1130C707C01A30192016D857E858F8598890E94F0
S1130C80A01A4B015C0120E030E0A9010E946C1C19
S1130C90181624F0B7FAB094B7F8B094A7019601E7
S1130CA0C501B4010E94A11A11E020911B013091E9
S1130CB01C0140911D0150911E010E946C1C87FD76
S1130CC010E0812F60960FB6F894DEBF0FBECDBF43
S1130CD0DF91CF911F910F91FF90EF90DF90CF9014
S1130CE0BF90AF909F908F907F906F905F904F9048
S1130CF00895CF92DF92EF92FF9224E0829FC00189
S1130D001124FC01E050FF4FC080D180E280F380C9
S1130D1020E030E04AE754E4C701B6010E940D1B0D
S1130D2087FF24C020E030E0A901C701B6010E947A
S1130D306C1C20E030E040E05FE387FD05C0C701A4
S1130D40B6010E94A11A04C0C701B6010E94A01AEC
S1130D500E94841B2AE030E0AB01BC0187ED91E0E6
S1130D60FF90EF90DF90CF900C94B31F4AE050E0D7
S1130D7067EE73E087ED91E00E94FB1F6FE772E07E
S1130D8087ED91E0FF90EF90DF90CF900C94FD1EE3
S1130D90E82FF0E0EE0FFF1FE45FFE4F60817181EA
S1130DA04AE050E0683E83E0780724F487ED91E060
S1130DB00C94FB1F67EE73E087ED91E00E94FB1F2C
S1130DC06DE772E087ED91E00C94FD1E40E067E072
S1130DD087ED91E00E94351567EB71E087ED91E0B6
S1130DE00E94FD1E41E067E087ED91E00E94351509
S1130DF065EB71E087ED91E00C94FD1E40E063E04B
S1130E0087ED91E00E9435156EEA71E087ED91E07F
S1130E100E94FD1E41E060E087ED91E00E943515DF
S1130E206BEA71E087ED91E00E94FD1E41E068E00D
S1130E3087ED91E00E94351568EA71E087ED91E055
S1130E400C94FD1E87ED91E00E942715E091D501D9
S1130E508E2F90E08F31910508F0ABC0FC01EC5C63
S1130E60FF4F0C94E5226DE672E09FC06CE572E0E2
S1130E709CC06BE472E099C065E472E096C06FE3D5
S1130E8072E093C069E372E090C063E372E08DC0E6
S1130E906DE272E08AC067E272E087C060E272E0ED
S1130EA087ED91E00E94FD1E40E068E087ED91E04F
S1130EB00E9435156CE172E087ED91E00E94FD1E01
S1130EC041E060E087ED91E00E94351568E172E051
S1130ED087ED91E00E94FD1E41E068E087ED91E01E
S1130EE00E94351564E172E060C060E172E087ED54
S1130EF091E00E94FD1E40E068E087ED91E00E94D1
S1130F0035156CE072E087ED91E00E94FD1E41E032
S1130F1060E087ED91E00E94351568E072E087EDAE
S1130F2091E00E94FD1E41E06EE087ED91E00E9499
S1130F30351565E072E039C060E072E005C06BEF22
S1130F4071E002C066EF71E087ED91E00E94FD1E42
S1130F500C94E60663EF71E005C060EF71E002C037
S1130F606DEE71E087ED91E00E94FD1E0C94FE068B
S1130F7061EE71E087ED91E00E94FD1E41E060E0CA
S1130F8087ED91E00E94351560ED71E00EC068ECCC
S1130F9071E087ED91E00E94FD1E41E060E087ED85
S1130FA091E00E94351569EB71E087ED91E00C94B6
S1130FB0FD1E08950F931F93CF93DF93D82F162F01
S1130FC0042F462F682F87ED91E00E943515C0E06D
S1130FD0C01741F066EA71E087ED91E00E94FD1EC2
S1130FE0CF5FF6CF412F6D2F87ED91E0DF91CF9149
S1130FF01F910F910C94351540E161E080E00E944F
S1131000DA076091E3017091E4018091E501909128
S1131010E6010E94841B62307105B1F03CF4611555
S1131020710561F06130710561F0089564307105F6
S113103089F06CF06530710581F0089561EF72E01C
S11310400EC065EE72E00BC068ED72E008C06AEC99
S113105072E005C06BEB72E002C06BEA72E087EDF0
S113106091E00C94FD1ECF92DF92EF92FF920F93CA
S11310701F93CF93DF93C82F47E060E089E00E947D
S1131080DA07D0E08E01000F111F000F111F095A5B
S11310901E4FD8014D915D916D917C9125E030E01A
S11310A087ED91E00E94EF2046E061E080E00E943D
S11310B0DA072396FE01EE0FFF1FEE0FFF1FE15C20
S11310C0FE4FD8012D913D914D915C9160817181CC
S11310D0828193810E94A01A6B017C0120E030E0A0
S11310E0A9010E946C1C181624F0F7FAF094F7F882
S11310F0F09424E030E0B701A60187ED91E00E946E
S1131100EF2047E061E089E00E94DA07CC0FDD1FA1
S1131110CC0FDD1FC15CDE4F488159816A817B8120
S113112025E030E087ED91E0DF91CF911F910F91A1
S1131130FF90EF90DF90CF900C94EF20CF92DF924E
S1131140EF92FF92CF93DF93C82F47E060E085E0F2
S11311500E94DA07D0E0FE01EE0FFF1FEE0FFF1F23
S1131160E55BFE4F408151816281738125E030E06F
S113117087ED91E00E94EF2048E061E082E00E9468
S1131180DA07CC0FDD1FCC0FDD1FFE01E15CFE4F43
S1131190C080D180E280F38020E030E048EC52E46B
S11311A0C701B6010E940D1B87FD35C020E030E069
S11311B04AE754E4C701B6010E940D1B87FD2DC008
S11311C04AE050E067EE73E087ED91E00E94FB1F78
S11311D063EB71E087ED91E00E94FD1E45E061E064
S11311E08AE00E94DA07C050DF4F488159816A8142
S11311F07B8121E030E087ED91E00E94EF2061EBFC
S113120071E087ED91E0DF91CF91FF90EF90DF9057
S1131210CF900C94FD1E22E001C021E030E0B70124
S1131220A60187ED91E00E94EF20D8CF8091D501EF
S11312309091D601891739F08093D60181E080938B
S1131240D4010E9422078091D401882309F467C144
S11312501092D401E091D5018E2F90E0FC013197DA
S1131260E531F10508F05BC1ED5AFF4F0C94E5221E
S113127048E061E080E00E94DA0720E030E0A90164
S11312806091E3017091E4018091E5019091E601A0
S11312900E940D1B811103C066EA72E002C06DE971
S11312A072E087ED91E00C94FD1E0C94FC0769E953
S11312B072E087ED91E00E94FD1E4091F101509192
S11312C0F2016091F3017091F40121E030E087EDC7
S11312D091E00E94EF2040E068E087ED91E00E94F9
S11312E0351565E972E087ED91E00E94FD1E45E049
S11312F060E08BE00E94DA074091F5015091F6011D
S11313006091F7017091F80121E030E087ED91E000
S11313100E94EF2041E060E087ED91E00E943515E6
S113132061E972E087ED91E00E94FD1E45E061E015
S113133083E00E94DA074091F9015091FA0160912B
S1131340FB017091FC0121E030E028C048E060E03E
S113135087E00E94DA076FE872E087ED91E00E946F
S1131360FD1E4091E7015091E8016091E9017091FF
S1131370EA0123E030E087ED91E00E94EF2040E1B4
S113138061E080E00E94DA074091E3015091E401BA
S11313906091E5017091E60123E030E087ED91E092
S11313A00C94EF2044E060E08BE00E94DA0780E0D8
S11313B00E94C80644E061E083E00E94DA0781E00D
S11313C00E94C80644E061E08BE00E94DA0782E0F4
S11313D00C94C80645E060E083E00E94DA0780E0F0
S11313E00E94790645E060E08BE00E94DA0781E024
S11313F00E94790645E061E083E00E94DA0782E01A
S11314000C94790687ED91E00E9427156CE872E050
S113141087ED91E00E94FD1E4091570150915801C3
S11314206091590170915A0122E030E087ED91E01A
S11314300E94EF206AE872E087ED91E00E94FD1EB1
S113144040915B0150915C0160915D0170915E017E
S113145022E030E087ED91E00E94EF2068E872E03E
S113146087ED91E00E94FD1E40915F015091600163
S1131470609161017091620122E030E087ED91E0BA
S11314800E94EF2041E060E087ED91E00E94351575
S113149065E872E087ED91E00E94FD1E40914B01EA
S11314A050914C0160914D0170914E0122E030E069
S11314B087ED91E00E94EF2063E872E087ED91E010
S11314C00E94FD1E40914F015091500160915101C5
S11314D07091520122E030E087ED91E00E94EF200C
S11314E061E872E087ED91E00E94FD1E4091530196
S11314F050915401609155017091560122E030E001
S11315004DCF80E003C081E001C082E00C94330839
S113151080E003C081E001C082E00C949E0808953D
S11315202F923F924F925F926F927F928F929F92EF
S1131530AF92BF92CF92DF92EF92FF920F931F93DD
S1131540CF93DF9300D000D01F92CDB7DEB78AE3EC
S113155092E00E94F21689E192E00E94F2160E9443
S113156016098091EB01882309F48EC10E94780446
S113157080917C0190917B01891720F48F5F809387
S11315807C0182C181E08093D4010E944D210091AD
S1131590D0011091D1012091D2013091D3012B01BE
S11315A03C01401A510A620A730A8FE391E09D8359
S11315B08C830BEE11E080E0282E81E0382EE1E0F0
S11315C0F0E0FB83EA83198260917B0170E080E0A4
S11315D090E00E94BC1B4B015C019B01AC01EC81BF
S11315E0FD8164A175A186A197A10E94121B20917F
S11315F03701309138014091390150913A010E94EC
S1131600711CF801258936894789508D0E94711C07
S11316106B017C01EC81FD81608371838283938300
S1131620A501940160A971A982A993A90E94121B22
S113163020913B0130913C0140913D0150913E018C
S11316400E94711CF80121A132A143A154A10E945E
S1131650711CEC81FD816487758786879787F80103
S11316602681378140855185C701B6010E94121B2E
S1131670EC81FD81608F718F828F938F89810E94AD
S1131680D703F1016083718382839383F9EE4F164C
S1131690F3E05F066104710408F464C069EC73E06C
S11316A089E293E00E94FD1E4AE050E06A817B815A
S11316B089E293E00E94FB1F67EC73E089E293E008
S11316C00E942C1F63EB73E089E293E00E94FD1EED
S11316D0EC81FD81408151816281738126E030E09B
S11316E089E293E00E94F1206EE973E089E293E0DD
S11316F00E94FD1EEC81FD814485558566857785B4
S113170026E030E089E293E00E94F1206AE873E089
S113171089E293E00E94FD1EEC81FD81408D518D94
S1131720628D738D26E030E089E293E00E94F1201F
S113173061E873E089E293E00E94FD1EF1014081BB
S113174051816281738122E030E089E293E00E945A
S1131750F120F981F23031F06DE773E089E293E032
S11317600E942C1F29812F5F29838C819D810496DF
S11317709D838C830C5F1F4F94E0290E311CEA81FA
S1131780FB813196FB83EA83233009F01DCFF9EE08
S11317904F16F3E05F066104710480F063E773E0C1
S11317A089E293E00E942C1F0E944D216093D00196
S11317B07093D1018093D2019093D3010E94390395
S11317C06FE371E08BE491E00E94A1054091130165
S11317D0509114016091150170911601882309F448
S11317E041C0452B462B472B81F46DE573E089E21C
S11317F093E00E942C1F0E944D216093130170936B
S1131800140180931501909316010E944D210091BB
S11318101301109114012091150130911601DC017E
S1131820CB01801B910BA20BB30B80319742A10516
S1131830B10550F180911802811106C01092EB019C
S113184061E081E10E94652264E373E089E293E050
S11318500E942C1F61E080E10E94652281E0809358
S1131860120112C0452B462B472B31F06EEF72E06C
S113187089E293E00E942C1F10921301109214012C
S113188010921501109216010F900F900F900F9067
S11318900F90DF91CF911F910F91FF90EF90DF9008
S11318A0CF90BF90AF909F908F907F906F905F90FC
S11318B04F903F902F9008952F923F924F925F92B6
S11318C06F927F928F929F92AF92BF92CF92DF924C
S11318D0EF92FF920F931F93CF93DF93CDB7DEB7B1
S11318E0E0970FB6F894DEBF0FBECDBF1DA21EA2B7
S11318F01FA218A619A61AA61BA61CA61DA61EA6DC
S11319001FA618AA198E1A8E1B8E1C8E1D8E1E8E53
S11319101F8E18A219A21AA21BA21CA21D861E8623
S11319201F86188A198A1A8A1B8A1C8A1D8A1E8A8B
S11319301F8A188E19821A821B821C821D821E82A3
S11319401F82188619861A861B861C8601E02E01C2
S113195081E3480E511C80917B01081708F060C098
S11319607E0195E2E90EF11C6E01E9E1CE0ED11C77
S11319705601370110E0612F80E692E00E9487143F
S1131980BC0180E090E00E94BA1BF3016193719363
S1131990819391933F01612F8BE592E00E9487141C
S11319A0BC0180E090E00E94BA1BF5016193719341
S11319B0819391935F011F5F1330E9F63E01FDE0CF
S11319C06F0E711CCE0101965C01F70121913191DA
S11319D0419151917F01F3016081718182819381F1
S11319E00E94A11AF30161937193819391933F0132
S11319F0F60121913191419151916F01F50160817D
S1131A007181828193810E94A11AF501619371937E
S1131A10819391935F01E414F504B9F60F5F9BCFB2
S1131A2066E971E089E293E00E942C1F6E01FDE0FB
S1131A30CF0ED11C0BEE11E0CE0101961C01F12C4E
S1131A404AE050E06F2D89E293E00E949B1FF6016B
S1131A5041905190619071906F0160917B0170E0B1
S1131A6080E090E00E94BC1B4B015C019B01AC0137
S1131A70C301B2010E94121B209137013091380139
S1131A804091390150913A010E94711CF801258955
S1131A9036894789508D0E94711C2B013C01F1014C
S1131AA061917191819191911F01A50194010E940D
S1131AB0121B20913B0130913C0140913D0150911A
S1131AC03E010E94711CF80121A132A143A154A13D
S1131AD00E94711C4B015C019B01AC01C301B2016A
S1131AE00E94121BF801668377838087918763E9DC
S1131AF071E089E293E00E94FD1E25E030E0B3012D
S1131B00A20189E293E00E94F12060E971E089E298
S1131B1093E00E94FD1E25E030E0B501A40189E2B6
S1131B2093E00E94F1206DE871E089E293E00E9465
S1131B30FD1EF801468157816085718525E030E0FE
S1131B4089E293E00E94F120F2E0FF1203C063E80F
S1131B5071E002C06CE771E089E293E00E942C1FFF
S1131B60F3940C5F1F4F83E0F8126ACFE0960FB630
S1131B70F894DEBF0FBECDBFDF91CF911F910F91BF
S1131B80FF90EF90DF90CF90BF90AF909F908F9099
S1131B907F906F905F904F903F902F900895CF92D9
S1131BA0DF92EF92FF928091D5019CEF980F9630CF
S1131BB058F5C090E701D090E801E090E901F09079
S1131BC0EA0120E030E048EC52E4C701B6010E948B
S1131BD06C1C87FF09C020E030E040E251E4C701FB
S1131BE0B6010E94711C04C06FE672E183E89AE3B7
S1131BF06093E7017093E8018093E9019093EA010F
S1131C0081E08093D40120C08A3099F487ED91E07B
S1131C100E94271565E571E087ED91E00E94FD1EA5
S1131C200E945C0C87ED91E00E9427151092D6016A
S1131C300BC093EF980F993010F48EE103C08E31EE
S1131C4019F48DE08093D501FF90EF90DF90CF9051
S1131C50089581E08093D401E091D5018E2F90E026
S1131C60FC013197E930F10508F057C0E859FF4FFE
S1131C700C94E5226091EC0102C06091FE0170E0D9
S1131C8080E090E00E94BA1B6093E3017093E4014A
S1131C908093E5019093E60140C06091FF01EFCF8E
S1131CA08091000290910102A0910202B09103027E
S1131CB02CC08091040290910502A0910602B0917B
S1131CC0070223C08091080290910902A0910A02A0
S1131CD0B0910B021AC080910C0290910D02A09158
S1131CE00E02B0910F0211C0809110029091110266
S1131CF0A0911202B091130208C080911402909135
S1131D001502A0911602B09117028093E3019093FB
S1131D10E401A093E501B093E60180E090E0A0E83F
S1131D20BFE38093E7019093E801A093E901B093A6
S1131D30EA010895CF92DF92EF92FF92CF938091C0
S1131D40D5018A30E1F41092F1011092F20110925F
S1131D50F3011092F4011092F5011092F601109221
S1131D60F7011092F8011092F9011092FA01109201
S1131D70FB011092FC0181E08093D40170C08111B9
S1131D800AC0C1E0C093D401C093D5010E94290EBA
S1131D90C093FD0164C09FEF980F9A3008F04EC0C5
S1131DA091E09093D4018130C1F420E030E0A901A6
S1131DB06091E3017091E4018091E5019091E60165
S1131DC00E940D1B882321F080E090E0DC012DC0EF
S1131DD080E090E0A0E8BFE328C02091E7013091C3
S1131DE0E8014091E9015091EA016091E3017091A9
S1131DF0E4018091E5019091E6010E94A01A6B0133
S1131E007C0120E030E0A9010E940D1B87FD09C080
S1131E10C092E301D092E401E092E501F092E60180
S1131E201EC080EF9FEFA9E7B4E48093E301909391
S1131E30E401A093E501B093E60111C023EF280F5C
S1131E40293030F48D3009F495E19093D50107C021
S1131E508E3129F48DE08093D5011092EB01CF915E
S1131E60FF90EF90DF90CF9008951F93CF93DF936F
S1131E70EC01162F69E371E089E293E00E94FD1EF4
S1131E80133021F168F41130C1F0123089F567E2A2
S1131E9071E089E293E00E942C1F60E074E030C09E
S1131EA01430E9F0153021F565E071E089E293E042
S1131EB00E942C1F60E07AE023C060E371E089E2B5
S1131EC093E00E942C1F60E072E01AC06DE171E0A3
S1131ED089E293E00E942C1F60E076E011C062E189
S1131EE071E089E293E00E942C1F60E078E008C072
S1131EF066EF70E089E293E00E942C1F60E070E0DE
S1131F00CE01DF91CF911F910C943814CF93DF93BE
S1131F10CBEED1E06C8980E692E00E94350FEC892B
S1131F2084E0E89FF0011124E15EFE4F20E030E000
S1131F304AE754E460817181828193810E94121B7B
S1131F4060933701709338018093390190933A017B
S1131F50DF91CF910895CF93DF93CBEED1E06B89DE
S1131F608BE592E00E94350FEB8984E0E89FF00155
S1131F701124E15EFE4F20E030E04AE754E4608142
S1131F807181828193810E94121B60933B01709343
S1131F903C0180933D0190933E01DF91CF910895E0
S1131FA026E040E855E260E070E089E293E00E94B8
S1131FB0BA1D6CE275E089E293E00E942C1F60E098
S1131FC070E080E692E00E94381480E692E00E947D
S1131FD0341460E070E08BE592E00E9438148BE5E5
S1131FE092E00E94341487ED91E00E94D51587EDAC
S1131FF091E00E94E11487ED91E00E94271560E2D0
S113200075E089E293E00E942C1F6BE473E08AE39D
S113201092E00E9412166FEC7DE08AE392E00E9447
S113202016166EE170E08AE392E00E94061668ECF0
S113203070E08AE392E00E940A1668EE73E08AE395
S113204092E00E940E166FE075E089E293E00E9430
S11320502C1F6AE97EE089E192E00E94121664E88E
S113206073E189E192E00E9416166EE170E089E165
S113207092E00E94061668EC70E089E192E00E940A
S11320800A1668EE73E089E192E00E940E166EEF84
S113209074E089E293E00E942C1F87E290E00E94A2
S11320A0EB22843609F459C060E086E290E00E9495
S11320B0F92260E085E290E00E94F92260E084E287
S11320C090E00E94F92240E050E0BA0180E290E002
S11320D00E940B2340E050E0BA018CE190E00E94A2
S11320E00B2340E050E0BA0188E190E00E940B230A
S11320F040E050E0BA0184E190E00E940B2340E00C
S113210050E0BA0180E190E00E940B2340E050E0EF
S1132110BA018CE090E00E940B2340E050E0BA0149
S113212088E090E00E940B2340E050E0BA0184E094
S113213090E00E940B2340E050E0BA0180E090E080
S11321400E940B2364E687E290E00E94F92263EE8A
S113215074E089E293E00E942C1F85E290E00E94E3
S1132160EB228093FE0184E290E00E94EB228093B4
S1132170FF0186E290E00E94EB2291E0811101C010
S113218090E09093EC0180E290E00E94F32260934F
S1132190F1017093F2018093F3019093F4018CE1C7
S11321A090E00E94F3226093F5017093F60180930E
S11321B0F7019093F80188E190E00E94F322609384
S11321C0F9017093FA018093FB019093FC0184E17F
S11321D090E00E94F32260930002709301028093C6
S11321E002029093030280E190E00E94F322609344
S11321F004027093050280930602909307028CE018
S113220090E00E94F3226093080270930902809385
S11322100A0290930B0288E090E00E94F3226093FC
S11322200C0270930D0280930E0290930F0284E0CF
S113223090E00E94F3226093100270931102809345
S113224012029093130280E090E00E94F3226093C4
S1132250140270931502809316029093170264ED92
S113226074E089E293E00E942C1F64EC74E089E23C
S113227093E00E94FD1E4AE050E06091FE0189E275
S113228093E00E949B1F65EB74E089E293E00E9457
S1132290FD1E4AE050E06091FF0189E293E00E9454
S11322A09B1F63EA74E089E293E00E94FD1E609143
S11322B0EC0170E04AE050E089E293E00E940220E1
S11322C064E974E089E293E00E94FD1E4091F1010B
S11322D05091F2016091F3017091F4012AE030E031
S11322E089E293E00E94F12065E874E089E293E0DA
S11322F00E94FD1E4091F5015091F6016091F70195
S11323007091F8012AE030E089E293E00E94F12024
S113231066E774E089E293E00E94FD1E4091F901B2
S11323205091FA016091FB017091FC012AE030E0C8
S113233089E293E00E94F12064E674E089E293E08C
S11323400E94FD1E40910002509101026091020220
S11323507091030223E030E089E293E00E94F120CF
S113236062E574E089E293E00E94FD1E409104025C
S113237050910502609106027091070223E030E05B
S113238089E293E00E94F12060E474E089E293E042
S11323900E94FD1E409108025091090260910A02B8
S11323A070910B0223E030E089E293E00E94F12077
S11323B06DE274E089E293E00E94FD1E40910C02FC
S11323C050910D0260910E0270910F0223E030E0F3
S11323D089E293E00E94F1206AE174E089E293E0EB
S11323E00E94FD1E40911002509111026091120250
S11323F07091130223E030E089E293E00E94F1201F
S113240067E074E089E293E00E94FD1E40911402AB
S113241050911502609116027091170223E030E08A
S113242089E293E00E94F1200E94860F0E94AB0F84
S11324308091EC01882329F080E090E0A0EAB0E4E8
S113244004C080E090E0A0E2B0E48093ED019093BA
S1132450EE01A093EF01B093F0010E94F90261E054
S113246081E10E94292261E080E10E94292260E04A
S113247084E00E94292260E081E10E94652260E0FC
S113248080E10E94652284E00E949422019799F4DD
S113249081E08093180287ED91E00E9427156CEF8C
S11324A073E087ED91E00E94FD1E68EE73E080E02A
S11324B090E00E947E218091D5018093D6010E94F4
S11324C0390361EF73E089E293E00E942C1F65EE0B
S11324D073E089E293E00E942C1F0E9422070C946F
S11324E01609CF92DF92EF92FF92CF93E091D5013C
S11324F08E2F90E0FC013197EA30F10508F0FEC020
S1132500EF58FF4F0C94E522C090E301D090E40112
S1132510E090E501F090E601C1E020E030E0A9019F
S1132520C701B6010E940D1B811101C0C0E0C09318
S1132530EC0120E030E0A901C701B6010E940D1BA7
S1132540811105C080E090E0A0E2B0E404C080E026
S113255090E0A0EAB0E48093ED019093EE01A093A3
S1132560EF01B093F0016C2F86E290E012C060910D
S1132570E3017091E4018091E5019091E6010E94EC
S11325808B1B6093FE010E94AB0F6091FE0185E2FC
S113259090E0CF91FF90EF90DF90CF900C94F922D0
S11325A06091E3017091E4018091E5019091E6016D
S11325B00E948B1B6093FF010E94860F6091FF01B4
S11325C084E290E0E6CF4091F1015091F2016091F4
S11325D0F3017091F40180E290E00E940B2340919A
S11325E0F5015091F6016091F7017091F8018CE1C9
S11325F090E00E940B234091F9015091FA016091FF
S1132600FB017091FC0188E190E071C04091E3010D
S11326105091E4016091E5017091E601409300025C
S113262050930102609302027093030284E190E0EC
S11326305EC04091E3015091E4016091E501709125
S1132640E6014093040250930502609306027093DE
S1132650070280E190E04BC04091E3015091E40116
S11326606091E5017091E6014093080250930902DC
S113267060930A0270930B028CE090E038C04091A2
S1132680E3015091E4016091E5017091E60140930A
S11326900C0250930D0260930E0270930F0288E0B7
S11326A090E025C04091E3015091E4016091E5017F
S11326B07091E6014093100250931102609312024C
S11326C07093130284E090E012C04091E3015091B2
S11326D0E4016091E5017091E60140931402509386
S11326E01502609316027093170280E090E0CF9178
S11326F0FF90EF90DF90CF900C940B23CF91FF903D
S1132700EF90DF90CF900895CF93809112018823AA
S113271079F060E080E10E9465221092120110922B
S113272013011092140110921501109216013EC06B
S1132730C091D501CC23D1F1CD30A1F410920D017B
S113274010920C0110920F0110920E0110921101BF
S1132750109210010E943903C093D50181E0809347
S1132760D40124C08091FD01882389F0CA3029F462
S11327700E947112CF910C94F9020E9471128091FF
S1132780D5018F5F8093D501CF910C94290E6FE30F
S113279071E089E293E00E942C1F1092EB01C1E0EA
S11327A0C093D5010E94290EC093FD01CF910895D5
S11327B0CF93DF9368E480E692E00E942C1469E4EE
S11327C08BE592E00E942C1421E040E050E06EE0A2
S11327D070E08AE392E00E94D71521E040E050E0E7
S11327E06FE070E089E192E00E94D715CBEED1E072
S11327F01882198280E090E0A0E2B0E48A839B838F
S1132800AC83BD831E821F82188619861A861B8696
S11328101C861D861E861F86188A198A1B8A1C8A96
S11328208CE0EDE7F1E0A0E0B2E001900D928A9532
S1132830E1F78CE0EDE7F1E0ACE0B2E001900D925D
S11328408A95E1F71DA622E040E167E287ED91E079
S1132850DF91CF910C94BE14FC0114821382608327
S113286088E081831282089583ED92E00C94031A28
S1132870FC017483638308951F93CF93DF93162F12
S1132880EA01682F83ED92E00E94151A612F83ED0F
S113289092E00E94C4196D2F83ED92E00E94C41946
S11328A06C2F83ED92E00E94C41983ED92E0DF91D6
S11328B0CF911F910C94991A1F93CF93DF93182FE4
S11328C0682F83ED92E00E94151A60E083ED92E098
S11328D00E94C41983ED92E00E94991A42E0612F8C
S11328E083ED92E00E94961A83ED92E00E943D19D6
S11328F0182F83ED92E00E943D19D12F20E0C22FC2
S11329009E01282BC901DF91CF911F910895CF9388
S1132910DF93643050F5FC0143815481623051F0FF
S1132920633059F0613019F04368516408C043685A
S1132930516505C04368516602C043685167EC01A4
S1132940506861E088810E943C14698170E080E0F5
S113295090E00E947E2188810E945C140A8002C05B
S1132960969587950A94E2F702C080E090E0DF91A3
S1132970CF91089580E090E008950895FC011382BA
S1132980128285E991E09183808364834187228761
S1132990138608951F93CF93DF93EC01162F6C8158
S11329A083ED92E00E94151A6B85612B83ED92E012
S11329B00E94C41983ED92E0DF91CF911F910C9492
S11329C0991A28E0FC01238760E00C94CA140F9341
S11329D01F93CF938C01C62F64600E94CA1481E0B8
S11329E090E00E94BA216C2F6B7FC8010E94CA1428
S11329F082E390E0CF911F910F910C94BA211F9321
S1132A00CF93DF93EC01162F0E94CA14612FCE01DD
S1132A10DF91CF911F910C94E7140F931F93CF93E1
S1132A20DF938C01C62FD42F607F642B0E94FF1488
S1132A3080E1C89FB00111246D2BC801DF91CF91B3
S1132A401F910F910C94FF1440E00C940D1561E05C
S1132A500E94241580ED97E00C94BA2162E00E9454
S1132A60241580ED97E00C94BA21CF93DF93CDB772
S1132A70DEB728970FB6F894DEBF0FBECDBF9C011A
S1132A8088E0E9E8F1E0DE01119601900D928A9563
S1132A90E1F7F9018085841710F44FEF480FFE0128
S1132AA03196E40FF11DE40FF11D9081690F606808
S1132AB0C90128960FB6F894DEBF0FBECDBFDF91D3
S1132AC0CF910C942415FC016681262F2460268363
S1132AD06C600C94241541E00E940D1581E090E097
S1132AE00895CF93DF93EC01423018F08D81886014
S1132AF08D834887222329F0413019F48D81846025
S1132B008D8362E370E080E090E00E947E216B851B
S1132B10CE010E94CA1468EE73E080E090E00E9447
S1132B207E2160E3CE010E94FF1484E991E10E94BA
S1132B30BA2160E3CE010E94FF1484E991E10E946E
S1132B40BA2160E3CE010E94FF1486E990E00E945E
S1132B50BA2160E2CE010E94FF146D816062CE0151
S1132B600E94241584E08E83CE010E946315CE0159
S1132B700E94271582E08F8366E0CE010E9424150F
S1132B80CE01DF91CF910C942E15CF93DF93EC01FE
S1132B9083ED92E00E94031A1D8220E04A85698534
S1132BA0CE01DF91CF910C9471150C94C515FC01E5
S1132BB0862FA2E3B0E0B383A283A8E5B2E0B58395
S1132BC0A483A8EEB3E0B783A68312861486138683
S1132BD016861586108A1786128A118A148A138A11
S1132BE0168A158A108E178A60837183452B19F013
S1132BF01186108604C041E050E0518740872223AB
S1132C0011F062E001C060E00C942922FC0173839E
S1132C1062830895FC01758364830895FC017783BE
S1132C2066830895FC01748763870895FC01728BA1
S1132C30618B0895CF92DF92EF92FF921F93CF930F
S1132C40DF93EC01162F0E944D216B017C018F89CB
S1132C50988D009731F4112309F4BCC081E090E011
S1132C6078C081309105D9F5898D9A8DAB8DBC8D55
S1132C70B701A601481B590B6A0B7B0B11110FC03E
S1132C808A819B81A0E0B0E0481759076A077B0757
S1132C9018F4188E1F8A9EC082E090E01DC08E81B9
S1132CA09F81A0E0B0E084179507A607B70708F056
S1132CB091C081E08A87EF85F889309709F00995FA
S1132CC0E989FA89309709F00995ED89FE893097E9
S1132CD009F0099586E090E0988F8F8B68C0823068
S1132CE09105F1F58D859E85892B99F0898D9A8DB5
S1132CF0AB8DBC8DB701A601481B590B6A0B7B0B2E
S1132D008C819D81A0E0B0E084179507A607B707E2
S1132D1038F4EB85FC85309709F4BBCF0995B9CF1E
S1132D20112309F457C08D8D9E8DAF8DB8A1B701C5
S1132D30A601481B590B6A0B7B0B8A819B81A0E07F
S1132D40B0E084179507A607B70708F043C083E0EF
S1132D5090E0988F8F8BC98EDA8EEB8EFC8E3AC002
S1132D6083309105C1F4111135C0898D9A8DAB8DD5
S1132D70BC8DB701A601481B590B6A0B7B0B8A81DA
S1132D809B81A0E0B0E084179507A607B70710F56C
S1132D90ED85FE8507C00697E9F411110DC01A866A
S1132DA0EB89FC89309709F00995188E1F8ACD8E1E
S1132DB0DE8EEF8EF8A20EC081E08A87ED89FE894F
S1132DC0309741F0DF91CF911F91FF90EF90DF900A
S1132DD0CF900994DF91CF911F91FF90EF90DF90F6
S1132DE0CF900895CF93DF93EC018881998197FD6B
S1132DF00EC00E94942261E028853985281739077E
S1132E0009F060E0CE01DF91CF910C941A16DF91A6
S1132E10CF9108951092D20281E08093D002109253
S1132E20CF0261E082E10E94652261E083E10E94B9
S1132E306522E9EBF0E080818E7F808380818D7F45
S1132E40808388E48093B80085E48093BC0008956F
S1132E50413208F043C09091D2029111FCCF91E02D
S1132E609093D2022093D0022FEF20936502109208
S1132E70AA02240F2093A9029093D1029091D10227
S1132E80880F892B8093D1028091CF02813061F425
S1132E901092CF028091D1028093BB008091BC003C
S1132EA083FDF8CF85EC01C085EE8093BC00809152
S1132EB0D2028130E1F38091AA02841710F4409188
S1132EC0AA02ABEAB2E0962FFB018E2F891B84176E
S1132ED018F48D918193F9CF842F089580E008959B
S1132EE00F93413208F04AC09091D2029111FCCF65
S1132EF032E03093D2020093D0023FEF3093650268
S1132F001092AA024093A902562FABEAB2E0FB0149
S1132F103E2F351B341718F431913D93F9CF10929D
S1132F20D1023091D102880F832B8093D1028091FA
S1132F30CF02813061F41092CF028091D10280934C
S1132F40BB008091BC0083FDF8CF85EC01C085EE09
S1132F508093BC00222321F08091D2028230D1F3ED
S1132F60809165028F3F79F080916502803241F053
S1132F7080916502803331F094E005C091E003C094
S1132F8092E001C093E0892F0F9108954091870248
S1132F90262F30E0240F311D21323105DCF420913D
S1132FA0D2022430C9F4FC0180E090E0861758F482
S1132FB0309187022191DC01A757BD4FA30FB11DAA
S1132FC02C930196F3CF80918702680F6093870258
S1132FD080E0089581E0089582E008959093CC0202
S1132FE08093CB0208959093CE028093CD020895EE
S1132FF085ED8093BC008091BC0084FDFCCF1092D1
S1133000D202089585EC8093BC001092D2020895F8
S11330101F920F920FB60F9211242F933F934F9349
S11330205F936F937F938F939F93AF93BF93EF932C
S1133030FF938091B900887F803609F49EC078F5AB
S1133040883209F45DC090F4803109F456C038F434
S1133050882309F4F5C0883009F44FC0F5C08831DD
S113306009F44EC0803209F45FC0EEC0803409F424
S11330706AC058F4803309F457C0883309F0E4C0B7
S1133080809365020E940218DFC0803509F44FC0A6
S1133090883509F45DC0883409F0D6C0D3C08839B6
S11330A009F4C4C0A8F4883709F467C038F4883632
S11330B009F463C0803709F460C0C6C0883809F4D5
S11330C0B5C0803909F45FC0803809F0BDC05BC069
S11330D0803B09F483C038F4803A09F466C0883A26
S11330E009F47CC0B1C0803C09F4A4C0883C09F454
S11330F0A1C0883B09F487C0A7C08091D10210C049
S11331009091AA028091A902981770F5E091AA0201
S113311081E08E0F8093AA02F0E0E555FD4F808197
S11331208093BB0085EC83C0809365028BC0E091E3
S1133130AA0281E08E0F8093AA028091BB00F0E086
S1133140E555FD4F80839091AA028091A9026BC03E
S1133150E091AA0281E08E0F8093AA028091BB00C5
S1133160F0E0E555FD4F80838091D00281116AC063
S113317081E08093CF0284EA5EC083E08093D20230
S113318010926602CFCF80916602803208F04EC062
S1133190E091660281E08E0F809366028091BB000D
S11331A0F0E0E959FD4F8083BDCF0E940218809161
S11331B06602803230F4E0916602F0E0E959FD4F96
S11331C010826091660270E0E091CB02F091CC0233
S11331D087E692E009951092660236C084E08093F7
S11331E0D2021092880210928702E091CD02F091EF
S11331F0CE02099580918702811105C081E08093F8
S1133200870210928902E091880281E08E0F8093F8
S11332108802F0E0E757FD4F80818093BB009091D6
S1133220880280918702981708F47CCF85E8809300
S1133230BC000AC085EC8093BC001092D20204C08A
S1133240109265020E94F817FF91EF91BF91AF9120
S11332509F918F917F916F915F914F913F912F91AA
S11332600F900FBE0F901F9018958091070390E068
S113327020910803821B910908959091080380917D
S11332800703981750F4E92FF0E0E75FFC4F208123
S113329030E09F5F9093080302C02FEF3FEFC90116
S11332A00895E091080380910703E81730F4F0E0F3
S11332B0E75FFC4F808190E008958FEF9FEF0895C2
S11332C00895CF93DF93EC01E091DF02F091E002E7
S11332D03097F1F090910803809107039817C0F09C
S11332E090E0292F30E02617370754F4DE01A20FAF
S11332F0B31F4C91D901A75FBC4F4C939F5FF1CF93
S11333001092080360930703CB01DF91CF910994D6
S1133310DF91CF910895E091E102F091E2023097BC
S113332029F01092E5021092E40209940895CF92D4
S1133330DF92EF92FF920F931F93CF93DF937C0161
S1133340CB018A012091E302222389F0EB016B0176
S1133350C40ED51ECC15DD0569F06991D701ED9138
S1133360FC910190F081E02DC7010995F3CF642F02
S11333700E94C617C801DF91CF911F910F91FF9052
S1133380EF90DF90CF900895CF93DF931F92CDB746
S1133390DEB769832091E3022223D1F02091E40275
S11333A0203240F021E030E0FC013383228380E0CE
S11333B090E015C08091E502E82FF0E0EA51FD4F5E
S11333C0998190838F5F8093E5028093E40205C026
S11333D061E0CE0101960E94C61781E090E00F9053
S11333E0DF91CF910895FC011382128288EE93E05D
S11333F0A0E0B0E084839583A683B78381EA91E05B
S11334009183808308951092080310920703109209
S1133410E5021092E4020E940A178BE899E10E94E7
S1133420F31781E699E10C94EE1781E08093E302AF
S1133430609306031092E5021092E40208950F933C
S1133440062F21E04091E40266EE72E080910603CB
S11334500E9470171092E5021092E4021092E302A7
S11334600F9108954F925F926F927F92AF92BF92A5
S1133470CF92EF92FF920F931F93CF93DF935C0150
S1133480F62ED42F28013901EE2021F10E94151ABD
S1133490CE2DC43008F0C3E0C150C0F028E0C29F74
S11334A0C0011124A301920104C056954795379594
S11334B027958A95D2F7CA01B901D501ED91FC91FE
S11334C00190F081E02DC5010995E6CF60E0C501CA
S11334D00E941F1A4D2FD13208F040E22C2D69E0D2
S11334E073E08F2D0E94281710920803809307031E
S11334F0DF91CF911F910F91FF90EF90CF90BF90EC
S1133500AF907F906F905F904F900895CF92EF921D
S11335100F931F93C22EE12C00E010E098010E944B
S1133520321A1F910F91EF90CF90089521E00C94DF
S1133530861A61E00C941F1A83ED92E00C94F3193F
S11335405058BB27AA270E94B81A0C94321C0E9418
S1133550241C38F00E942B1C20F039F49F3F19F4EE
S113356026F40C94211C0EF4E095E7FB0C941B1C30
S1133570E92F0E94431C58F3BA17620773078407A4
S1133580950720F079F4A6F50C94651C0EF4E095EB
S11335900B2EBA2FA02D0B01B90190010C01CA0109
S11335A0A0011124FF27591B99F0593F50F4503EB4
S11335B068F11A16F040A22F232F342F4427585FA6
S11335C0F3CF469537952795A795F0405395C9F7BE
S11335D07EF41F16BA0B620B730B840BBAF0915076
S11335E0A1F0FF0FBB1F661F771F881FC2F70EC015
S11335F0BA0F621F731F841F48F4879577956795E8
S1133600B795F7959E3F08F0B0CF9395880F08F0D3
S11336109927EE0F9795879508950E94F71B08F454
S113362081E008950E94261B0C94321C0E942B1CDE
S113363058F00E94241C40F029F45F3F29F00C94B8
S11336401B1C51110C94661C0C94211C0E94431CDD
S113365068F39923B1F3552391F3951B550BBB27BD
S1133660AA2762177307840738F09F5F5F4F220F02
S1133670331F441FAA1FA9F335D00E2E3AF0E0E8F9
S113368032D091505040E695001CCAF72BD0FE2F43
S113369029D0660F771F881FBB1F261737074807D7
S11336A0AB07B0E809F0BB0B802DBF01FF2793588F
S11336B05F4F3AF09E3F510578F00C941B1C0C941C
S11336C0661C5F3FE4F3983ED4F38695779567953F
S11336D0B795F7959F5FC9F7880F911D96958795C4
S11336E097F90895E1E0660F771F881FBB1F6217E3
S11336F073078407BA0720F0621B730B840BBA0BA1
S1133700EE1F88F7E09508950E948B1B6894B11111
S11337100C94661C08950E944B1C88F09F5798F0E7
S1133720B92F9927B751B0F0E1F0660F771F881FC2
S1133730991F1AF0BA95C9F714C0B13091F00E94DC
S1133740651CB1E008950C94651C672F782F8827B9
S1133750B85F39F0B93FCCF3869577956795B39503
S1133760D9F73EF490958095709561957F4F8F4F72
S11337709F4F0895E89409C097FB3EF49095809577
S1133780709561957F4F8F4F9F4F9923A9F0F92F23
S113379096E9BB279395F695879577956795B795A1
S11337A0F111F8CFFAF4BB0F11F460FF1BC06F5F87
S11337B07F4F8F4F9F4F16C0882311F096E911C099
S11337C0772321F09EE8872F762F05C0662371F0BA
S11337D096E8862F70E060E02AF09A95660F771FCE
S11337E0881FDAF7880F9695879597F90895990FAA
S11337F00008550FAA0BE0E8FEEF16161706E807B7
S1133800F907C0F012161306E407F50798F0621BD7
S1133810730B840B950B39F40A2661F0232B242BAC
S1133820252B21F408950A2609F4A140A6958FEFCB
S1133830811D811D089597F99F6780E870E060E01D
S113384008959FEF80EC089500240A941616170635
S113385018060906089500240A941216130614067D
S113386005060895092E0394000C11F4882352F0E0
S1133870BB0F40F4BF2B11F460FF04C06F5F7F4F98
S11338808F4F9F4F089557FD9058440F551F59F07F
S11338905F3F71F04795880F97FB991F61F09F3F39
S11338A079F087950895121613061406551FF2CF62
S11338B04695F1DF08C0161617061806991FF1CFB2
S11338C086957105610508940895E894BB276627D9
S11338D07727CB0197F908950E94F71B08F48FEF1F
S11338E008950E94841C0C94321C0E94241C38F0FD
S11338F00E942B1C20F0952311F00C941B1C0C949B
S1133900211C11240C94661C0E94431C70F3959F87
S1133910C1F3950F50E0551F629FF001729FBB27C2
S1133920F00DB11D639FAA27F00DB11DAA1F649F5E
S11339306627B00DA11D661F829F2227B00DA11D11
S1133940621F739FB00DA11D621F839FA00D611D97
S1133950221F749F3327A00D611D231F849F600DB8
S1133960211D822F762F6A2F11249F5750409AF0E1
S1133970F1F088234AF0EE0FFF1FBB1F661F771F6D
S1133980881F91505040A9F79E3F510580F00C9438
S11339901B1C0C94661C5F3FE4F3983ED4F386959D
S11339A077956795B795F795E7959F5FC1F7FE2BD8
S11339B0880F911D9695879597F90895FC01918D2F
S11339C0228D892F90E0805C9F4F821B91098F7319
S11339D099270895FC01918D828D981731F0828D7D
S11339E0E80FF11D858D90E008958FEF9FEF089506
S11339F0FC01918D828D981761F0828DDF01A80FF3
S1133A00B11D5D968C91928D9F5F9F73928F90E014
S1133A1008958FEF9FEF0895FC01538D448D252F5A
S1133A2030E0842F90E0821B930B541710F0CF9654
S1133A3008950197089587E79EE1892B49F080E076
S1133A4090E0892B29F00E94771E81110C940000CC
S1133A500895FC01848DDF01A80FB11DA35ABF4F47
S1133A602C91848D90E001968F739927848FA68979
S1133A70B7892C93A089B1898C91837080648C93CD
S1133A80938D848D981306C00288F389E02D80817C
S1133A908F7D80830895EF92FF920F931F93CF93AE
S1133AA0DF93EC0181E0888F9B8D8C8D981305C08A
S1133AB0E889F989808185FD26C0F62E0B8D10E0FA
S1133AC00F5F1F4F0F731127E02E8C8DE8120CC06F
S1133AD00FB607FCFACFE889F989808185FFF5CF15
S1133AE0CE010E94291DF1CF8B8DFE01E80FF11D3F
S1133AF0E35AFF4FF0829FB7F8940B8FEA89FB8952
S1133B00808180620AC09FB7F894EE89FF89608340
S1133B10E889F98980818370806480839FBF81E014
S1133B2090E0DF91CF911F910F91FF90EF90089556
S1133B30CF93DF93EC01888D8823C9F0EA89FB8950
S1133B40808185FD05C0A889B9898C9186FD0FC047
S1133B500FB607FCF5CF808185FFF2CFA889B9891C
S1133B608C9185FFEDCFCE010E94291DE7CFDF9117
S1133B70CF910895CF92DF92EF92FF921F93CF934C
S1133B80DF93EC016A017B01122FE889F98982E055
S1133B9080834115514E61057105B1F060E079E013
S1133BA08DE390E0A70196010E94C322DA01C901C6
S1133BB00197A109B109B695A795979587959C0199
S1133BC0211580E13807A8F0E889F989108260E8B6
S1133BD074E88EE190E0A70196010E94C322DA0105
S1133BE0C9010197A109B109B695A795979587953C
S1133BF09C01EC85FD853083EE85FF852083188E3E
S1133C00EC89FD891083EA89FB8980818061808346
S1133C10EA89FB89808188608083EA89FB898081C5
S1133C2080688083EA89FB8980818F7D8083DF912E
S1133C30CF911F91FF90EF90DF90CF9008951F9246
S1133C400F920FB60F9211242F938F939F93EF939C
S1133C50FF93E0913903F0913A038081E0913F03AF
S1133C60F091400382FD12C09081809142038F5FE6
S1133C708F7320914303821751F0E0914203F0E0E7
S1133C80E75DFC4F958F8093420301C08081FF91D3
S1133C90EF919F918F912F910F900FBE0F901F90D6
S1133CA018951F920F920FB60F9211242F933F93E2
S1133CB04F935F936F937F938F939F93AF93BF9330
S1133CC0EF93FF9389E293E00E94291DFF91EF9106
S1133CD0BF91AF919F918F917F916F915F914F9120
S1133CE03F912F910F900FBE0F901F90189589E26E
S1133CF093E00E94DE1C21E0892B09F420E0822F4E
S1133D000895E9E2F3E01382128288EE93E0A0E0E2
S1133D10B0E084839583A683B78383EB91E091839A
S1133D20808385EC90E09587848784EC90E0978786
S1133D30868780EC90E0918B808B81EC90E0938B74
S1133D40828B82EC90E0958B848B86EC90E0978B51
S1133D50868B118E128E138E148E089508950E94F0
S1133D60C5210E94AE1E0E94D00FCBE1DDE10E946E
S1133D70900A2097E1F30E941B1DF9CFCF92DF92A6
S1133D80EF92FF920F931F93CF93DF936C017A010D
S1133D908B01C0E0D0E0CE15DF0581F0D8016D9134
S1133DA08D01D601ED91FC910190F081E02DC601C9
S1133DB00995892B11F02196EECF7E01C701DF9181
S1133DC0CF911F910F91FF90EF90DF90CF900895C6
S1133DD06115710579F0FB0101900020E9F7319735
S1133DE0AF01461B570BDC01ED91FC910280F3817E
S1133DF0E02D099480E090E00895EF92FF920F93F4
S1133E001F93CF93DF938C017B01C0E0D0E0F701D7
S1133E10EC0FFD1F6491662361F0D801ED91FC91D4
S1133E200190F081E02DC8010995892B11F02196AC
S1133E30EECFCE01DF91CF911F910F91FF90EF90C4
S1133E400895DC01ED91FC910190F081E02D09943D
S1133E5061EC71E00C94E81E0F931F93CF93DF93F2
S1133E60EC010E94FD1E8C01CE010E94281F800FD0
S1133E70911FDF91CF911F910F9108958F929F927F
S1133E80AF92BF92EF92FF920F931F93CF93DF9362
S1133E90CDB7DEB7A1970FB6F894DEBF0FBECDBF86
S1133EA07C01FA01CB0119A2223008F42AE08E0128
S1133EB00F5D1F4F822E912CA12CB12CBF01A501A7
S1133EC094010E94C322F901CA01015011096A3008
S1133ED010F4605D01C0695CD8016C93232B242B22
S1133EE0252B61F7B801C7010E94E81EA1960FB601
S1133EF0F894DEBF0FBECDBFDF91CF911F910F911C
S1133F00FF90EF90BF90AF909F908F9008952115F0
S1133F10310541F4DC01ED91FC910190F081E02D3B
S1133F20642F09940C943E1F9A01462F50E060E0E0
S1133F3070E00C94871F0F931F93CF93DF93EC01D2
S1133F400E94941F8C01CE010E94281F800F911F94
S1133F50DF91CF911F910F9108959A01AB0160E019
S1133F6070E00C94871FCF92DF92EF92FF920F9331
S1133F701F93CF93DF932115310581F4DC01ED917B
S1133F80FC910190F081E02D642FDF91CF911F917E
S1133F900F91FF90EF90DF90CF9009942A30310574
S1133FA001F577FF1DC06A017B01EC016DE20E94FF
S1133FB0211F8C0144275527BA014C195D096E094C
S1133FC07F092AE0CE010E943E1F800F911FDF91DE
S1133FD0CF911F910F91FF90EF90DF90CF900895B4
S1133FE02AE0DF91CF911F910F91FF90EF90DF9026
S1133FF0CF900C943E1F9A01AB01770F660B770BA1
S11340000C94B31F0F931F93CF93DF93EC010E9483
S1134010FB1F8C01CE010E94281F800F911FDF918E
S1134020CF911F910F9108957F928F929F92AF929B
S1134030BF92CF92DF92EF92FF920F931F93CF9391
S1134040DF938C016A017B01722E9A01AB01C701D7
S1134050B6010E94BE22882319F064EC71E027C0E7
S113406046015701E894B7F82FEF3FEF4FE75FE7BA
S1134070C501B4010E94BE2281110DC02FEF3FEF94
S11340804FE75FE7C501B4010E940D1B18161CF42D
S113409068EC71E00CC02FEF3FEF4FE75FE4C7011E
S11340A0B6010E946C1C181694F46CEC71E0C80103
S11340B0DF91CF911F910F91FF90EF90DF90CF9000
S11340C0BF90AF909F908F907F900C94E81E2FEF3D
S11340D03FEF4FE75FECC701B6010E940D1B87FD60
S11340E0E4CF20E030E0A901C701B6010E940D1B16
S11340F087FF0AC06DE2C8010E94211FEC01F7FA94
S1134100F094F7F8F09402C0C0E0D0E0B12C60E085
S113411070E080E09FE37B1441F020E030E040E277
S113412051E40E94121BB394F6CFA70196010E949A
S1134130A11A6B017C010E948B1B4B015C012AE0DC
S1134140AB01BC01C8010E943E1FC80FD91F7720D4
S1134150B9F1C501B4010E94BA1B9B01AC01C701AE
S1134160B6010E94A01A6B017C016EE2C8010E9494
S1134170211FC80FD91F20E030E040E251E4C701FD
S1134180B6010E94711C4B015C010E948B1B6B01E8
S11341907C014AE050E0C8010E94AD1FC80FD91F3E
S11341A0B60180E090E00E94BA1B9B01AC01C501FE
S11341B0B4010E94A01A6B017C017A947110DBCFC8
S11341C0CE01DF91CF911F910F91FF90EF90DF907F
S11341D0CF90BF90AF909F908F907F9008950C9454
S11341E014200F931F93CF93DF93EC010E941420AC
S11341F08C01CE010E94281F800F911FDF91CF9167
S11342001F910F9108951F920F920FB60F921124D0
S11342102F933F938F939F93AF93BF938091C70343
S11342209091C803A091C903B091CA033091C60309
S113423023E0230F2D3720F40196A11DB11D05C0E5
S113424026E8230F0296A11DB11D2093C603809377
S1134250C7039093C803A093C903B093CA03809182
S1134260CB039091CC03A091CD03B091CE030196E2
S1134270A11DB11D8093CB039093CC03A093CD03D8
S1134280B093CE03BF91AF919F918F913F912F91A6
S11342900F900FBE0F901F9018952FB7F894609150
S11342A0C7037091C8038091C9039091CA032FBFBB
S11342B008953FB7F8948091CB039091CC03A091DB
S11342C0CD03B091CE0326B5A89B05C02F3F19F0AE
S11342D00196A11DB11D3FBFBA2FA92F982F882782
S11342E0820F911DA11DB11DBC01CD0142E0660FDD
S11342F0771F881F991F4A95D1F708958F929F922F
S1134300AF92BF92CF92DF92EF92FF926B017C014A
S11343100E9459214B015C01C114D104E104F10450
S113432001F10E94BD220E945921DC01CB018819B0
S11343309909AA09BB09883E9340A105B10560F318
S113434021E0C21AD108E108F10888EE880E83E062
S1134350981EA11CB11CC114D104E104F10419F785
S1134360DBCFFF90EF90DF90CF90BF90AF909F9006
S11343708F9008958230910538F0880F991F880F27
S1134380991F05970197F1F70895789484B5826091
S113439084BD84B5816084BD85B5826085BD85B5E5
S11343A0816085BDEEE6F0E0808181608083E1E894
S11343B0F0E01082808182608083808181608083CC
S11343C0E0E8F0E0808181608083E1EBF0E08081CF
S11343D084608083E0EBF0E0808181608083EAE7A1
S11343E0F0E080818460808380818260808380812A
S11343F0816080838081806880831092C1000895E9
S1134400833081F028F4813099F08230A1F008954E
S11344108730A9F08830B9F08430D1F480918000DD
S11344208F7D03C0809180008F77809380000895F2
S113443084B58F7702C084B58F7D84BD0895809143
S1134440B0008F7703C08091B0008F7D8093B0005F
S11344500895CF93DF9390E0FC01EE5AFA4F249134
S1134460FC01EA59FA4F8491882361F190E0880FA6
S1134470991FFC01E257FA4FC591D491FC01EC5706
S1134480FA4FA591B491611109C09FB7F89488813E
S1134490209582238883EC912E230BC0623061F433
S11344A09FB7F8948881322F309583238883EC91C9
S11344B02E2B2C939FBF06C08FB7F894E8812E2B28
S11344C028838FBFDF91CF9108951F93CF93DF93FC
S11344D0282F30E0F901E25CFA4F8491F901EE5A99
S11344E0FA4FD491F901EA59FA4FC491CC23C1F09F
S11344F0162F81110E940022EC2FF0E0EE0FFF1F17
S1134500EC57FA4FA591B4919FB7F894111104C0D8
S11345108C91D095D82302C0EC91DE2BDC939FBF05
S1134520DF91CF911F910895CF93DF93282F30E02F
S1134530F901E25CFA4F8491F901EE5AFA4FD491F1
S1134540F901EA59FA4FC491CC2391F081110E94E8
S11345500022EC2FF0E0EE0FFF1FE658FA4FA59172
S1134560B491EC91ED2381E090E021F480E002C06D
S113457080E090E0DF91CF91089508950E94F71BA9
S1134580880B990B0895A1E21A2EAA1BBB1BFD01EF
S11345900DC0AA1FBB1FEE1FFF1FA217B307E4071E
S11345A0F50720F0A21BB30BE40BF50B661F771F76
S11345B0881F991F1A9469F7609570958095909556
S11345C09B01AC01BD01CF010895EE0FFF1F0590C3
S11345D0F491E02D0994F999FECF92BD81BDF89A2A
S11345E0992780B50895A6E1B0E044E050E00C942A
S11345F01923262FF999FECF92BD81BDF89A019710
S113460000B4021639F01FBA20BD0FB6F894FA9A16
S1134610F99A0FBE08950396272F0E94FA220E944A
S1134620F922252F0E94FA22242F0C94FA22DC016D
S1134630CB01FC01F999FECF06C0F2BDE1BDF89AA9
S1134640319600B40D9241505040B8F70895F89453
S1054650FFCF96
S11346520000000000000000000000000000000054
S1134662000000000000009A99593F0000803F00BA
S113467200403E0000003E0000803D0000003D007E
S113468200803C0000003CA69B4439A69B443900B0
S11346920000000000000000000000000000000014
S11346A20000000000000000000000000000000004
S11346B200000000000000000000000000000000F4
S11346C200000000000000000000003C0100008027
S11346D23F0000803F0000803F000040001400546F
S11346E200000000006B15BE1EBA14BD14000000C9
S11346F200C4199719BA14601935193D19511900D2
S11347020000004B1DBE1E0C1D981DDE1CF81CEA89
S11347121C0D0A006E616E00696E66006F7666009B
S9030000FC
