S00C00006D61696E2E7372656373
S11300000C94EE020C9416030C9416030C94160331
S11300100C9416030C9416030C9416030C941603F8
S11300200C9416030C9416030C9416030C941603E8
S11300300C9416030C9416030C9416030C941603D8
S11300400C9402220C9416030C941E1F0C94501F43
S11300500C9416030C9416030C9416030C941603B8
S11300600C9407190C9416036508A407AA07A7079C
S1130070AD07B007B307B607B907BC077708770819
S11300807708BF07E6070D0877083A083D084008D7
S113009048084B084E0877087708770877087708E8
S11300A0770877085608DA09F709F709480A480A69
S11300B0480A480A480A480AF909590B590B740AAC
S11300C08C0AA40ACC0A4B0B4D0B4F0B520B540B4E
S11300D0560B390F4C0F3C0F4F0F580F610F6A0F1F
S11300E0730F7C0F8313CF13B613051418142B143A
S11300F03E1451146414E2134741494E5F54574F60
S1130100544849524453004741494E5F5349585457
S113011045454E004741494E5F45494748540047CD
S113012041494E5F464F5552004741494E5F54572F
S11301304F004741494E5F4F4E45004144533A20DA
S1130140002A2A4D6561737572656D656E7420535E
S1130150746F7065642100496D706564616E6365D8
S1130160207365747570002A2A4D65617375726514
S11301706D656E74205374617274656421002D2D55
S11301802D2D2D2D002D2D2D656E642D2D2D005220
S11301903D00413D00563D00496D706564616E63EC
S11301A065207365747570002000453D00563D0060
S11301B0493D0025002B004D0050005365747570B7
S11301C0207265717569726564004F6F6F6F70732B
S11301D0210042313D776F726B3B2042323D737494
S11301E06F70004D6561737572656D656E74004165
S11301F04300424300414200414320440042432023
S113020044004142204400460065250049333D0036
S113021049323D0049313D0041433D0042433D00E8
S113022041423D0045436F756E7400416D2041436A
S113023000416D20424300416D20414200566D2033
S1130240414300566D20424300566D204142005602
S1130250206761696E206D6178562F737465700034
S113026041206761696E206D6178562F73746570E3
S113027000436F6E6E656374696F6E207479706588
S1130280002B002B002B00230023004D2000230013
S11302902300502000780052333D0052323D00527A
S11302A0313D00547269616E676C6500537461720C
S11302B000302E32353620302E303037383132355A
S11302C000302E35313220302E3031353632350083
S11302D0312E30323420302E303331323500322E4C
S11302E030343820302E3036323500342E30393622
S11302F020302E31323500362E31343420302E3138
S11303003837350068612D68612C206974277320A3
S11303106A6F6B652E205468657265206172652072
S11303206E6F74206578697374732063726974697D
S113033063616C206572726F72005741524E494E70
S113034047212121204D6561737572656D656E7459
S11303502053746F706564204943204558495354B1
S113036053210050726F6261626C79206572726F02
S11303707220657869737473002D2D2D656E642D5C
S11303802D2D006572726F722066756C6C202020B2
S113039020202020203D20002D2D2D006572726F1D
S11303A072206469666620202020202020203D20C1
S11303B0006572726F722070657263656E742020BE
S11303C02020203D20007065726665637420616D95
S11303D070657261676520203D20006D65617375ED
S11303E072656420616D706572616765203D2000EF
S11303F06D6561737572656420766F6C7461676591
S113040020203D20007C0057696E64696E67207C63
S1130410004E656564207365747570207061726147
S11304206D73005374616E642062792E2E2E004326
S11304306F6D706C65746564210044656275672036
S11304406D6F646500616D7065726167655F6D7580
S11304506C745F61633A2000616D706572616765F9
S11304605F6D756C745F62633A2000616D706572D4
S11304706167655F6D756C745F61623A2000766FC9
S11304806C746167655F6D756C745F61633A2000BD
S1130490766F6C746167655F6D756C745F62633AE7
S11304A02000766F6C746167655F6D756C745F6155
S11304B0623A2000696D706564616E63655F6163B3
S11304C03A2000696D706564616E63655F62633ACA
S11304D02000696D706564616E63655F61623A20D6
S11304E000636F6E6E656374696F6E5F74797065B7
S11304F03A20006761696E5F766F6C746167653A74
S113050020006761696E5F616D7065726167653A4D
S11305102000454550524F4D2076616C7565733A05
S113052000454550524F4D206669727374207374B0
S11305306172742077726974656421004275747401
S11305406F6E203220696E6974656421004275748F
S1130550746F6E203120696E6974656421004C43A8
S11305604420696E697465642100496E6974696127
S11305706C697A6174696F6E2E2E2E00000000087B
S11305800002010000030407000000000000000056
S11305900102040810204080010204081020010216
S11305A004081020040404040404040402020202E3
S11305B002020303030303030000000023002600D8
S11305C0290000000000250028002B000000000086
S11305D0240027002A00D7149B1B801F11241FBE50
S11305E0CFEFD8E0DEBFCDBF11E0A0E0B1E0E0E5A1
S11305F0F8E402C005900D92A03EB107D9F723E0BC
S1130600A0EEB1E001C01D92AF3DB207E1F712E0E8
S1130610CEEED2E004C02197FE010E94E423CB3E3B
S1130620D107C9F70E94AE1F0C9426240C94000035
S1130630CF93DF93C1E0D2E0699179918991999147
S113064020E030E0A9010E940C1C8823E1F020E0A6
S113065030E0A9016F89788D898D9A8D0E940C1CD8
S1130660882389F020E030E0A9016B857C858D85A5
S11306709E850E940C1C882331F082E0CD30D8077F
S1130680D9F681E001C080E010920D02882331F098
S11306908EE18093E501DF91CF9108951092E501F9
S11306A061E174E089E393E0DF91CF910C942B2016
S11306B0E3E7F1E0119211921192119210861186E2
S11306C01286138681E0EF37F807A1F781E0809363
S11306D08C010895CF92DF92EF92FF928091E50111
S11306E08A3009F47EC09FEF980F9A3008F053C007
S11306F091E09093E401813001F520E030E0A9011C
S11307006091F3017091F4018091F5019091F601EB
S11307100E940C1C882321F080E090E0DC0104C0DE
S113072080E090E0A0E8BFE38093F3019093F401AC
S1130730A093F501B093F60154C02091F7013091D4
S1130740F8014091F9015091FA016091F30170911F
S1130750F4018091F5019091F6010E94A01B6B01B8
S11307607C0120E030E04AE754E40E946B1D87FFDF
S113077009C0C092F301D092F401E092F501F09225
S1130780F6012FC01092F3011092F4011092F501BA
S11307901092F60126C093EF980F9A3040F48631F8
S11307A011F08F5F01C08DE08093E5011AC08E3196
S11307B0C1F48DE08093E50181E08093FB01109208
S11307C0160160E081E10E94642367E671E089E339
S11307D093E00E942B20FF90EF90DF90CF900C9439
S11307E05803FF90EF90DF90CF9008958F929F92DF
S11307F0AF92BF92CF92DF92EF92FF9290E0FC0112
S1130800EE0FFF1FEE0FFF1FE959FE4F808091800E
S1130810A280B380880F991F880F991FFC01E55AA5
S1130820FE4FC080D180E280F380A7019601C5010C
S1130830B4010E946B1D87FF34C0A5019401C70158
S1130840B6010E949F1B6B017C0120E030E0A901EE
S11308500E946B1D18163CF420E030E048EC52E492
S1130860C701B60107C0C701B601905820E030E0C7
S113087048EC52E40E94701D6B017C0120911B0125
S113088030911C0140911D0150911E01C501B4011C
S11308900E94A01B9B01AC01C701B6010E94111C60
S11308A003C060E070E0CB01FF90EF90DF90CF9049
S11308B0BF90AF909F908F900895CF92DF92EF9268
S11308C0FF920F936B017C01CA01B90124E0029FDE
S11308D0F0011124E550FE4F268137814085518572
S11308E00E94111C9B01AC01C701B6010E949F1B11
S11308F06B017C0120E030E0A9010E940C1C181659
S113090074F401E020911B0130911C0140911D0100
S113091050911E01C701B6010E946B1D87FD00E0C6
S1130920802F0F91FF90EF90DF90CF9008952F923A
S11309303F924F925F926F927F928F929F92AF926B
S1130940BF92CF92DF92EF92FF920F931F93CF93B8
S1130950DF93CDB7DEB7A6970FB6F894DEBF0FBE10
S1130960CDBF1D861E861F86188A198A1A8A1B8A7D
S11309701C8A1D8A1E8A1F8A188E19821A821B825B
S11309801C821D821E821F82188619861A861B8667
S11309901C861E012DE0220E311CCE0101966C0135
S11309A07C01510110E0612F80E792E00E948615DE
S11309B0BC0180E090E00E94B91CD5016D937D9349
S11309C08D939D935D01612F8BE692E00E948615C5
S11309D0BC0180E090E00E94B91CF701619371931F
S11309E0819391937F011F5F1330E9F68091470152
S11309F090914801A0914901B0914A018F8F98A329
S1130A00A9A3BAA380914B0190914C01A0914D01EF
S1130A10B0914E018BA39CA3ADA3BEA38FE4E82E9B
S1130A2081E0F82EABEFB1E0BA8FA98FE0E0F1E0FE
S1130A30FC8FEB8F3E8E2D8E10E0AD8DBE8D4D90D4
S1130A405D906D907D90BE8FAD8FA3019201F701F3
S1130A5064A175A186A197A10E94A01BD7019496B9
S1130A606D937D938D939C939797F60180809180ED
S1130A70A280B380A5019401D0966D917D918D9152
S1130A809C91D3970E94A01BD701D0966D937D9320
S1130A908D939C93D397E98DFA8D2589368947895F
S1130AA0508D6F8D78A189A19AA10E94701DA30118
S1130AB092010E94701D2B013C01D1016D937D9325
S1130AC08D939D931D01E98DFA8D21A132A143A13E
S1130AD054A16BA17CA18DA19EA10E94701DA501B2
S1130AE094010E94701DD6016D937D938D939C9308
S1130AF01397EB8DFC8DA088B188F8EEAF16F3E068
S1130B00BF063CF4012FA30192010E945D048111F0
S1130B102DC01F5F24E0E20EF11C84E0C80ED11C3E
S1130B20A98DBA8D1496BA8FA98FEB8DFC8D329650
S1130B30FC8FEB8F133009F080CFA6960FB6F89494
S1130B40DEBF0FBECDBFDF91CF911F910F91FF90FC
S1130B50EF90DF90CF90BF90AF909F908F907F9059
S1130B606F905F904F903F902F900895FFEFAF1AD2
S1130B70BF0AAB8DBC8D5196BC92AE925097C9CF33
S1130B804F925F926F927F928F929F92AF92BF9299
S1130B90CF92DF92EF92FF920F931F93CF93DF9345
S1130BA0CDB7DEB760970FB6F894DEBF0FBECDBFEA
S1130BB019821A821B821C821D821E821F82188641
S1130BC019861A861B861C867B0121E0822E22E070
S1130BD0922E37E6A32E31E0B32E6C018E010F5F07
S1130BE01F4F3B018CE0680E711CD7016D917D9104
S1130BF08D919D917D01F40121913191419151910A
S1130C004F010E94111CD5016D937D938D939D938B
S1130C105D01F60121913191419151916F010E9441
S1130C209F1BD8016D937D938D939D938D01E61445
S1130C30F704D9F649805A806B807C808D809E8031
S1130C40AF80B884A5019401C301B2010E949F1B27
S1130C506B017C0120E030E0A9010E946B1D181695
S1130C6024F0F7FAF094F7F8F09489859A85AB8527
S1130C70BC858D879E87AF87B88B9C01AD01C5016C
S1130C80B4010E949F1B4B015C0120E030E0A901EC
S1130C900E946B1D181624F0B7FAB094B7F8B094FC
S1130CA0A5019401C701B6010E94A01B6B017C0140
S1130CB0A30192016D857E858F8598890E949F1B73
S1130CC04B015C0120E030E0A9010E946B1D181665
S1130CD024F0B7FAB094B7F8B094A7019601C5010F
S1130CE0B4010E94A01B60930001709301018093E2
S1130CF002019093030111E020911F013091200122
S1130D0040912101509122010E946B1D87FD10E04A
S1130D10812F60960FB6F894DEBF0FBECDBFDF9172
S1130D20CF911F910F91FF90EF90DF90CF90BF90E4
S1130D30AF909F908F907F906F905F904F900895A9
S1130D40CF93DF93C82FD0E0FE01EE0FFF1FEE0F0D
S1130D50FF1FE55AFE4FDE01AA0FBB1FAA0FBB1FE0
S1130D60A959BE4F2D913D914D915C916081718146
S1130D70828193810E949F1BCC0FDD1FCC0FDD1F4E
S1130D80FE01E050FF4F63A374A385A396A320E064
S1130D9030E0A9010E946B1D87FD06C065E872E082
S1130DA087EE91E00E94FC1FC050DF4F4BA15CA175
S1130DB06DA17EA123E030E087EE91E0DF91CF9139
S1130DC00C94EE21CF92DF92EF92FF9224E0829F67
S1130DD0C0011124FC01EC5FFE4FC080D180E28091
S1130DE0F38020E030E04AE754E4C701B6010E94F2
S1130DF00C1C87FF24C020E030E0A901C701B60124
S1130E000E946B1D20E030E040E05FE387FD05C0F9
S1130E10C701B6010E94A01B04C0C701B6010E940D
S1130E209F1B0E94831C2AE030E0AB01BC0187EECB
S1130E3091E0FF90EF90DF90CF900C94B2204AE0C5
S1130E4050E067EE73E087EE91E00E94FA2063E8D9
S1130E5072E087EE91E0FF90EF90DF90CF900C94DA
S1130E60FC1FE82FF0E0EE0FFF1FE05FFE4F6081F4
S1130E707181643671051CF442E050E006C0683E9E
S1130E8083E0780734F441E050E087EE91E00C947D
S1130E90FA204AE050E067EE73E087EE91E00E94AA
S1130EA0FA2061E872E087EE91E00C94FC1F40E0C8
S1130EB067E087EE91E00E94341669EB71E087EEFB
S1130EC091E00E94FC1F41E067E087EE91E00E9400
S1130ED0341667EB71E087EE91E00C94FC1F40E060
S1130EE063E087EE91E00E94341660EB71E087EED8
S1130EF091E00E94FC1F41E060E087EE91E00E94D7
S1130F0034166DEA71E087EE91E00E94FC1F41E027
S1130F1068E087EE91E00E9434166AEA71E087EE99
S1130F2091E00C94FC1F87EE91E00E942616E0915C
S1130F30E5018E2F90E08F31910508F0D8C0FC01B7
S1130F40EC5CFF4F0C94E42361E772E0CCC060E6F4
S1130F5072E0C9C06FE472E0C6C069E472E0C3C065
S1130F6063E472E0C0C06DE372E0BDC067E372E0A9
S1130F70BAC061E372E0B7C06BE272E0B4C064E28D
S1130F8072E087EE91E00E94FC1F40E068E087EE8B
S1130F9091E00E94341660E272E087EE91E00E94D4
S1130FA0FC1F41E060E087EE91E00E9434166CE1A2
S1130FB072E087EE91E00E94FC1F41E068E087EE5A
S1130FC091E00E94341668E172E08DC064E172E041
S1130FD087EE91E00E94FC1F40E068E087EE91E01C
S1130FE00E94341660E172E087EE91E00E94FC1FDB
S1130FF041E060E087EE91E00E9434166CE072E01C
S113100087EE91E00E94FC1F41E06EE087EE91E0E4
S11310100E94341669E072E066C04AE050E061E084
S113102070E087EE91E00E94FA2040E068E087EEED
S113103091E00E9434164AE050E062E070E087EEEE
S113104091E00E94FA2041E060E087EE91E00E9486
S113105034164AE050E063E070E087EE91E00E94CD
S1131060FA2041E068E087EE91E00E94341667E0E0
S113107072E039C062E072E005C06DEF71E002C059
S113108068EF71E087EE91E00E94FC1F0C94570713
S113109065EF71E005C062EF71E002C06FEE71E0D0
S11310A087EE91E00E94FC1F0C946F0763EE71E0E1
S11310B087EE91E00E94FC1F41E060E087EE91E042
S11310C00E94341662ED71E00EC06AEC71E087EEA6
S11310D091E00E94FC1F41E060E087EE91E00E94F5
S11310E034166BEB71E087EE91E00C94FC1F0895CD
S11310F00F931F93CF93DF93D82F162F042F462FD0
S1131100682F87EE91E00E943416C0E0C01741F0CA
S113111068EA71E087EE91E00E94FC1FCF5FF6CF92
S1131120412F6D2F87EE91E0DF91CF911F910F91A9
S11311300C94341640E161E080E00E9478086091EC
S1131140F3017091F4018091F5019091F6010E94F0
S1131150831C62307105B1F03CF46115710561F0D6
S11311606130710561F008956430710589F06CF0A7
S11311706530710581F0089567EF72E00EC06BEE83
S113118072E00BC06EED72E008C060ED72E005C065
S113119061EC72E002C061EB72E087EE91E00C94C6
S11311A0FC1FCF92DF92EF92FF920F931F93CF9386
S11311B0DF93C82F47E060E089E00E947808D0E020
S11311C08E01000F111F000F111F09591E4FD80166
S11311D04D915D916D917C9125E030E087EE91E039
S11311E00E94EE2146E061E080E00E9478082396A8
S11311F0FE01EE0FFF1FEE0FFF1FE15BFE4FD80154
S11312002D913D914D915C91608171818281938199
S11312100E949F1B6B017C0120E030E0A9010E9429
S11312206B1D181624F0F7FAF094F7F8F09424E004
S113123030E0B701A60187EE91E00E94EE2147E07D
S113124061E089E00E947808CC0FDD1FCC0FDD1F20
S1131250C15BDE4F488159816A817B8125E030E0A2
S113126087EE91E0DF91CF911F910F91FF90EF9066
S1131270DF90CF900C94EE21CF92DF92EF92FF9209
S1131280CF93DF93C82F47E060E085E00E947808A1
S1131290D0E0FE01EE0FFF1FEE0FFF1FE55AFE4FD9
S11312A0408151816281738125E030E087EE91E0D5
S11312B00E94EE2148E061E082E00E947808FE018D
S11312C0EE0FFF1FEE0FFF1FE15BFE4FC080D180CA
S11312D0E280F38020E030E048EC52E4C701B6013C
S11312E00E940C1C87FD39C020E030E04AE754E43A
S11312F0C701B6010E940C1C87FD31C04AE050E0D2
S113130067EE73E087EE91E00E94FA2065EB71E0EE
S113131087EE91E00E94FC1F45E061E08AE00E94B4
S11313207808CC0FDD1FCC0FDD1FCC5FDE4F48816A
S113133059816A817B8121E030E087EE91E00E944F
S1131340EE2163EB71E087EE91E0DF91CF91FF90A6
S1131350EF90DF90CF900C94FC1F22E001C021E0BD
S113136030E0B701A60187EE91E00E94EE21D4CFD0
S11313708091E5019091E601891739F08093E601A7
S113138081E08093E4010E9493078091E401882323
S113139009F48FC11092E401E091E5018E2F90E0F1
S11313A0FC013197E631F10508F083C1ED5AFF4F96
S11313B00C94E42348E061E080E00E94780820E097
S11313C030E0A9016091F3017091F4018091F5017D
S11313D09091F6010E940C1C811103C06CEA72E02A
S11313E002C063EA72E087EE91E00C94FC1F0C9457
S11313F09A086FE972E087EE91E00E94FC1F409129
S1131400010250910202609103027091040221E0F2
S113141030E087EE91E00E94EE2140E068E087EE44
S113142091E00E9434166BE972E087EE91E00E942D
S1131430FC1F45E060E08BE00E94780840910502C3
S113144050910602609107027091080221E030E099
S113145087EE91E00E94EE2141E060E087EE91E0AA
S11314600E94341667E972E087EE91E00E94FC1F47
S113147045E061E083E00E947808409109025091C0
S11314800A0260910B0270910C0221E030E028C046
S113149048E060E087E00E94780865E972E087EE42
S11314A091E00E94FC1F4091F7015091F801609176
S11314B0F9017091FA0123E030E087EE91E00E9497
S11314C0EE2140E161E080E00E9478084091F30160
S11314D05091F4016091F5017091F60123E030E040
S11314E087EE91E00C94EE2144E060E08BE00E94F2
S11314F0780880E00E94310744E061E083E00E94C4
S1131500780881E00E94310744E061E08BE00E94AA
S1131510780882E00C94310745E060E083E00E94A3
S1131520780880E00E94E20645E060E08BE00E94DB
S1131530780881E00E94E20645E061E083E00E94D1
S1131540780882E00C94E20646E060E081E00E94C4
S1131550780880E00E94A00646E060E089E00E94EE
S1131560780881E00E94A00646E061E081E00E94E4
S1131570780882E00E94A00646E061E089E00E94CB
S1131580780840910001509101016091020170912D
S1131590030124E030E0A4CF87EE91E00E942616F8
S11315A062E972E087EE91E00E94FC1F40916701BE
S11315B0509168016091690170916A0122E030E004
S11315C087EE91E00E94EE2160E972E087EE91E0FF
S11315D00E94FC1F40916B0150916C0160916D0160
S11315E070916E0122E030E087EE91E00E94EE21DE
S11315F06EE872E087EE91E00E94FC1F40916F015B
S113160050917001609171017091720122E030E09B
S113161087EE91E00E94EE2141E060E087EE91E0E8
S11316200E9434166BE872E087EE91E00E94FC1F82
S113163040915B0150915C0160915D0170915E018C
S113164022E030E087EE91E00E94EE2169E872E04A
S113165087EE91E00E94FC1F40915F015091600170
S1131660609161017091620122E030E087EE91E0C7
S11316700E94EE2167E872E087EE91E00E94FC1F71
S1131680409163015091640160916501709166011C
S113169022E030E025CF80E003C081E001C082E099
S11316A00C94D10880E003C081E001C082E00C9476
S11316B03C0908953F924F925F926F927F928F926E
S11316C09F92AF92BF92CF92DF92EF92FF920F93CD
S11316D01F93CF93DF9300D000D000D0CDB7DEB7F7
S11316E08AE492E00E94F11789E292E00E94F117E5
S11316F00E94B8098091FB01882309F4C4C10E94A7
S1131700970480918C0190918B01891720F48F5F4D
S113171080938C01B8C181E08093E4010E944C2243
S11317200091E0011091E1012091E2013091E30187
S11317306B017C01C01AD10AE20AF30AC982DA8277
S1131740EB82FC828FE491E09E838D838BEFE82E05
S113175081E0F82E00E011E0CC24C394D12C312C8C
S113176060918B0170E080E090E00E94BB1C2B0133
S11317703C019B01AC01AD81BE8194966D917D913C
S11317808D919C9197970E94111C20914701309153
S113179048014091490150914A010E94701DF7018E
S11317A0258936894789508D0E94701D4B015C0143
S11317B0AD81BE816D937D938D939C931397A3010B
S11317C09201D0966D917D918D919C91D3970E94B9
S11317D0111C20914B0130914C0140914D015091CD
S11317E04E010E94701DF70121A132A143A154A111
S11317F00E94701DAD81BE811C966D937D938D9367
S11318009C931F97F7012681378140855185C50137
S1131810B4010E94111CAD81BE8158966D937D93D5
S11318208D939C935B97832D0E94F603F801648348
S113183075838683978389819A81AB81BC81893E34
S11318409340A105B10508F478C067E074E089E32A
S113185093E00E94FC1F4AE050E0B60189E393E064
S11318600E94FA2065E074E089E393E00E942B2053
S113187060EF73E089E393E00E94FC1FAD81BE81B9
S11318804D915D916D917C9126E030E089E393E088
S11318900E94F0216BED73E089E393E00E94FC1F4A
S11318A0ED81FE81448555856685778526E030E0A7
S11318B089E393E00E94F02166EC73E089E393E00E
S11318C00E94FC1FAD81BE8158964D915D916D9132
S11318D07C915B9726E030E089E393E00E94F0215D
S11318E061EB73E089E393E00E94FC1FF8014481FB
S11318F055816681778122E030E089E393E00E949C
S1131900F0216CE973E089E393E00E94FC1FD801A5
S113191093964D915D916D917C91969726E030E080
S113192089E393E00E94F021B2E03B1631F068E9CC
S113193073E089E393E00E942B203394ED81FE81D0
S11319403496FE83ED83F4E0EF0EF11C0C5F1F4F21
S11319502FEFC21AD20A83E0381202CFC980DA808C
S1131960EB80FC8029EEC21623E0D206E104F104E8
S113197020F163E873E089E393E00E94FC1F409147
S1131980000150910101609102017091030125E071
S113199030E089E393E00E94F02169E773E089E392
S11319A093E00E942B200E944C226093E0017093EC
S11319B0E1018093E2019093E3010E9458036FE4F4
S11319C071E08BE591E00E94C005409117015091B0
S11319D018016091190170911A01882309F441C01A
S11319E0452B462B472B81F463E673E089E393E0B0
S11319F00E942B200E944C226093170170931801BF
S1131A008093190190931A010E944C2200911701AE
S1131A10109118012091190130911A01DC01CB01B8
S1131A20801B910BA20BB30B80319742A105B1052A
S1131A3050F180912802811106C01092FB0161E0EF
S1131A4081E10E9464236AE373E089E393E00E94E6
S1131A502B2061E080E10E94642381E080931601E1
S1131A6012C0452B462B472B31F064E073E089E329
S1131A7093E00E942B2010921701109218011092EB
S1131A80190110921A0126960FB6F894DEBF0FBE04
S1131A90CDBFDF91CF911F910F91FF90EF90DF9019
S1131AA0CF90BF90AF909F908F907F906F905F90FA
S1131AB04F903F9008952F923F924F925F926F9272
S1131AC07F928F929F92AF92BF92CF92DF92EF92CA
S1131AD0FF920F931F93CF93DF93CDB7DEB7E097B9
S1131AE00FB6F894DEBF0FBECDBF1DA21EA21FA26B
S1131AF018A619A61AA61BA61CA61DA61EA61FA6D6
S1131B0018AA198E1A8E1B8E1C8E1D8E1E8E1F8E69
S1131B1018A219A21AA21BA21CA21D861E861F8629
S1131B20188A198A1A8A1B8A1C8A1D8A1E8A1F8A85
S1131B30188E19821A821B821C821D821E821F82A9
S1131B40188619861A861B861C8601E02E0181E3FD
S1131B50480E511C80918B01081708F060C07E016B
S1131B6095E2E90EF11C6E01E9E1CE0ED11C56019D
S1131B70370110E0612F80E792E00E948615BC01D6
S1131B8080E090E00E94B91CF3016193719381930A
S1131B9091933F01612F8BE692E00E948615BC0170
S1131BA080E090E00E94B91CF501619371938193E8
S1131BB091935F011F5F1330E9F63E01FDE06F0E64
S1131BC0711CCE0101965C01F70121913191419183
S1131BD051917F01F30160817181828193810E941F
S1131BE0A01BF30161937193819391933F01F601DB
S1131BF021913191419151916F01F5016081718180
S1131C00828193810E94A01BF5016193719381935A
S1131C1091935F01E414F504B9F60F5F9BCF68E973
S1131C2071E089E393E00E942B206E01FDE0CF0E6A
S1131C30D11C0BEF11E0CE0101961C01F12C4AE0FE
S1131C4050E06F2D89E393E00E949A20F6014190C1
S1131C505190619071906F0160918B0170E080E010
S1131C6090E00E94BB1C4B015C019B01AC01C301D1
S1131C70B2010E94111C209147013091480140910A
S1131C80490150914A010E94701DF8012589368945
S1131C904789508D0E94701D2B013C01F101619117
S1131CA07191819191911F01A50194010E94111CD0
S1131CB020914B0130914C0140914D0150914E01C6
S1131CC00E94701DF80121A132A143A154A10E94D8
S1131CD0701D4B015C019B01AC01C301B2010E9468
S1131CE0111CF801668377838087918765E971E029
S1131CF089E393E00E94FC1F25E030E0B301A201D8
S1131D0089E393E00E94F02162E971E089E393E0C2
S1131D100E94FC1F25E030E0B501A40189E393E0B3
S1131D200E94F0216FE871E089E393E00E94FC1FB8
S1131D30F801468157816085718525E030E089E3AB
S1131D4093E00E94F021F2E0FF1203C065E871E025
S1131D5002C06EE771E089E393E00E942B20F394C4
S1131D600C5F1F4F83E0F8126ACFE0960FB6F89429
S1131D70DEBF0FBECDBFDF91CF911F910F91FF90BA
S1131D80EF90DF90CF90BF90AF909F908F907F9017
S1131D906F905F904F903F902F900895CF92DF9275
S1131DA0EF92FF928091E5019CEF980F963058F5E1
S1131DB0C090F701D090F801E090F901F090FA0199
S1131DC020E030E048EC52E4C701B6010E946B1DEC
S1131DD087FF09C020E030E040E251E4C701B601CA
S1131DE00E94701D04C06FE672E183E89AE3609379
S1131DF0F7017093F8018093F9019093FA0181E05F
S1131E008093E40120C08A3099F487EE91E00E9427
S1131E10261667E571E087EE91E00E94FC1F0E94A0
S1131E205B0D87EE91E00E9426161092E6010BC02E
S1131E3093EF980F9A3010F48EE103C08E3119F4A9
S1131E408DE08093E501FF90EF90DF90CF900895AF
S1131E5081E08093E401E091E5018E2F90E0FC01A4
S1131E603197E930F10508F057C0E759FF4F0C945A
S1131E70E4236091FC0102C060910E0270E080E0F6
S1131E8090E00E94B91C6093F3017093F401809375
S1131E90F5019093F60140C060910F02EFCF80915D
S1131EA0100290911102A0911202B09113022CC061
S1131EB08091140290911502A0911602B09117021C
S1131EC023C08091180290911902A0911A02B09136
S1131ED01B021AC080911C0290911D02A0911E0247
S1131EE0B0911F0211C08091200290912102A09113
S1131EF02202B091230208C080912402909125020D
S1131F00A0912602B09127028093F3019093F401EB
S1131F10A093F501B093F60180E090E0A0E8BFE360
S1131F208093F7019093F801A093F901B093FA011B
S1131F300895CF92DF92EF92FF92CF938091E501C3
S1131F408A30E1F41092010210920202109203020C
S1131F5010920402109205021092060210920702D7
S1131F60109208021092090210920A0210920B02B7
S1131F7010920C0281E08093E40170C081110AC0C8
S1131F80C1E0C093E401C093E5010E94280FC0930F
S1131F900D0264C09FEF980F9A3008F04EC091E094
S1131FA09093E4018130C1F420E030E0A901609114
S1131FB0F3017091F4018091F5019091F6010E9472
S1131FC00C1C882321F080E090E0DC012DC080E02F
S1131FD090E0A0E8BFE328C02091F7013091F80118
S1131FE04091F9015091FA016091F3017091F4016B
S1131FF08091F5019091F6010E949F1B6B017C0179
S113200020E030E0A9010E940C1C87FD09C0C092A9
S1132010F301D092F401E092F501F092F6011EC0B2
S113202080EF9FEFA9E7B4E48093F3019093F40168
S1132030A093F501B093F60111C023EF280F2A30C5
S113204030F48D3009F496E19093E50107C08E31A8
S113205029F48DE08093E5011092FB01CF91FF906C
S1132060EF90DF90CF9008951F93CF93DF93EC010F
S1132070162F6BE371E089E393E00E94FC1F133099
S113208021F168F41130C1F0123089F569E271E090
S113209089E393E00E942B2060E074E030C01430A8
S11320A0E9F0153021F567E071E089E393E00E94DF
S11320B02B2060E07AE023C062E371E089E393E0DF
S11320C00E942B2060E072E01AC06FE171E089E3A6
S11320D093E00E942B2060E076E011C064E171E09F
S11320E089E393E00E942B2060E078E008C068EF69
S11320F070E089E393E00E942B2060E070E0CE0161
S1132100DF91CF911F910C943715CF93DF93CBEFD1
S1132110D1E06C8980E792E00E943410EC8984E07D
S1132120E89FF0011124E15DFE4F20E030E04AE732
S113213054E460817181828193810E94111C6093B7
S11321404701709348018093490190934A01DF91BC
S1132150CF910895CF93DF93CBEFD1E06B898BE6DA
S113216092E00E943410EB8984E0E89FF00111248E
S1132170E15DFE4F20E030E04AE754E46081718184
S1132180828193810E94111C60934B0170934C01D6
S113219080934D0190934E01DF91CF91089526E0F5
S11321A040E855E260E070E089E393E00E94B91EE4
S11321B06AE675E089E393E00E942B2060E070E01A
S11321C080E792E00E94371580E792E00E94331581
S11321D060E070E08BE692E00E9437158BE692E0B7
S11321E00E94331587EE91E00E94D41687EE91E0A9
S11321F00E94E01587EE91E00E9426166EE575E0D8
S113220089E393E00E942B206AE673E08AE492E07B
S11322100E9411176EEC7EE08AE492E00E9415178A
S11322206EE170E08AE492E00E94051768EC70E0C9
S11322308AE492E00E94091768EE73E08AE492E06F
S11322400E940D176DE475E089E393E00E942B2052
S113225069E97FE089E292E00E94111763E874E182
S113226089E292E00E9415176EE170E089E292E043
S11322700E94051768EC70E089E292E00E94091759
S113228068EE73E089E292E00E940D176CE375E05A
S113229089E393E00E942B2087E290E00E94EA23E6
S11322A0843609F459C060E086E290E00E94F82385
S11322B060E085E290E00E94F82360E084E290E030
S11322C00E94F82340E050E0BA0180E290E00E94CE
S11322D00A2440E050E0BA018CE190E00E940A2414
S11322E040E050E0BA0188E190E00E940A2440E016
S11322F050E0BA0184E190E00E940A2440E050E0FA
S1132300BA0180E190E00E940A2440E050E0BA0162
S11323108CE090E00E940A2440E050E0BA0188E09A
S113232090E00E940A2440E050E0BA0184E090E08A
S11323300E940A2440E050E0BA0180E090E00E944C
S11323400A2464E687E290E00E94F82361E275E0E3
S113235089E393E00E942B2085E290E00E94EA2327
S113236080930E0284E290E00E94EA2380930F029D
S113237086E290E00E94EA2391E0811101C090E09E
S11323809093FC0180E290E00E94F22360930102AA
S11323907093020280930302909304028CE190E014
S11323A00E94F22360930502709306028093070251
S11323B09093080288E190E00E94F223609309025E
S11323C070930A0280930B0290930C0284E190E0D4
S11323D00E94F22360931002709311028093120200
S11323E09093130280E190E00E94F2236093140220
S11323F07093150280931602909317028CE090E07C
S11324000E94F223609318027093190280931A02B7
S113241090931B0288E090E00E94F22360931C02D8
S113242070931D0280931E0290931F0284E090E03B
S11324300E94F2236093200270932102809322026F
S11324409093230280E090E00E94F22360932402A0
S113245070932502809326029093270262E175E02F
S113246089E393E00E942B2062E075E089E393E026
S11324700E94FC1F4AE050E060910E0289E393E061
S11324800E949A2063EF74E089E393E00E94FC1FAA
S11324904AE050E060910F0289E393E00E949A20A1
S11324A061EE74E089E393E00E94FC1F6091FC01FB
S11324B070E04AE050E089E393E00E94012162ED7C
S11324C074E089E393E00E94FC1F40910102509163
S11324D0020260910302709104022AE030E089E371
S11324E093E00E94F02163EC74E089E393E00E949E
S11324F0FC1F409105025091060260910702709101
S113250008022AE030E089E393E00E94F02164EBC2
S113251074E089E393E00E94FC1F4091090250910A
S11325200A0260910B0270910C022AE030E089E308
S113253093E00E94F02162EA74E089E393E00E9450
S1132540FC1F40911002509111026091120270918F
S1132550130223E030E089E393E00E94F02160E974
S113256074E089E393E00E94FC1F409114025091AF
S11325701502609116027091170223E030E089E39E
S113258093E00E94F0216EE774E089E393E00E94F7
S1132590FC1F409118025091190260911A02709127
S11325A01B0223E030E089E393E00E94F0216BE614
S11325B074E089E393E00E94FC1F40911C02509157
S11325C01D0260911E0270911F0223E030E089E336
S11325D093E00E94F02168E574E089E393E00E94AF
S11325E0FC1F4091200250912102609122027091BF
S11325F0230223E030E089E393E00E94F02165E4C4
S113260074E089E393E00E94FC1F409124025091FE
S11326102502609126027091270223E030E089E3CD
S113262093E00E94F0210E9485100E94AA108091DC
S1132630FC01882329F080E090E0A0EAB0E404C023
S113264080E090E0A0E2B0E48093FD019093FE016D
S1132650A093FF01B09300020E94180361E081E19E
S11326600E94282361E080E10E94282360E084E046
S11326700E94282360E081E10E94642360E080E1FD
S11326800E94642384E00E949323019799F481E0DB
S11326908093280287EE91E00E9426166AE374E094
S11326A087EE91E00E94FC1F68EE73E080E090E00A
S11326B00E947D228091E5018093E6010E945803E7
S11326C06FE274E089E393E00E942B2063E274E0FC
S11326D089E393E00E942B200E9493070C94B8098D
S11326E0CF92DF92EF92FF92CF93E091E5018E2F8C
S11326F090E0FC013197EA30F10508F0FEC0EE5895
S1132700FF4F0C94E423C090F301D090F401E090C7
S1132710F501F090F601C1E020E030E0A901C70125
S1132720B6010E940C1C811101C0C0E0C093FC01E1
S113273020E030E0A901C701B6010E940C1C811100
S113274005C080E090E0A0E2B0E404C080E090E046
S1132750A0EAB0E48093FD019093FE01A093FF01F1
S1132760B09300026C2F86E290E012C06091F301F6
S11327707091F4018091F5019091F6010E948A1CF8
S113278060930E020E94AA1060910E0285E290E00E
S1132790CF91FF90EF90DF90CF900C94F82360914D
S11327A0F3017091F4018091F5019091F6010E947A
S11327B08A1C60930F020E94851060910F0284E2CC
S11327C090E0E6CF40910102509102026091030231
S11327D07091040280E290E00E940A244091050274
S11327E05091060260910702709108028CE190E01A
S11327F00E940A244091090250910A0260910B023E
S113280070910C0288E190E071C04091F301509105
S1132810F4016091F5017091F60140931002509318
S11328201102609312027093130284E190E05EC07F
S11328304091F3015091F4016091F5017091F6011A
S1132840409314025093150260931602709317027A
S113285080E190E04BC04091F3015091F40160910C
S1132860F5017091F6014093180250931902609398
S11328701A0270931B028CE090E038C04091F3017F
S11328805091F4016091F5017091F60140931C029E
S113289050931D0260931E0270931F0288E090E023
S11328A025C04091F3015091F4016091F5017091BC
S11328B0F601409320025093210260932202709308
S11328C0230284E090E012C04091F3015091F4019E
S11328D06091F5017091F601409324025093250212
S11328E0609326027093270280E090E0CF91FF90DE
S11328F0EF90DF90CF900C940A24CF91FF90EF904B
S1132900DF90CF900895CF9380911601882379F0BA
S113291060E080E10E946423109216011092170176
S1132920109218011092190110921A013EC0C09120
S1132930E501CC23D1F1CD30A1F410921101109214
S113294010011092130110921201109215011092AD
S113295014010E945803C093E50181E08093E401CF
S113296024C080910D02882389F0CA3029F40E9482
S11329707013CF910C9418030E9470138091E50199
S11329808F5F8093E501CF910C94280F61E471E08F
S113299089E393E00E942B201092FB01C1E0C093D5
S11329A0E5010E94280FC0930D02CF910895CF93A3
S11329B0DF9368E480E792E00E942B1569E48BE6DC
S11329C092E00E942B1521E040E050E06EE070E0C0
S11329D08AE492E00E94D61621E040E050E06FE0E5
S11329E070E089E292E00E94D616CBEFD1E0188223
S11329F0198280E090E0A0E2B0E48A839B83AC83F8
S1132A00BD831E821F82188619861A861B861C8621
S1132A101D861E861F86188A198A1B8A1C8A8CE0CA
S1132A20EDE8F1E0A0E1B2E001900D928A95E1F7C2
S1132A308CE0EDE8F1E0ACE1B2E001900D928A9512
S1132A40E1F71DA622E040E167E287EE91E0DF9125
S1132A50CF910C94BD15FC0114821382608388E02D
S1132A6081831282089583EE92E00C94021BFC0190
S1132A707483638308951F93CF93DF93162FEA0122
S1132A80682F83EE92E00E94141B612F83EE92E084
S1132A900E94C31A6D2F83EE92E00E94C31A6C2F1A
S1132AA083EE92E00E94C31A83EE92E0DF91CF910D
S1132AB01F910C94981B1F93CF93DF93182F682FAB
S1132AC083EE92E00E94141B60E083EE92E00E9489
S1132AD0C31A83EE92E00E94981B42E0612F83EEBA
S1132AE092E00E94951B83EE92E00E943C1A182FFC
S1132AF083EE92E00E943C1AD12F20E0C22F9E0167
S1132B00282BC901DF91CF911F910895CF93DF93B3
S1132B10643050F5FC0143815481623051F06330DC
S1132B2059F0613019F04368516408C04368516535
S1132B3005C04368516602C043685167EC015068A0
S1132B4061E088810E943B15698170E080E090E03B
S1132B500E947D2288810E945B150A8002C096959E
S1132B6087950A94E2F702C080E090E0DF91CF916C
S1132B70089580E090E008950895FC011382128284
S1132B8085EA91E091838083648341872287138659
S1132B9008951F93CF93DF93EC01162F6C8183EE7E
S1132BA092E00E94141B6B85612B83EE92E00E94DD
S1132BB0C31A83EE92E0DF91CF911F910C94981B7E
S1132BC028E0FC01238760E00C94C9150F931F9340
S1132BD0CF938C01C62F64600E94C91581E090E0F8
S1132BE00E94B9226C2F6B7FC8010E94C91582E331
S1132BF090E0CF911F910F910C94B9221F93CF9322
S1132C00DF93EC01162F0E94C915612FCE01DF91CD
S1132C10CF911F910C94E6150F931F93CF93DF93DD
S1132C208C01C62FD42F607F642B0E94FE1580E197
S1132C30C89FB00111246D2BC801DF91CF911F9162
S1132C400F910C94FE1540E00C940C1661E00E9468
S1132C50231680ED97E00C94B92262E00E942316BB
S1132C6080ED97E00C94B922CF93DF93CDB7DEB714
S1132C7028970FB6F894DEBF0FBECDBF9C0188E045
S1132C80E9E9F1E0DE01119601900D928A95E1F7F0
S1132C90F9018085841710F44FEF480FFE01319637
S1132CA0E40FF11DE40FF11D9081690F6068C90103
S1132CB028960FB6F894DEBF0FBECDBFDF91CF913B
S1132CC00C942316FC016681262F246026836C60F5
S1132CD00C94231641E00E940C1681E090E00895C4
S1132CE0CF93DF93EC01423018F08D8188608D839F
S1132CF04887222329F0413019F48D8184608D8323
S1132D0062E370E080E090E00E947D226B85CE015A
S1132D100E94C91568EE73E080E090E00E947D2275
S1132D2060E3CE010E94FE1584E991E10E94B9227C
S1132D3060E3CE010E94FE1584E991E10E94B9226C
S1132D4060E3CE010E94FE1586E990E00E94B9225C
S1132D5060E2CE010E94FE156D816062CE010E9488
S1132D60231684E08E83CE010E946216CE010E9457
S1132D70261682E08F8366E0CE010E942316CE01E0
S1132D80DF91CF910C942D16CF93DF93EC0183EE5A
S1132D9092E00E94021B1D8220E04A856985CE01D3
S1132DA0DF91CF910C9470160C94C416FC01862FFD
S1132DB0A2E3B0E0B383A283A8E5B2E0B583A48321
S1132DC0A8EEB3E0B783A68312861486138616860C
S1132DD01586108A1786128A118A148A138A168A0B
S1132DE0158A108E178A60837183452B19F011861A
S1132DF0108604C041E050E051874087222311F03F
S1132E0062E001C060E00C942823FC0173836283B8
S1132E100895FC01758364830895FC0177836683B8
S1132E200895FC01748763870895FC01728B618B9C
S1132E300895CF92DF92EF92FF921F93CF93DF9387
S1132E40EC01162F0E944C226B017C018F89988D16
S1132E50009731F4112309F4BCC081E090E078C0FC
S1132E6081309105D9F5898D9A8DAB8DBC8DB701D3
S1132E70A601481B590B6A0B7B0B11110FC08A81E9
S1132E809B81A0E0B0E0481759076A077B0718F454
S1132E90188E1F8A9EC082E090E01DC08E819F81A3
S1132EA0A0E0B0E084179507A607B70708F091C023
S1132EB081E08A87EF85F889309709F00995E989D7
S1132EC0FA89309709F00995ED89FE89309709F060
S1132ED0099586E090E0988F8F8B68C082309105C9
S1132EE0F1F58D859E85892B99F0898D9A8DAB8D11
S1132EF0BC8DB701A601481B590B6A0B7B0B8C8157
S1132F009D81A0E0B0E084179507A607B70738F4C1
S1132F10EB85FC85309709F4BBCF0995B9CF112314
S1132F2009F457C08D8D9E8DAF8DB8A1B701A60150
S1132F30481B590B6A0B7B0B8A819B81A0E0B0E094
S1132F4084179507A607B70708F043C083E090E00D
S1132F50988F8F8BC98EDA8EEB8EFC8E3AC08330BD
S1132F609105C1F4111135C0898D9A8DAB8DBC8D3D
S1132F70B701A601481B590B6A0B7B0B8A819B8105
S1132F80A0E0B0E084179507A607B70710F5ED8514
S1132F90FE8507C00697E9F411110DC01A86EB8966
S1132FA0FC89309709F00995188E1F8ACD8EDE8E24
S1132FB0EF8EF8A20EC081E08A87ED89FE893097F2
S1132FC041F0DF91CF911F91FF90EF90DF90CF9070
S1132FD00994DF91CF911F91FF90EF90DF90CF90F4
S1132FE00895CF93DF93EC018881998197FD0EC0FA
S1132FF00E94932361E0288539852817390709F051
S113300060E0CE01DF91CF910C941917DF91CF913D
S113301008951092E20281E08093E0021092DF02B0
S113302061E082E10E94642361E083E10E94642301
S1133030E9EBF0E080818E7F808380818D7F8083C7
S113304088E48093B80085E48093BC0008954132FD
S113305008F043C09091E2029111FCCF91E090936B
S1133060E2022093E0022FEF209375021092BA023D
S1133070240F2093B9029093E1029091E102880F0A
S1133080892B8093E1028091DF02813061F41092F8
S1133090DF028091E1028093BB008091BC0083FD3C
S11330A0F8CF85EC01C085EE8093BC008091E202EC
S11330B08130E1F38091BA02841710F44091BA028E
S11330C0ABEBB2E0962FFB018E2F891B841718F40B
S11330D08D918193F9CF842F089580E008950F9303
S11330E0413208F04AC09091E2029111FCCF32E0E3
S11330F03093E2020093E0023FEF309375021092A6
S1133100BA024093B902562FABEBB2E0FB013E2F5B
S1133110351B341718F431913D93F9CF1092E10225
S11331203091E102880F832B8093E1028091DF02CA
S1133130813061F41092DF028091E1028093BB0040
S11331408091BC0083FDF8CF85EC01C085EE8093AF
S1133150BC00222321F08091E2028230D1F38091DD
S113316075028F3F79F080917502803241F0809131
S11331707502803331F094E005C091E003C092E021
S113318001C093E0892F0F91089540919702262F53
S113319030E0240F311D21323105DCF42091E202AC
S11331A02430C9F4FC0180E090E0861758F4309193
S11331B097022191DC01A756BD4FA30FB11D2C939B
S11331C00196F3CF80919702680F6093970280E095
S11331D0089581E0089582E008959093DC0280933D
S11331E0DB0208959093DE028093DD02089585ED5D
S11331F08093BC008091BC0084FDFCCF1092E2025D
S1133200089585EC8093BC001092E20208951F9209
S11332100F920FB60F9211242F933F934F935F9306
S11332206F937F938F939F93AF93BF93EF93FF938A
S11332308091B900887F803609F49EC078F5883281
S113324009F45DC090F4803109F456C038F4882341
S113325009F4F5C0883009F44FC0F5C0883109F489
S11332604EC0803209F45FC0EEC0803409F46AC0F5
S113327058F4803309F457C0883309F0E4C08093CC
S113328075020E940119DFC0803509F44FC08835EA
S113329009F45DC0883409F0D6C0D3C0883909F474
S11332A0C4C0A8F4883709F467C038F4883609F430
S11332B063C0803709F460C0C6C0883809F4B5C05B
S11332C0803909F45FC0803809F0BDC05BC0803B21
S11332D009F483C038F4803A09F466C0883A09F4E2
S11332E07CC0B1C0803C09F4A4C0883C09F4A1C0EE
S11332F0883B09F487C0A7C08091E10210C0909177
S1133300BA028091B902981770F5E091BA0281E08F
S11333108E0F8093BA02F0E0E554FD4F80818093D4
S1133320BB0085EC83C0809375028BC0E091BA0228
S113333081E08E0F8093BA028091BB00F0E0E554E7
S1133340FD4F80839091BA028091B9026BC0E091E5
S1133350BA0281E08E0F8093BA028091BB00F0E044
S1133360E554FD4F80838091E00281116AC081E0C1
S11333708093DF0284EA5EC083E08093E2021092CD
S11333807602CFCF80917602803208F04EC0E09171
S1133390760281E08E0F809376028091BB00F0E08C
S11333A0E958FD4F8083BDCF0E94011980917602B8
S11333B0803230F4E0917602F0E0E958FD4F10825B
S11333C06091760270E0E091DB02F091DC0287E725
S11333D092E009951092760236C084E08093E2026E
S11333E01092980210929702E091DD02F091DE02B1
S11333F0099580919702811105C081E0809397021D
S113340010929902E091980281E08E0F80939802C5
S1133410F0E0E756FD4F80818093BB0090919802C5
S113342080919702981708F47CCF85E88093BC00BC
S11334300AC085EC8093BC001092E20204C0109292
S113344075020E94F718FF91EF91BF91AF919F9180
S11334508F917F916F915F914F913F912F910F9039
S11334600FBE0F901F9018958091170390E0209144
S11334701803821B910908959091180380911703F2
S1133480981750F4E92FF0E0E75EFC4F208130E01C
S11334909F5F9093180302C02FEF3FEFC901089577
S11334A0E091180380911703E81730F4F0E0E75E29
S11334B0FC4F808190E008958FEF9FEF0895089569
S11334C0CF93DF93EC01E091EF02F091F00230979B
S11334D0F1F090911803809117039817C0F090E0D1
S11334E0292F30E02617370754F4DE01A20FB31F4B
S11334F04C91D901A75EBC4F4C939F5FF1CF1092C2
S1133500180360931703CB01DF91CF910994DF91E6
S1133510CF910895E091F102F091F202309729F0F1
S11335201092F5021092F40209940895CF92DF925A
S1133530EF92FF920F931F93CF93DF937C01CB0104
S11335408A012091F302222389F0EB016B01C40E5E
S1133550D51ECC15DD0569F06991D701ED91FC917B
S11335600190F081E02DC7010995F3CF642F0E94EB
S1133570C518C801DF91CF911F910F91FF90EF9073
S1133580DF90CF900895CF93DF931F92CDB7DEB72E
S113359069832091F3022223D1F02091F402203296
S11335A040F021E030E0FC013383228380E090E0AE
S11335B015C08091F502E82FF0E0EA50FD4F9981A3
S11335C090838F5F8093F5028093F40205C061E0DD
S11335D0CE0101960E94C51881E090E00F90DF9122
S11335E0CF910895FC011382128288EE93E0A0E04B
S11335F0B0E084839583A683B78381EB91E09183C4
S11336008083089510921803109217031092F50204
S11336101092F4020E9409188AE89AE10E94F218B2
S113362080E69AE10C94ED1881E08093F3026093B4
S113363016031092F5021092F40208950F93062FC8
S113364021E04091F40266EF72E0809116030E943B
S11336506F181092F5021092F4021092F3020F9177
S113366008954F925F926F927F92AF92BF92CF92E2
S1133670EF92FF920F931F93CF93DF935C01F62E8B
S1133680D42F28013901EE2021F10E94141BCE2DE4
S1133690C43008F0C3E0C150C0F028E0C29FC001AC
S11336A01124A301920104C0569547953795279597
S11336B08A95D2F7CA01B901D501ED91FC91019027
S11336C0F081E02DC5010995E6CF60E0C5010E94B7
S11336D01E1B4D2FD13208F040E22C2D69E173E01E
S11336E08F2D0E9427181092180380931703DF91DF
S11336F0CF911F910F91FF90EF90CF90BF90AF901B
S11337007F906F905F904F900895CF92EF920F93B8
S11337101F93C22EE12C00E010E098010E94311B9F
S11337201F910F91EF90CF90089521E00C94851B89
S113373061E00C941E1B83EE92E00C94F21A505834
S1133740BB27AA270E94B71B0C94311D0E94231D7E
S113375038F00E942A1D20F039F49F3F19F426F412
S11337600C94201D0EF4E095E7FB0C941A1DE92F30
S11337700E94421D58F3BA1762077307840795071E
S113378020F079F4A6F50C94641D0EF4E0950B2E4C
S1133790BA2FA02D0B01B90190010C01CA01A0019F
S11337A01124FF27591B99F0593F50F4503E68F1FA
S11337B01A16F040A22F232F342F4427585FF3CF3B
S11337C0469537952795A795F0405395C9F77EF40C
S11337D01F16BA0B620B730B840BBAF09150A1F055
S11337E0FF0FBB1F661F771F881FC2F70EC0BA0FDB
S11337F0621F731F841F48F4879577956795B79563
S1133800F7959E3F08F0B0CF9395880F08F099275D
S1133810EE0F9795879508950E94F61C08F481E0B1
S113382008950E94251C0C94311D0E942A1D58F0F5
S11338300E94231D40F029F45F3F29F00C941A1DC7
S113384051110C94651D0C94201D0E94421D68F3B7
S11338509923B1F3552391F3951B550BBB27AA2745
S113386062177307840738F09F5F5F4F220F331F7F
S1133870441FAA1FA9F335D00E2E3AF0E0E832D047
S113388091505040E695001CCAF72BD0FE2F29D04A
S1133890660F771F881FBB1F261737074807AB071C
S11338A0B0E809F0BB0B802DBF01FF2793585F4F91
S11338B03AF09E3F510578F00C941A1D0C94651D46
S11338C05F3FE4F3983ED4F3869577956795B79573
S11338D0F7959F5FC9F7880F911D9695879597F97E
S11338E00895E1E0660F771F881FBB1F62177307F7
S11338F08407BA0720F0621B730B840BBA0BEE1F0C
S113390088F7E09508950E948A1C6894B1110C947C
S1133910651D08950E944A1D88F09F5798F0B92F9D
S11339209927B751B0F0E1F0660F771F881F991FF0
S11339301AF0BA95C9F714C0B13091F00E94641D11
S1133940B1E008950C94641D672F782F8827B85F21
S113395039F0B93FCCF3869577956795B395D9F748
S11339603EF490958095709561957F4F8F4F9F4F52
S11339700895E89409C097FB3EF49095809570955E
S113398061957F4F8F4F9F4F9923A9F0F92F96E9A7
S1133990BB279395F695879577956795B795F1111C
S11339A0F8CFFAF4BB0F11F460FF1BC06F5F7F4FB9
S11339B08F4F9F4F16C0882311F096E911C07723CB
S11339C021F09EE8872F762F05C0662371F096E8D4
S11339D0862F70E060E02AF09A95660F771F881FA3
S11339E0DAF7880F9695879597F90895990F000847
S11339F0550FAA0BE0E8FEEF16161706E807F907BD
S1133A00C0F012161306E407F50798F0621B730B57
S1133A10840B950B39F40A2661F0232B242B252BD8
S1133A2021F408950A2609F4A140A6958FEF811D7B
S1133A30811D089597F99F6780E870E060E008951C
S1133A409FEF80EC089500240A94161617061806B2
S1133A500906089500240A9412161306140605068E
S1133A600895092E0394000C11F4882352F0BB0F1F
S1133A7040F4BF2B11F460FF04C06F5F7F4F8F4F82
S1133A809F4F089557FD9058440F551F59F05F3FBD
S1133A9071F04795880F97FB991F61F09F3F79F06C
S1133AA087950895121613061406551FF2CF4695EE
S1133AB0F1DF08C0161617061806991FF1CF869570
S1133AC07105610508940895E894BB276627772754
S1133AD0CB0197F908950E94F61C08F48FEF08951E
S1133AE00E94831D0C94311D0E94231D38F00E94F6
S1133AF02A1D20F0952311F00C941A1D0C94201DFE
S1133B0011240C94651D0E94421D70F3959FC1F30E
S1133B10950F50E0551F629FF001729FBB27F00D77
S1133B20B11D639FAA27F00DB11DAA1F649F6627CC
S1133B30B00DA11D661F829F2227B00DA11D621F1B
S1133B40739FB00DA11D621F839FA00D611D221FD5
S1133B50749F3327A00D611D231F849F600D211DB9
S1133B60822F762F6A2F11249F5750409AF0F1F03C
S1133B7088234AF0EE0FFF1FBB1F661F771F881FA5
S1133B8091505040A9F79E3F510580F00C941A1DA6
S1133B900C94651D5F3FE4F3983ED4F386957795C6
S1133BA06795B795F795E7959F5FC1F7FE2B880F4B
S1133BB0911D9695879597F90895FC01918D228D15
S1133BC0892F90E0805C9F4F821B91098F73992706
S1133BD00895FC01918D828D981731F0828DE80F44
S1133BE0F11D858D90E008958FEF9FEF0895FC01FE
S1133BF0918D828D981761F0828DDF01A80FB11D20
S1133C005D968C91928D9F5F9F73928F90E0089543
S1133C108FEF9FEF0895FC01538D448D252F30E0E5
S1133C20842F90E0821B930B541710F0CF960895C5
S1133C300197089586E79FE1892B49F080E090E0A1
S1133C40892B29F00E94761F81110C94000008959D
S1133C50FC01848DDF01A80FB11DA35ABF4F2C9125
S1133C60848D90E001968F739927848FA689B789F4
S1133C702C93A089B1898C91837080648C93938DEB
S1133C80848D981306C00288F389E02D80818F7D8E
S1133C9080830895EF92FF920F931F93CF93DF9346
S1133CA0EC0181E0888F9B8D8C8D981305C0E88989
S1133CB0F989808185FD26C0F62E0B8D10E00F5FFB
S1133CC01F4F0F731127E02E8C8DE8120CC00FB616
S1133CD007FCFACFE889F989808185FFF5CFCE0109
S1133CE00E94281EF1CF8B8DFE01E80FF11DE35ACF
S1133CF0FF4FF0829FB7F8940B8FEA89FB8980818C
S1133D0080620AC09FB7F894EE89FF896083E889CE
S1133D10F98980818370806480839FBF81E090E013
S1133D20DF91CF911F910F91FF90EF900895CF9362
S1133D30DF93EC01888D8823C9F0EA89FB898081AF
S1133D4085FD05C0A889B9898C9186FD0FC00FB681
S1133D5007FCF5CF808185FFF2CFA889B9898C91C2
S1133D6085FFEDCFCE010E94281EE7CFDF91CF91D2
S1133D700895CF92DF92EF92FF921F93CF93DF9338
S1133D80EC016A017B01122FE889F98982E08083C2
S1133D904115514E61057105B1F060E079E08DE3A4
S1133DA090E0A70196010E94C223DA01C90101979C
S1133DB0A109B109B695A795979587959C012115F9
S1133DC080E13807A8F0E889F989108260E874E88E
S1133DD08EE190E0A70196010E94C223DA01C90195
S1133DE00197A109B109B695A795979587959C0167
S1133DF0EC85FD853083EE85FF852083188EEC8964
S1133E00FD891083EA89FB89808180618083EA8946
S1133E10FB89808188608083EA89FB89808180684E
S1133E208083EA89FB8980818F7D8083DF91CF91B4
S1133E301F91FF90EF90DF90CF9008951F920F9203
S1133E400FB60F9211242F938F939F93EF93FF93A9
S1133E50E0914903F0914A038081E0914F03F0918E
S1133E60500382FD12C09081809152038F5F8F7343
S1133E7020915303821751F0E0915203F0E0E75C84
S1133E80FC4F958F8093520301C08081FF91EF9185
S1133E909F918F912F910F900FBE0F901F901895A7
S1133EA01F920F920FB60F9211242F933F934F93AB
S1133EB05F936F937F938F939F93AF93BF93EF938E
S1133EC0FF9389E393E00E94281EFF91EF91BF9135
S1133ED0AF919F918F917F916F915F914F913F919E
S1133EE02F910F900FBE0F901F90189589E393E0C8
S1133EF00E94DD1D21E0892B09F420E0822F089522
S1133F00E9E3F3E01382128288EE93E0A0E0B0E0EC
S1133F1084839583A683B78383EC91E09183808324
S1133F2085EC90E09587848784EC90E0978786877A
S1133F3080EC90E0918B808B81EC90E0938B828B72
S1133F4082EC90E0958B848B86EC90E0978B868B4B
S1133F50118E128E138E148E089508950E94C42219
S1133F600E94AD1F0E94CF10CAE1DEE10E945A0BED
S1133F702097E1F30E941A1EF9CFCF92DF92EF92BD
S1133F80FF920F931F93CF93DF936C017A018B0100
S1133F90C0E0D0E0CE15DF0581F0D8016D918D0130
S1133FA0D601ED91FC910190F081E02DC6010995B7
S1133FB0892B11F02196EECF7E01C701DF91CF91BD
S1133FC01F910F91FF90EF90DF90CF9008956115AE
S1133FD0710579F0FB0101900020E9F73197AF01F9
S1133FE0461B570BDC01ED91FC910280F381E02D1F
S1133FF0099480E090E00895EF92FF920F931F934D
S1134000CF93DF938C017B01C0E0D0E0F701EC0F8C
S1134010FD1F6491662361F0D801ED91FC9101903C
S1134020F081E02DC8010995892B11F02196EECF7E
S1134030CE01DF91CF911F910F91FF90EF900895E2
S1134040DC01ED91FC910190F081E02D099461ED8A
S113405071E00C94E71F0F931F93CF93DF93EC0150
S11340600E94FC1F8C01CE010E942720800F911F0B
S1134070DF91CF911F910F9108958F929F92AF92EC
S1134080BF92EF92FF920F931F93CF93DF93CDB71D
S1134090DEB7A1970FB6F894DEBF0FBECDBF7C018B
S11340A0FA01CB0119A2223008F42AE08E010F5D37
S11340B01F4F822E912CA12CB12CBF01A50194017C
S11340C00E94C223F901CA01015011096A3010F497
S11340D0605D01C0695CD8016C93232B242B252BD4
S11340E061F7B801C7010E94E71FA1960FB6F894C3
S11340F0DEBF0FBECDBFDF91CF911F910F91FF9017
S1134100EF90BF90AF909F908F9008952115310547
S113411041F4DC01ED91FC910190F081E02D642FDC
S113412009940C943D209A01462F50E060E070E021
S11341300C9486200F931F93CF93DF93EC010E947E
S113414093208C01CE010E942720800F911FDF91C4
S1134150CF911F910F9108959A01AB0160E070E037
S11341600C948620CF92DF92EF92FF920F931F93CD
S1134170CF93DF932115310581F4DC01ED91FC919E
S11341800190F081E02D642FDF91CF911F910F9169
S1134190FF90EF90DF90CF9009942A30310501F51C
S11341A077FF1DC06A017B01EC016DE20E942020B3
S11341B08C0144275527BA014C195D096E097F0902
S11341C02AE0CE010E943D20800F911FDF91CF9104
S11341D01F910F91FF90EF90DF90CF9008952AE008
S11341E0DF91CF911F910F91FF90EF90DF90CF90CF
S11341F00C943D209A01AB01770F660B770B0C945E
S1134200B2200F931F93CF93DF93EC010E94FA2007
S11342108C01CE010E942720800F911FDF91CF9146
S11342201F910F9108957F928F929F92AF92BF92A8
S1134230CF92DF92EF92FF920F931F93CF93DF936E
S11342408C016A017B01722E9A01AB01C701B60190
S11342500E94BD23882319F064ED71E027C0460154
S11342605701E894B7F82FEF3FEF4FE75FE7C50139
S1134270B4010E94BD2381110DC02FEF3FEF4FE722
S11342805FE7C501B4010E940C1C18161CF468ED0C
S113429071E00CC02FEF3FEF4FE75FE4C701B601B9
S11342A00E946B1D181694F46CED71E0C801DF9147
S11342B0CF911F910F91FF90EF90DF90CF90BF901F
S11342C0AF909F908F907F900C94E71F2FEF3FEF5C
S11342D04FE75FECC701B6010E940C1C87FDE4CFD9
S11342E020E030E0A901C701B6010E940C1C87FF41
S11342F00AC06DE2C8010E942020EC01F7FAF09494
S1134300F7F8F09402C0C0E0D0E0B12C60E070E0B7
S113431080E09FE37B1441F020E030E040E251E490
S11343200E94111CB394F6CFA70196010E94A01B12
S11343306B017C010E948A1C4B015C012AE0AB01E9
S1134340BC01C8010E943D20C80FD91F7720B9F1D4
S1134350C501B4010E94B91C9B01AC01C701B6019F
S11343600E949F1B6B017C016EE2C8010E94202009
S1134370C80FD91F20E030E040E251E4C701B60184
S11343800E94701D4B015C010E948A1C6B017C0120
S11343904AE050E0C8010E94AC20C80FD91FB60102
S11343A080E090E00E94B91C9B01AC01C501B401FE
S11343B00E949F1B6B017C017A947110DBCFCE01AC
S11343C0DF91CF911F910F91FF90EF90DF90CF90ED
S11343D0BF90AF909F908F907F9008950C9413217D
S11343E00F931F93CF93DF93EC010E9413218C0151
S11343F0CE010E942720800F911FDF91CF911F9142
S11344000F9108951F920F920FB60F9211242F93BC
S11344103F938F939F93AF93BF938091D7039091D2
S1134420D803A091D903B091DA033091D60323E0E5
S1134430230F2D3720F40196A11DB11D05C026E8D8
S1134440230F0296A11DB11D2093D6038093D70399
S11344509093D803A093D903B093DA038091DB033C
S11344609091DC03A091DD03B091DE030196A11DC0
S1134470B11D8093DB039093DC03A093DD03B09321
S1134480DE03BF91AF919F918F913F912F910F9038
S11344900FBE0F901F9018952FB7F8946091D70313
S11344A07091D8038091D9039091DA032FBF0895B6
S11344B03FB7F8948091DB039091DC03A091DD0376
S11344C0B091DE0326B5A89B05C02F3F19F00196D5
S11344D0A11DB11D3FBFBA2FA92F982F8827820F86
S11344E0911DA11DB11DBC01CD0142E0660F771FD6
S11344F0881F991F4A95D1F708958F929F92AF9282
S1134500BF92CF92DF92EF92FF926B017C010E94E7
S113451058224B015C01C114D104E104F10401F1FE
S11345200E94BC230E945822DC01CB0188199909FE
S1134530AA09BB09883E9340A105B10560F321E0B7
S1134540C21AD108E108F10888EE880E83E0981EAB
S1134550A11CB11CC114D104E104F10419F7DBCF8F
S1134560FF90EF90DF90CF90BF90AF909F908F908F
S113457008958230910538F0880F991F880F991F8C
S113458005970197F1F70895789484B5826084BD06
S113459084B5816084BD85B5826085BD85B5816043
S11345A085BDEEE6F0E0808181608083E1E8F0E0A3
S11345B01082808182608083808181608083E0E8D2
S11345C0F0E0808181608083E1EBF0E080818460B1
S11345D08083E0EBF0E0808181608083EAE7F0E0B3
S11345E08081846080838081826080838081816017
S11345F080838081806880831092C1000895833015
S113460081F028F4813099F08230A1F00895873048
S1134610A9F08830B9F08430D1F4809180008F7D86
S113462003C0809180008F7780938000089584B5C3
S11346308F7702C084B58F7D84BD08958091B000CA
S11346408F7703C08091B0008F7D8093B000089570
S1134650CF93DF9390E0FC01E057FA4F2491FC01E3
S1134660EC55FA4F8491882361F190E0880F991FEB
S1134670FC01E453FA4FC591D491FC01EE53FA4F77
S1134680A591B491611109C09FB7F89488812095D0
S113469082238883EC912E230BC0623061F49FB790
S11346A0F8948881322F309583238883EC912E2BC4
S11346B02C939FBF06C08FB7F894E8812E2B2883D4
S11346C08FBFDF91CF9108951F93CF93DF93282F4E
S11346D030E0F901E458FA4F8491F901E057FA4FB8
S11346E0D491F901EC55FA4FC491CC23C1F0162FA3
S11346F081110E94FF22EC2FF0E0EE0FFF1FEE531A
S1134700FA4FA591B4919FB7F894111104C08C91FC
S1134710D095D82302C0EC91DE2BDC939FBFDF91B0
S1134720CF911F910895CF93DF93282F30E0F901A3
S1134730E458FA4F8491F901E057FA4FD491F90102
S1134740EC55FA4FC491CC2391F081110E94FF22C1
S1134750EC2FF0E0EE0FFF1FE854FA4FA591B4914F
S1134760EC91ED2381E090E021F480E002C080E050
S113477090E0DF91CF91089508950E94F61C880B74
S1134780990B0895A1E21A2EAA1BBB1BFD010DC0B3
S1134790AA1FBB1FEE1FFF1FA217B307E407F507ED
S11347A020F0A21BB30BE40BF50B661F771F881FC9
S11347B0991F1A9469F760957095809590959B015F
S11347C0AC01BD01CF010895EE0FFF1F0590F491D8
S11347D0E02D0994F999FECF92BD81BDF89A9927ED
S11347E080B50895A6E1B0E044E050E00C941824AC
S11347F0262FF999FECF92BD81BDF89A019700B496
S1134800021639F01FBA20BD0FB6F894FA9AF99A35
S11348100FBE08950396272F0E94F9230E94F823C0
S1134820252F0E94F923242F0C94F923DC01CB01BA
S1134830FC01F999FECF06C0F2BDE1BDF89A3196AC
S113484000B40D9241505040B8F70895F894FFCF4A
S11348500000000000000000000000000000000054
S113486000000000000000000000009A99593F0079
S113487000803F0000000000000000000000000075
S113488000403E0000003E0000803D0000003D006E
S113489000803C0000003CA69B4439A69B443900A0
S11348A00000000000000000000000000000000004
S11348B000000000000000000000000000000000F4
S11348C000000000000000000000000000000000E4
S11348D000000000000000000000003C0100008017
S11348E03F0000803F0000803F000040001400545F
S11348F000000000006A16BD1FB915BC15000000B9
S113490000C31A961AB9155F1A341A3C1A501A00C1
S11349100000004A1EBD1F0B1E971EDD1DF71DE97A
S11349201D0D0A006E616E00696E66006F7666008A
S9030000FC
