S00C00006D61696E2E7372656373
S11300000C944B010C9473010C9473010C947301C4
S11300100C9473010C9473010C9473010C9473018C
S11300200C9473010C9473010C9473010C9473017C
S11300300C9473010C9473010C9473010C9473016C
S11300400C949B190C9473010C94F4160C942617BD
S11300500C9473010C9473010C9473010C9473014C
S11300600C94DD100C947301AF04120415041804ED
S1130070240427042A042D04300433041B041E041E
S1130080210436045D04840487048A0492049504DC
S11300909804A00454067106710673067306730669
S11300A07306730673067306730673069F06B70614
S11300B0CF06D106D406D606D806DA0627082A08BB
S11300C03A08580861086A0873087C0885083D08DE
S11300D046084F08490B7C0B950BE10BF40B070CFE
S11300E01A0C2D0C400CA80BBB0BCE0B2000453D6D
S11300F000563D00493D0025002B004D00500053A3
S113010065747570207265717569726564004F6FEE
S11301106F6F7073210042313D776F726B3B2042E9
S1130120323D73746F70004D6561737572656D65F2
S11301306E74004143004243004142004143004287
S1130140430041420065250049333D0049323D00EA
S113015049313D0041433D0042433D0041423D00A1
S113016045436F756E7400416D20414300416D201D
S1130170424300416D20414200566D2041430056E8
S11301806D20424300566D204142005233204143CA
S1130190005232204243005231204142005620672F
S11301A061696E206D6178562F737465700041200B
S11301B06761696E206D6178562F737465700043B2
S11301C06F6E6E656374696F6E2074797065002B51
S11301D0002B007800547269616E676C650053747B
S11301E0617200302E32353620302E3030373831BF
S11301F0323500302E35313220302E303135363222
S11302003500302E35313220302E30333132350046
S1130210312E30323420302E3036323500342E3008
S1130220393620302E31323500362E3134342030F8
S11302302E313837350000000008000201000003A9
S11302400407000000000000000001020408102060
S11302504080010204081020010204081020040454
S1130260040404040404020202020202030303035A
S11302700303000000002300260029000000000002
S1130280250028002B0000000000240027002A007D
S1130290B20C7113561711241FBECFEFD8E0DEBF86
S11302A0CDBF11E0A0E0B1E0E2E8F7E302C00590C1
S11302B00D92AC3EB107D9F724E0ACEEB1E001C039
S11302C01D92A030B207E1F711E0CBE4D1E004C005
S11302D02197FE010E947D1BC834D107C9F70E94F3
S11302E084170C94BF1B0C940000CF93DF93C3E2DC
S11302F0D2E0699179918991999120E030E0A90146
S11303000E94E2138823E1F020E030E0A9016F8924
S1130310788D898D9A8D0E94E213882389F020E0DC
S113032030E0A9016B857C858D859E850E94E21352
S1130330882331F082E0CF32D807D9F681E001C0BA
S113034080E010922F02882331F085E18093ED0143
S1130350DF91CF9108951092ED0162E771E08AE593
S113036093E0DF91CF910C9401182F923F924F921A
S11303705F926F927F928F929F92AF92BF92CF9231
S1130380DF92EF92FF920F931F93CF93DF93CDB73A
S1130390DEB7A1970FB6F894DEBF0FBECDBF1D86A2
S11303A01E861F86188A198A1A8A1B8A1C8A1D8A25
S11303B01E8A1F8A188E19821A821B821C821D8231
S11303C01E821F82188619861A861B861C861E01A9
S11303D08DE0280E311CDE011196BA8FA98F7D01A4
S11303E0610110E0612F81E992E00E945C0DBC0183
S11303F080E090E00E948F14F601619371938193E1
S113040091936F01612F8CE892E00E945C0DBC0116
S113041080E090E00E948F14D7016D937D938D93BB
S11304209D937D011F5F1330E9F6409018015090B1
S1130430190160901A0170901B0180911C01909128
S11304401D01A0911E01B0911F018E8F9F8FA8A343
S1130450B9A300E211E03D8E2C8E1B8EAC8DBD8DB8
S11304606D917D918D919D91BD8FAC8FA301920172
S11304700E9446154B015C01F101619371938193D4
S113048091931F01A98DBA8D2D913D914D915C9150
S11304906E8D7F8D88A199A10E9446156B017C0108
S11304A0E98DFA8D6193719381939193FA8FE98F1A
S11304B0A5019401D80194966D917D918D919C91A3
S11304C097970E947613F80164A375A386A397A354
S11304D0A701960160A971A982A993A90E94761324
S11304E0D801D0966D937D938D939C93D397BB8DB8
S11304F0BF5FBB8F0C5F1F4FB33009F0AFCFA19626
S11305000FB6F894DEBF0FBECDBFDF91CF911F9120
S11305100F91FF90EF90DF90CF90BF90AF909F909E
S11305208F907F906F905F904F903F902F900895A1
S1130530E4E4F1E011921192119211921086118665
S11305401286138681E0E035F807A1F781E08093F5
S11305505D010895CF92DF92EF92FF928091ED01B9
S11305609FEF980F9C3008F07DC091E09093EC01D0
S1130570813001F520E030E0A9016091FB01709128
S1130580FC018091FD019091FE010E94E2138823F9
S113059021F080E090E0DC0104C080E090E0A0E87D
S11305A0BFE38093FB019093FC01A093FD01B09302
S11305B0FE0172C08250823038F5C090FB01D090A9
S11305C0FC01E090FD01F090FE0120E030E040EA03
S11305D050E4C701B6010E94E213882349F020E0E9
S11305E030E040E85FE3C701B6010E94761303C020
S11305F060E070E0CB016093FB017093FC01809399
S1130600FD019093FE0148C02091FF01309100024A
S113061040910102509102026091FB017091FC0132
S11306208091FD019091FE010E9476136B017C0183
S113063020E030E04AE754E40E94411587FF09C0F6
S1130640C092FB01D092FC01E092FD01F092FE0108
S113065023C01092FB011092FC011092FD01109234
S1130660FE011AC093EF980F983040F4843111F0D2
S11306708F5F01C08DE08093ED010EC0853161F480
S11306808DE08093ED0181E080931D02FF90EF9057
S1130690DF90CF900C949802FF90EF90DF90CF9072
S11306A00895CF92DF92EF92FF9224E0829FC001DF
S11306B01124FC01ED5FFD4FC080D180E280F38006
S11306C020E030E04AE754E4C701B6010E94E21397
S11306D087FF24C020E030E0A901C701B6010E94D1
S11306E0411520E030E040E05FE387FD05C0C7012D
S11306F0B6010E94761304C0C701B6010E947513A7
S11307000E9459142AE030E0AB01BC018FEE91E065
S1130710FF90EF90DF90CF900C946F184AE050E078
S113072067EE73E08FEE91E00E94B71861ED71E01F
S11307308FEE91E0FF90EF90DF90CF900C94D21762
S113074024E0829FC0011124FC01E15FFD4F408140
S1130750518162817381483E83E0580761057105C8
S113076030F42AE030E08FEE91E00C945C184AE01B
S113077050E067EE73E08FEE91E00E94B7186FECE3
S113078071E08FEE91E00C94D21740E063E08FEEBD
S113079091E00E940A0E6DEF70E08FEE91E00E94EE
S11307A0D21741E060E08FEE91E00E940A0E6BEFF9
S11307B070E08FEE91E00C94D21740E064E08FEE8D
S11307C091E00E940A0E64EF70E08FEE91E00E94C7
S11307D0D21741E060E08FEE91E00E940A0E61EFD3
S11307E070E08FEE91E00E94D21741E068E08FEE56
S11307F091E00E940A0E6EEE70E08FEE91E00C9490
S1130800D2178FEE91E00E94FC0DE091ED018E2F46
S113081090E08631910508F0B4C0FC01EC5CFF4F18
S11308200C947D1B6FEB71E0A8C06EEA71E0A5C06B
S11308306DE971E0A2C067E971E09FC061E971E010
S11308409CC06BE871E099C065E871E096C06FE701
S113085071E093C069E771E090C063E771E08DC017
S11308606DE671E08AC067E671E087C060E671E01A
S11308708FEE91E00E94D21740E068E08FEE91E0A5
S11308800E940A0E6CE571E08FEE91E00E94D2178F
S113089041E060E08FEE91E00E940A0E68E571E0AD
S11308A08FEE91E00E94D21741E068E08FEE91E074
S11308B00E940A0E64E571E060C060E571E08FEEAD
S11308C091E00E94D21740E068E08FEE91E00E9430
S11308D00A0E6CE471E08FEE91E00E94D21741E0C1
S11308E060E08FEE91E00E940A0E68E471E08FEE02
S11308F091E00E94D21741E06EE08FEE91E00E94F9
S11309000A0E65E471E039C062E471E005C06FE38A
S113091071E002C06CE371E08FEE91E00E94D217A7
S11309200C94C50369E371E005C066E371E002C09D
S113093063E371E08FEE91E00E94D2170C94DD0323
S113094067E271E08FEE91E00E94D21741E060E02F
S11309508FEE91E00E940A0E66E171E00EC06EE037
S113096071E08FEE91E00E94D21741E060E08FEEDB
S113097091E00E940A0E6FEF70E08FEE91E00C940C
S1130980D21708950F931F93CF93DF93D82F162F69
S1130990042F462F682F8FEE91E00E940A0EC0E0CC
S11309A0C01741F06CEE70E08FEE91E00E94D21718
S11309B0CF5FF6CF412F6D2F8FEE91E0DF91CF9176
S11309C01F910F910C940A0E40E161E080E00E94B7
S11309D0C2046091FB017091FC018091FD01909132
S11309E0FE010E94591462307105B1F03CF46115A6
S11309F0710561F06130710561F00895643071052D
S1130A0089F06CF06530710581F0089569E272E057
S1130A100EC06DE172E00BC060E172E008C062E0FC
S1130A2072E005C063EF71E002C063EE71E08FEE27
S1130A3091E00C94D217CF92DF92EF92FF920F9332
S1130A401F93CF93DF93C82F49E060E086E00E94B4
S1130A50C204D0E08E010D5F1F4FF801EE0FFF1F9F
S1130A60EE0FFF1FE05EFE4F20E030E040E251E475
S1130A7060817181828193810E94E213269687FDB1
S1130A8015C0FE01EE0FFF1FEE0FFF1FE05EFE4FCD
S1130A9020E030E048EC52E46081718182819381EE
S1130AA00E94E21387FD04C025E003C029E001C0D1
S1130AB028E030E0CC0FDD1FCC0FDD1FC05EDE4F21
S1130AC0488159816A817B818FEE91E00E94991956
S1130AD049E061E085E00E94C204000F111F000F8D
S1130AE0111FF801E05EFE4FC080D180E280F380E8
S1130AF020E030E040E251E4C701B6010E94E21375
S1130B0087FD0CC020E030E048EC52E4C701B60198
S1130B100E94E21387FD04C025E003C029E001C060
S1130B2028E030E0B701A6018FEE91E0DF91CF918C
S1130B301F910F91FF90EF90DF90CF900C94991933
S1130B40CF92DF92EF92FF92CF93DF93C82F4AE0C8
S1130B5060E086E00E94C204D0E0FE01EE0FFF1FB9
S1130B60EE0FFF1FE45DFE4FC080D180E280F38072
S1130B7020E030E040E251E4C701B6010E94E213F4
S1130B8087FD0CC020E030E048EC52E4C701B60118
S1130B900E94E21387FD04C024E003C028E001C0E2
S1130BA027E030E0B701A6018FEE91E00E94991989
S1130BB048E061E082E00E94C204CC0FDD1FCC0F4C
S1130BC0DD1FFE01E05EFE4FC080D180E280F38035
S1130BD020E030E048EC52E4C701B6010E94E21381
S1130BE087FD0CC020E030E04AE754E4C701B601B9
S1130BF00E94E21387FF27C021E001C022E030E019
S1130C00B701A6018FEE91E00E94991945E061E0D9
S1130C108AE00E94C204CD5FDD4F488159816A8118
S1130C207B8121E030E08FEE91E00E94991967EF1B
S1130C3070E08FEE91E0DF91CF91FF90EF90DF9025
S1130C40CF900C94D2174AE050E067EE73E08FEE39
S1130C5091E00E94B71869EF70E08FEE91E00E9476
S1130C60D217D4CF8091ED019091EE01891739F01C
S1130C708093EE0181E08093EC010E940104809155
S1130C80EC01882309F499C01092EC01E091ED0184
S1130C908E2F90E0FC013197E431F10508F08DC00E
S1130CA0E65BFF4F0C947D1B48E061E080E00E940E
S1130CB0C20420E030E0A9016091FB017091FC01C5
S1130CC08091FD019091FE010E94E213811103C005
S1130CD06EED71E002C065ED71E08FEE91E00C9471
S1130CE0D2170C94E40448E060E087E00E94C20458
S1130CF063ED71E08FEE91E00E94D2174091FF0105
S1130D0050910002609101027091020223E030E0F0
S1130D108FEE91E00E94991940E161E080E00E9429
S1130D20C2044091FB015091FC016091FD0170915E
S1130D30FE0123E030E08FEE91E00C94991944E039
S1130D4060E08BE00E94C20480E00E94A00344E0C3
S1130D5061E083E00E94C20481E00E94A00344E0B9
S1130D6061E08BE00E94C20482E00C94A00345E0A1
S1130D7060E083E00E94C20480E00E94510345E0E9
S1130D8060E08BE00E94C20481E00E94510345E0D0
S1130D9061E083E00E94C20482E00C94510380E08D
S1130DA001C081E00C941B0582E0FCCF80E003C00D
S1130DB081E001C082E00C94A00508954F925F92F7
S1130DC06F927F92BF92CF92DF92EF92FF920F9336
S1130DD01F93CF93DF938BE692E00E94C70F8AE4C0
S1130DE092E00E94C70F0E94320680911D02882360
S1130DF009F45CC00E94B50180915D01C0905C0162
S1130E008C1520F48F5F80935D0150C081E0809346
S1130E10EC01C0E2D1E00DE112E0B12CD12CE12CC7
S1130E20F12CC701B6010E9491142B013C019B01D6
S1130E30AC016CA17DA18EA19FA10E94E713F801D2
S1130E40258936894789508D0E94461568837983A0
S1130E508A839B83A301920168A979A98AA99BA982
S1130E600E94E713F80121A132A143A154A10E94D9
S1130E7046156C877D878E879F87B39424960C5F75
S1130E801F4FF3E0BF12CDCF0E94980280911B0246
S1130E90882361F010921D028DE08093ED0161E0E2
S1130EA080E10E94FD1A81E080931C02DF91CF91C2
S1130EB01F910F91FF90EF90DF90CF90BF907F90A4
S1130EC06F905F904F9008958F929F92AF92BF92D0
S1130ED0CF92DF92EF92FF920F931F93CF93809163
S1130EE0ED018B3021F08C3021F4C2E003C0C1E06D
S1130EF001C0C0E06C2F81E992E00E945C0D8C017E
S1130F006C2F8CE892E00E945C0DBC0180E090E0C4
S1130F100E948F148090180190901901A0901A01DA
S1130F20B0901B0120911C0130911D0140911E01C4
S1130F3050911F010E9446156B017C0120E030E0B6
S1130F40A9010E94E213882371F0B80180E090E0C7
S1130F500E948F14A50194010E944615A7019601D1
S1130F600E94E71303C060E070E0CB01CF911F91B2
S1130F700F91FF90EF90DF90CF90BF90AF909F9034
S1130F808F900895CF92DF92EF92FF928091ED01BE
S1130F909CEF980F963040F5C090FF01D09000026E
S1130FA0E0900102F090020220E030E048EC52E4CC
S1130FB0C701B6010E94411587FF09C020E030E057
S1130FC040E251E4C701B6010E94461504C06FE631
S1130FD072E183E89AE36093FF01709300028093C7
S1130FE00102909302020EC096EF980F933070F4B2
S1130FF00E9464076093FB017093FC018093FD01E0
S11310009093FE0181E08093EC010BC093EF980F65
S1131010983010F485E103C0853119F48DE0809394
S1131020ED01FF90EF90DF90CF90089581E08093E1
S1131030EC01E091ED018E2F90E0FC013197EC3052
S1131040F10508F072C0E25AFF4F0C947D1B6091C9
S11310501E0202C06091300270E080E090E00E94C5
S11310608F146093FB017093FC018093FD019093B6
S1131070FE015BC060913102EFCF80912302909119
S11310802402A0912502B091260247C08091270234
S113109090912802A0912902B0912A023EC0809129
S11310A02B0290912C02A0912D02B0912E0235C0FA
S11310B08091320290913302A0913402B0913502B2
S11310C02CC08091360290913702A0913802B091E1
S11310D0390223C080913A0290913B02A0913C02D4
S11310E0B0913D021AC080913E0290913F02A091BE
S11310F04002B091410211C080914202909143029A
S1131100A0914402B091450208C08091460290919A
S11311104702A0914802B09149028093FB01909349
S1131120FC01A093FD01B093FE0180E090E0A0E8F3
S1131130BFE38093FF0190930002A0930102B09358
S113114002020895CF92DF92EF92FF92CF938091A3
S1131150ED0181110AC0C1E0C093EC01C093ED011F
S11311600E941608C0932F028EC09FEF980F9C30E8
S113117008F078C091E09093EC018130C1F420E054
S113118030E0A9016091FB017091FC018091FD01A7
S11311909091FE010E94E213882321F080E090E008
S11311A0DC0157C080E090E0A0E8BFE352C0825069
S11311B0823038F5C090FB01D090FC01E090FD0135
S11311C0F090FE0120E030E0A901C701B6010E94C1
S11311D0E213882349F020E030E040E85FE3C701F0
S11311E0B6010E94751304C060E070E080EA90E4E8
S11311F06093FB017093FC018093FD019093FE01C9
S113120042C02091FF0130910002409101025091AF
S113121002026091FB017091FC018091FD019091AB
S1131220FE010E9475136B017C0120E030E0A901EE
S11312300E94E21387FD09C0C092FB01D092FC0119
S1131240E092FD01F092FE011EC080EF9FEFA9E73E
S1131250B4E48093FB019093FC01A093FD01B0934F
S1131260FE0111C023EF280F283030F48D3009F42B
S113127094E19093ED0107C0853129F48DE08093CA
S1131280ED0110921D02CF91FF90EF90DF90CF906F
S11312900895623091F028F4662349F0613051F0EA
S11312A00895643081F060F0653081F0089560E065
S11312B070E00EC060E072E00BC060E074E008C053
S11312C060E076E005C060E078E002C060E07AE0CB
S11312D081E992E00C940D0DCF93DF93CDE1D2E040
S11312E06C8981E992E00E944909EC8984E0E89FD5
S11312F0F0011124E050FF4F20E030E04AE754E4CD
S113130060817181828193810E94E7136093180147
S11313107093190180931A0190931B01DF91CF916F
S11313200895CF93DF93CDE1D2E06B898CE892E00E
S11313300E944909EB8984E0E89FF0011124E05000
S1131340FF4F20E030E04AE754E4608171818281FC
S113135093810E94E71360931C0170931D01809395
S11313601E0190931F01DF91CF91089526E040E87C
S113137055E260E070E08AE593E00E948F1664E82D
S113138071E08AE593E00E94011860E070E081E971
S113139092E00E940D0D60E070E08CE892E00E9403
S11313A00D0D81E992E00E94090D8CE892E00E9403
S11313B0090D8FEE91E00E94AA0E8FEE91E00E943B
S11313C0B60D8FEE91E00E94FC0D6AEA72E08BE6A6
S11313D092E00E94E70E62EC77E08BE692E00E94D6
S11313E0EB0E6EE170E08BE692E00E94DB0E68EC9F
S11313F070E08BE692E00E94DF0E68EE73E08BE60D
S113140092E00E94E30E62EA78E08AE492E00E94AD
S1131410E70E6FE57CE08AE492E00E94EB0E6EE159
S113142070E08AE492E00E94DB0E68EC70E08AE4EB
S113143092E00E94DF0E68EE73E08AE492E00E947C
S1131440E30E87E290E00E94831B863609F453C0C2
S113145060E086E290E00E94911B60E085E290E00B
S11314600E94911B60E084E290E00E94911B40E0A6
S113147050E0BA0180E290E00E94A31B40E050E0FB
S1131480BA018CE190E00E94A31B40E050E0BA0155
S113149088E190E00E94A31B40E050E0BA0184E19F
S11314A090E00E94A31B40E050E0BA0180E190E08C
S11314B00E94A31B40E050E0BA018CE090E00E943F
S11314C0A31B40E050E0BA0188E090E00E94A31B17
S11314D040E050E0BA0184E090E00E94A31B40E0A9
S11314E050E0BA0180E090E00E94A31B66E687E228
S11314F090E00E94911B85E290E00E94831B809300
S1131500300284E290E00E94831B8093310286E2E1
S113151090E00E94831B91E0811101C090E09093C0
S11315201E0280E290E00E948B1B60932302709362
S1131530240280932502909326028CE190E00E947D
S11315408B1B609327027093280280932902909347
S11315502A0288E190E00E948B1B60932B02709317
S11315602C0280932D0290932E0284E190E00E943D
S11315708B1B6093320270933302809334029093F6
S1131580350280E190E00E948B1B609336027093D9
S1131590370280933802909339028CE090E00E94E5
S11315A08B1B60933A0270933B0280933C029093AE
S11315B03D0288E090E00E948B1B60933E02709392
S11315C03F02809340029093410284E090E00E94A5
S11315D08B1B609342027093430280934402909366
S11315E0450280E090E00E948B1B6093460270935A
S11315F0470280934802909349020E946C090E941A
S1131600910980911E02882329F080E090E0A0EAED
S1131610B0E404C080E090E0A0E2B0E480931F0254
S113162090932002A0932102B09322020E9475019C
S113163061E080E10E94C11A60E080E10E94FD1A2D
S11316408091ED018093EE010E94980266E971E0B9
S11316508AE593E00E94011861EA71E08AE593E06B
S11316600E9401180E9401040C943206CF92DF926A
S1131670EF92FF92CF93E091ED018E2F90E0FC0169
S11316803197EC30F10508F014C1E659FF4F0C9482
S11316907D1BC090FB01D090FC01E090FD01F09017
S11316A0FE01C1E020E030E0A901C701B6010E94BB
S11316B0E213811101C0C0E0C0931E0220E030E0BB
S11316C0A901C701B6010E94E213811105C080E09F
S11316D090E0A0E2B0E404C080E090E0A0EAB0E4CE
S11316E080931F0290932002A0932102B0932202C0
S11316F06C2F86E290E012C06091FB017091FC01B6
S11317008091FD019091FE010E946014609330026B
S11317100E9491096091300285E290E0CF91FF90A0
S1131720EF90DF90CF900C94911B6091FB0170912E
S1131730FC018091FD019091FE010E946014609370
S113174031020E946C096091310284E290E0E6CF9C
S11317504091FB015091FC016091FD017091FE01EB
S1131760409323025093240260932502709326022F
S113177080E290E097C04091FB015091FC016091A0
S1131780FD017091FE01409327025093280260935B
S1131790290270932A028CE190E084C04091FB01FD
S11317A05091FC016091FD017091FE0140932B0268
S11317B050932C0260932D0270932E0288E190E0E6
S11317C071C04091FB015091FC016091FD01709149
S11317D0FE014093320250933302609334027093BB
S11317E0350284E190E05EC04091FB015091FC0120
S11317F06091FD017091FE014093360250933702CF
S1131800609338027093390280E190E04BC04091BC
S1131810FB015091FC016091FD017091FE01409328
S11318203A0250933B0260933C0270933D028CE079
S113183090E038C04091FB015091FC016091FD01A2
S11318407091FE0140933E0250933F026093400228
S11318507093410288E090E025C04091FB015091D3
S1131860FC016091FD017091FE014093420250938E
S11318704302609344027093450284E090E012C0F6
S11318804091FB015091FC016091FD017091FE01BA
S11318904093460250934702609348027093490272
S11318A080E090E0CF91FF90EF90DF90CF900C9488
S11318B0A31BCF91FF90EF90DF90CF900895CF932B
S11318C080911C02882339F060E080E10E94FD1AB7
S11318D010921C0245C0C091ED01CC2309F440C014
S11318E0CD3001F510920F021092100210921102E5
S11318F01092120210921302109214021092150206
S113190010921602109217021092180210921902E5
S113191010921A020E949802C093ED0181E0809314
S1131920EC011EC080912F02882389F0CC3029F469
S11319300E94360BCF910C9475010E94360B809156
S1131940ED018F5F8093ED01CF910C9416081092F6
S11319501D02C1E0C093ED010E941608C0932F023E
S1131960CF91089568E481E992E00E94010D69E451
S11319708CE892E00E94010D21E040E050E06EE02E
S113198070E08BE692E00E94AC0E21E040E050E073
S11319906FE070E08AE492E00E94AC0EEDE1F2E0C8
S11319A01082118280E090E0A0E2B0E4828393830D
S11319B0A483B58316821782108611861286138635
S11319C01486158616861786108A118A138A148A35
S11319D08CE0EEE5F1E0A2E3B2E001900D928A958D
S11319E0E1F78CE0EEE5F1E0AEE3B2E001900D92B8
S11319F08A95E1F722E040E167E28FEE91E00C94F2
S1131A00930DFC0114821382608388E08183128227
S1131A10089584E093E00C94D812FC0174836383EA
S1131A2008951F93CF93DF93162FEA01682F84E064
S1131A3093E00E94EA12612F84E093E00E949912DD
S1131A406D2F84E093E00E9499126C2F84E093E060
S1131A500E94991284E093E0DF91CF911F910C943E
S1131A606E131F93CF93DF93182F682F84E093E0B6
S1131A700E94EA1260E084E093E00E94991284E0FC
S1131A8093E00E946E1342E0612F84E093E00E9491
S1131A906B1384E093E00E941212182F84E093E009
S1131AA00E941212D12F20E0C22F9E01282BC901BF
S1131AB0DF91CF911F910895CF93DF93643050F558
S1131AC0FC0143815481623051F0633059F061303C
S1131AD019F04368516408C04368516505C0436800
S1131AE0516602C043685167EC01506861E0888127
S1131AF00E94110D698170E080E090E00E94161A46
S1131B0088810E94310D0A8002C0969587950A94B7
S1131B10E2F702C080E090E0DF91CF91089580E089
S1131B2090E008950895FC011382128281EB91E004
S1131B3091838083648341872287138608951F934A
S1131B40CF93DF93EC01162F6C8184E093E00E9425
S1131B50EA126B85612B84E093E00E94991284E081
S1131B6093E0DF91CF911F910C946E1328E0FC0158
S1131B70238760E00C949F0D0F931F93CF938C01E8
S1131B80C62F64600E949F0D81E090E00E94521A6B
S1131B906C2F6B7FC8010E949F0D82E390E0CF9170
S1131BA01F910F910C94521A1F93CF93DF93EC0162
S1131BB0162F0E949F0D612FCE01DF91CF911F91AF
S1131BC00C94BC0D0F931F93CF93DF938C01C62FFE
S1131BD0D42F607F642B0E94D40D80E1C89FB00194
S1131BE011246D2BC801DF91CF911F910F910C949B
S1131BF0D40D40E00C94E20D61E00E94F90D80EDFB
S1131C0097E00C94521A62E00E94F90D80ED97E07F
S1131C100C94521ACF93DF93CDB7DEB728970FB643
S1131C20F894DEBF0FBECDBF9C0188E0EAE6F1E088
S1131C30DE01119601900D928A95E1F7F9018085F4
S1131C40841710F44FEF480FFE013196E40FF11D95
S1131C50E40FF11D9081690F6068C90128960FB6E1
S1131C60F894DEBF0FBECDBFDF91CF910C94F90D78
S1131C70FC016681262F246026836C600C94F90D88
S1131C8041E00E94E20D81E090E00895CF93DF935C
S1131C90EC01423018F08D8188608D8348872223BF
S1131CA029F0413019F48D8184608D8362E370E002
S1131CB080E090E00E94161A6B85CE010E949F0D71
S1131CC068EE73E080E090E00E94161A60E3CE01B3
S1131CD00E94D40D84E991E10E94521A60E3CE017E
S1131CE00E94D40D84E991E10E94521A60E3CE016E
S1131CF00E94D40D86E990E00E94521A60E2CE015F
S1131D000E94D40D6D816062CE010E94F90D84E0C1
S1131D108E83CE010E94380ECE010E94FC0D82E01B
S1131D208F8366E0CE010E94F90DCE01DF91CF9141
S1131D300C94030ECF93DF93EC0184E093E00E94B4
S1131D40D8121D8220E04A856985CE01DF91CF91AA
S1131D500C94460E0C949A0EFC01862FA2E3B0E07C
S1131D60B383A283A8E5B2E0B583A483A8EEB3E06D
S1131D70B783A68312861486138616861586108A60
S1131D801786128A118A148A138A168A158A108E63
S1131D90178A60837183452B19F01186108604C05D
S1131DA041E050E051874087222311F062E001C0F6
S1131DB060E00C94C11AFC01738362830895FC01F2
S1131DC0758364830895FC01778366830895FC0119
S1131DD0748763870895FC01728B618B0895CF9299
S1131DE0DF92EF92FF921F93CF93DF93EC01162FB4
S1131DF00E94E5196B017C018F89988D009731F45D
S1131E00112309F4BCC081E090E078C081309105D1
S1131E10D9F5898D9A8DAB8DBC8DB701A601481B70
S1131E20590B6A0B7B0B11110FC08A819B81A0E0B7
S1131E30B0E0481759076A077B0718F4188E1F8A01
S1131E409EC082E090E01DC08E819F81A0E0B0E042
S1131E5084179507A607B70708F091C081E08A8721
S1131E60EF85F889309709F00995E989FA8930975F
S1131E7009F00995ED89FE89309709F0099586E006
S1131E8090E0988F8F8B68C082309105F1F58D8535
S1131E909E85892B99F0898D9A8DAB8DBC8DB70168
S1131EA0A601481B590B6A0B7B0B8C819D81A0E01A
S1131EB0B0E084179507A607B70738F4EB85FC85CF
S1131EC0309709F4BBCF0995B9CF112309F457C052
S1131ED08D8D9E8DAF8DB8A1B701A601481B590BFE
S1131EE06A0B7B0B8A819B81A0E0B0E08417950785
S1131EF0A607B70708F043C083E090E0988F8F8B64
S1131F00C98EDA8EEB8EFC8E3AC083309105C1F413
S1131F10111135C0898D9A8DAB8DBC8DB701A60189
S1131F20481B590B6A0B7B0B8A819B81A0E0B0E0B4
S1131F3084179507A607B70710F5ED85FE8507C03A
S1131F400697E9F411110DC01A86EB89FC893097C4
S1131F5009F00995188E1F8ACD8EDE8EEF8EF8A2B9
S1131F600EC081E08A87ED89FE89309741F0DF91C8
S1131F70CF911F91FF90EF90DF90CF900994DF9164
S1131F80CF911F91FF90EF90DF90CF900895CF9362
S1131F90DF93EC018881998197FD0EC00E942C1B70
S1131FA061E0288539852817390709F060E0CE01FA
S1131FB0DF91CF910C94EF0EDF91CF9108951092A1
S1131FC0030381E0809301031092000361E082E146
S1131FD00E94FD1A61E083E10E94FD1AE9EBF0E042
S1131FE080818E7F808380818D7F808388E480934D
S1131FF0B80085E48093BC000895413208F043C0E2
S1132000909103039111FCCF91E0909303032093EB
S113201001032FEF209396021092DB02240F2093EA
S1132020DA029093020390910203880F892B809324
S1132030020380910003813061F4109200038091C7
S113204002038093BB008091BC0083FDF8CF85EC34
S113205001C085EE8093BC00809103038130E1F3DD
S11320608091DB02841710F44091DB02ACEDB2E006
S1132070962FFB018E2F891B841718F48D91819361
S1132080F9CF842F089580E008950F93413208F02A
S11320904AC0909103039111FCCF32E030930303C3
S11320A0009301033FEF309396021092DB024093BA
S11320B0DA02562FACEDB2E0FB013E2F351B34178C
S11320C018F431913D93F9CF109202033091020339
S11320D0880F832B8093020380910003813061F485
S11320E010920003809102038093BB008091BC0096
S11320F083FDF8CF85EC01C085EE8093BC002223DC
S113210021F0809103038230D1F3809196028F3FB6
S113211079F080919602803241F08091960280336A
S113212031F094E005C091E003C092E001C093E077
S1132130892F0F9108954091B802262F30E0240F83
S1132140311D21323105DCF4209103032430C9F41C
S1132150FC0180E090E0861758F43091B802219198
S1132160DC01A654BD4FA30FB11D2C930196F3CFF0
S11321708091B802680F6093B80280E0089581E00E
S1132180089582E008959093FD028093FC020895DF
S11321909093FF028093FE02089585ED8093BC0026
S11321A08091BC0084FDFCCF10920303089585EC5C
S11321B08093BC001092030308951F920F920FB6F0
S11321C00F9211242F933F934F935F936F937F93B9
S11321D08F939F93AF93BF93EF93FF938091B90035
S11321E0887F803609F49EC078F5883209F45DC092
S11321F090F4803109F456C038F4882309F4F5C00A
S1132200883009F44FC0F5C0883109F44EC08032DB
S113221009F45FC0EEC0803409F46AC058F4803316
S113222009F457C0883309F0E4C0809396020E94F1
S1132230D710DFC0803509F44FC0883509F45DC07C
S1132240883409F0D6C0D3C0883909F4C4C0A8F4CE
S1132250883709F467C038F4883609F463C08037D6
S113226009F460C0C6C0883809F4B5C0803909F4DF
S11322705FC0803809F0BDC05BC0803B09F483C0F7
S113228038F4803A09F466C0883A09F47CC0B1C0D5
S1132290803C09F4A4C0883C09F4A1C0883B09F43B
S11322A087C0A7C08091020310C09091DB02809187
S11322B0DA02981770F5E091DB0281E08E0F8093CB
S11322C0DB02F0E0E452FD4F80818093BB0085EC9B
S11322D083C0809396028BC0E091DB0281E08E0F75
S11322E08093DB028091BB00F0E0E452FD4F8083D9
S11322F09091DB028091DA026BC0E091DB0281E015
S11323008E0F8093DB028091BB00F0E0E452FD4F1E
S113231080838091010381116AC081E0809300036E
S113232084EA5EC083E08093030310929702CFCFC8
S113233080919702803208F04EC0E091970281E0CC
S11323408E0F809397028091BB00F0E0E856FD4F1A
S11323508083BDCF0E94D71080919702803230F4E1
S1132360E0919702F0E0E856FD4F108260919702E9
S113237070E0E091FC02F091FD0288E992E0099599
S11323801092970236C084E0809303031092B9023E
S11323901092B802E091FE02F091FF02099580913B
S11323A0B802811105C081E08093B8021092BA028C
S11323B0E091B90281E08E0F8093B902F0E0E65417
S11323C0FD4F80818093BB009091B9028091B80247
S11323D0981708F47CCF85E88093BC000AC085EC8C
S11323E08093BC001092030304C0109296020E94D2
S11323F0CD10FF91EF91BF91AF919F918F917F91FC
S11324006F915F914F913F912F910F900FBE0F905D
S11324101F9018958091380390E020913903821B16
S1132420910908959091390380913803981750F4D5
S1132430E92FF0E0E65CFC4F208130E09F5F909351
S1132440390302C02FEF3FEFC9010895E09139032A
S113245080913803E81730F4F0E0E65CFC4F8081AB
S113246090E008958FEF9FEF08950895CF93DF9341
S1132470EC01E0911003F09111033097F1F0909189
S11324803903809138039817C0F090E0292F30E089
S11324902617370754F4DE01A20FB31F4C91D9015C
S11324A0A65CBC4F4C939F5FF1CF109239036093AD
S11324B03803CB01DF91CF910994DF91CF91089537
S11324C0E0911203F0911303309729F01092160350
S11324D01092150309940895CF92DF92EF92FF9220
S11324E00F931F93CF93DF937C01CB018A0120913B
S11324F01403222389F0EB016B01C40ED51ECC1505
S1132500DD0569F06991D701ED91FC910190F081AD
S1132510E02DC7010995F3CF642F0E949B10C801D9
S1132520DF91CF911F910F91FF90EF90DF90CF90AB
S11325300895CF93DF931F92CDB7DEB769832091BF
S113254014032223D1F020911503203240F021E01E
S113255030E0FC013383228380E090E015C0809159
S11325601603E82FF0E0E95EFC4F998190838F5FBA
S1132570809316038093150305C061E0CE01019694
S11325800E949B1081E090E00F90DF91CF9108951D
S1132590FC011382128288EE93E0A0E0B0E0848311
S11325A09583A683B7838DEB91E09183808308950F
S11325B010923903109238031092160310921503E7
S11325C00E94DF0F80E692E10E94C81086E392E148
S11325D00C94C31081E0809314036093370310922A
S11325E016031092150308950F93062F21E04091CE
S11325F0150367E173E0809137030E944510109240
S1132600160310921503109214030F9108954F921C
S11326105F926F927F92AF92BF92CF92EF92FF92AE
S11326200F931F93CF93DF935C01F62ED42F2801D1
S11326303901EE2021F10E94EA12CE2DC43008F0B7
S1132640C3E0C150C0F028E0C29FC0011124A3011F
S1132650920104C056954795379527958A95D2F7E8
S1132660CA01B901D501ED91FC910190F081E02DF1
S1132670C5010995E6CF60E0C5010E94F4124D2F13
S1132680D13208F040E22C2D6AE373E08F2D0E94D2
S1132690FD0F1092390380933803DF91CF911F917E
S11326A00F91FF90EF90CF90BF90AF907F906F907D
S11326B05F904F900895CF92EF920F931F93C22E85
S11326C0E12C00E010E098010E9407131F910F9184
S11326D0EF90CF90089521E00C945B1361E00C948B
S11326E0F41284E093E00C94C8125058BB27AA2734
S11326F00E948D130C9407150E94F91438F00E945F
S1132700001520F039F49F3F19F426F40C94F614C4
S11327100EF4E095E7FB0C94F014E92F0E941815D1
S113272058F3BA17620773078407950720F079F402
S1132730A6F50C943A150EF4E0950B2EBA2FA02DA5
S11327400B01B90190010C01CA01A0011124FF275A
S1132750591B99F0593F50F4503E68F11A16F04055
S1132760A22F232F342F4427585FF3CF4695379554
S11327702795A795F0405395C9F77EF41F16BA0B19
S1132780620B730B840BBAF09150A1F0FF0FBB1FC7
S1132790661F771F881FC2F70EC0BA0F621F731F10
S11327A0841F48F4879577956795B795F7959E3F6D
S11327B008F0B0CF9395880F08F09927EE0F9795FE
S11327C0879508950E94CC1408F481E008950E942E
S11327D0FB130C9407150E94001558F00E94F9147D
S11327E040F029F45F3F29F00C94F01451110C943B
S11327F03B150C94F6140E94181568F39923B1F351
S1132800552391F3951B550BBB27AA276217730712
S1132810840738F09F5F5F4F220F331F441FAA1FA6
S1132820A9F335D00E2E3AF0E0E832D09150504062
S1132830E695001CCAF72BD0FE2F29D0660F771F10
S1132840881FBB1F261737074807AB07B0E809F0F6
S1132850BB0B802DBF01FF2793585F4F3AF09E3F7B
S1132860510578F00C94F0140C943B155F3FE4F39D
S1132870983ED4F3869577956795B795F7959F5FBE
S1132880C9F7880F911D9695879597F90895E1E00A
S1132890660F771F881FBB1F621773078407BA0769
S11328A020F0621B730B840BBA0BEE1F88F7E095C4
S11328B008950E9460146894B1110C943B15089516
S11328C00E94201588F09F5798F0B92F9927B75187
S11328D0B0F0E1F0660F771F881F991F1AF0BA95C0
S11328E0C9F714C0B13091F00E943A15B1E00895CF
S11328F00C943A15672F782F8827B85F39F0B93FC1
S1132900CCF3869577956795B395D9F73EF4909572
S11329108095709561957F4F8F4F9F4F0895E894F0
S113292009C097FB3EF490958095709561957F4F13
S11329308F4F9F4F9923A9F0F92F96E9BB279395C1
S1132940F695879577956795B795F111F8CFFAF4D1
S1132950BB0F11F460FF1BC06F5F7F4F8F4F9F4F02
S113296016C0882311F096E911C0772321F09EE860
S1132970872F762F05C0662371F096E8862F70E0C6
S113298060E02AF09A95660F771F881FDAF7880FA0
S11329909695879597F90895990F0008550FAA0BF6
S11329A0E0E8FEEF16161706E807F907C0F012165E
S11329B01306E407F50798F0621B730B840B950B61
S11329C039F40A2661F0232B242B252B21F40895B6
S11329D00A2609F4A140A6958FEF811D811D089553
S11329E097F99F6780E870E060E008959FEF80ECBE
S11329F0089500240A941616170618060906089561
S1132A0000240A9412161306140605060895092EC6
S1132A100394000C11F4882352F0BB0F40F4BF2B35
S1132A2011F460FF04C06F5F7F4F8F4F9F4F089575
S1132A3057FD9058440F551F59F05F3F71F047956B
S1132A40880F97FB991F61F09F3F79F08795089550
S1132A50121613061406551FF2CF4695F1DF08C06F
S1132A60161617061806991FF1CF8695710561058C
S1132A7008940895E894BB2766277727CB0197F934
S1132A8008950E94CC1408F48FEF08950E945915FC
S1132A900C9407150E94F91438F00E94001520F0D8
S1132AA0952311F00C94F0140C94F61411240C9446
S1132AB03B150E94181570F3959FC1F3950F50E0D4
S1132AC0551F629FF001729FBB27F00DB11D639FDC
S1132AD0AA27F00DB11DAA1F649F6627B00DA11D82
S1132AE0661F829F2227B00DA11D621F739FB00D28
S1132AF0A11D621F839FA00D611D221F749F332798
S1132B00A00D611D231F849F600D211D822F762F30
S1132B106A2F11249F5750409AF0F1F088234AF00D
S1132B20EE0FFF1FBB1F661F771F881F9150504079
S1132B30A9F79E3F510580F00C94F0140C943B15BA
S1132B405F3FE4F3983ED4F3869577956795B79500
S1132B50F795E7959F5FC1F7FE2B880F911D96951A
S1132B60879597F90895FC01918D228D892F90E026
S1132B70805C9F4F821B91098F7399270895FC01F4
S1132B80918D828D981731F0828DE80FF11D858D1E
S1132B9090E008958FEF9FEF0895FC01918D828D51
S1132BA0981761F0828DDF01A80FB11D5D968C919D
S1132BB0928D9F5F9F73928F90E008958FEF9FEFA8
S1132BC00895FC01538D448D252F30E0842F90E02F
S1132BD0821B930B541710F0CF9608950197089514
S1132BE08CE497E1892B49F080E090E0892B29F06F
S1132BF00E944C1781110C9400000895FC01848DEF
S1132C00DF01A80FB11DA35ABF4F2C91848D90E012
S1132C1001968F739927848FA689B7892C93A089ED
S1132C20B1898C91837080648C93938D848D981377
S1132C3006C00288F389E02D80818F7D808308950A
S1132C40EF92FF920F931F93CF93DF93EC0181E0F8
S1132C50888F9B8D8C8D981305C0E889F9898081B4
S1132C6085FD26C0F62E0B8D10E00F5F1F4F0F73EE
S1132C701127E02E8C8DE8120CC00FB607FCFACF9A
S1132C80E889F989808185FFF5CFCE010E94FE1580
S1132C90F1CF8B8DFE01E80FF11DE35AFF4FF08257
S1132CA09FB7F8940B8FEA89FB89808180620AC000
S1132CB09FB7F894EE89FF896083E889F989808158
S1132CC08370806480839FBF81E090E0DF91CF9127
S1132CD01F910F91FF90EF900895CF93DF93EC0134
S1132CE0888D8823C9F0EA89FB89808185FD05C028
S1132CF0A889B9898C9186FD0FC00FB607FCF5CF62
S1132D00808185FFF2CFA889B9898C9185FFEDCFA9
S1132D10CE010E94FE15E7CFDF91CF910895CF92A7
S1132D20DF92EF92FF921F93CF93DF93EC016A013E
S1132D307B01122FE889F98982E080834115514E85
S1132D4061057105B1F060E079E08DE390E0A701E1
S1132D5096010E945B1BDA01C9010197A109B1091F
S1132D60B695A795979587959C01211580E138071D
S1132D70A8F0E889F989108260E874E88EE190E0AF
S1132D80A70196010E945B1BDA01C9010197A10901
S1132D90B109B695A795979587959C01EC85FD8516
S1132DA03083EE85FF852083188EEC89FD8910839E
S1132DB0EA89FB89808180618083EA89FB8980813B
S1132DC088608083EA89FB89808180688083EA89BE
S1132DD0FB8980818F7D8083DF91CF911F91FF904C
S1132DE0EF90DF90CF9008951F920F920FB60F923D
S1132DF011242F938F939F93EF93FF93E0916A0392
S1132E00F0916B038081E0917003F091710382FD76
S1132E1012C09081809173038F5F8F73209174032C
S1132E20821751F0E0917303F0E0E65AFC4F958F5E
S1132E308093730301C08081FF91EF919F918F91E3
S1132E402F910F900FBE0F901F9018951F920F9205
S1132E500FB60F9211242F933F934F935F936F9369
S1132E607F938F939F93AF93BF93EF93FF938AE5E1
S1132E7093E00E94FE15FF91EF91BF91AF919F9156
S1132E808F917F916F915F914F913F912F910F900F
S1132E900FBE0F901F9018958AE593E00E94B3151A
S1132EA021E0892B09F420E0822F0895EAE5F3E07C
S1132EB01382128288EE93E0A0E0B0E084839583CD
S1132EC0A683B7838FEC91E09183808385EC90E0B7
S1132ED09587848784EC90E09787868780EC90E0E0
S1132EE0918B808B81EC90E0938B828B82EC90E0D1
S1132EF0958B848B86EC90E0978B868B118E128E4B
S1132F00138E148E089508950E945D1A0E948317EB
S1132F100E94B609C0EFD5E10E94DE062097E1F3D6
S1132F200E94F015F9CFCF92DF92EF92FF920F93A8
S1132F301F93CF93DF936C017A018B01C0E0D0E043
S1132F40CE15DF0581F0D8016D918D01D601ED918B
S1132F50FC910190F081E02DC6010995892B11F0B7
S1132F602196EECF7E01C701DF91CF911F910F9182
S1132F70FF90EF90DF90CF9008956115710579F07F
S1132F80FB0101900020E9F73197AF01461B570B75
S1132F90DC01ED91FC910280F381E02D099480E045
S1132FA090E00895EF92FF920F931F93CF93DF93D6
S1132FB08C017B01C0E0D0E0F701EC0FFD1F6491B0
S1132FC0662361F0D801ED91FC910190F081E02D30
S1132FD0C8010995892B11F02196EECFCE01DF911E
S1132FE0CF911F910F91FF90EF900895DC01ED9127
S1132FF0FC910190F081E02D09946DED71E00C9449
S1133000BD170F931F93CF93DF93EC010E94BD175D
S11330108C01CE010E94FD17800F911FDF91CF918B
S11330201F910F9108958F929F92AF92BF92EF924A
S1133030FF920F931F93CF93DF93CDB7DEB7A19782
S11330400FB6F894DEBF0FBECDBF7C01FA01CB01F1
S113305019A2223008F42AE08E010F5D1F4F822E40
S1133060912CA12CB12CBF01A50194010E945B1BE2
S1133070F901CA01015011096A3010F4605D01C000
S1133080695CD8016C93232B242B252B61F7B801A1
S1133090C7010E94BD17A1960FB6F894DEBF0FBEFC
S11330A0CDBFDF91CF911F910F91FF90EF90BF9013
S11330B0AF909F908F9008952115310541F4DC0164
S11330C0ED91FC910190F081E02D642F09940C9412
S11330D013189A01AB0160E070E00C945C18CF9275
S11330E0DF92EF92FF920F931F93CF93DF932115FB
S11330F0310581F4DC01ED91FC910190F081E02D2A
S1133100642FDF91CF911F910F91FF90EF90DF908B
S1133110CF9009942A30310501F577FF1DC06A016B
S11331207B01EC016DE20E94F6178C0144275527C0
S1133130BA014C195D096E097F092AE0CE010E948B
S11331401318800F911FDF91CF911F910F91FF9062
S1133150EF90DF90CF9008952AE0DF91CF911F91F7
S11331600F91FF90EF90DF90CF900C9413189A0179
S1133170AB01770F660B770B0C946F187F928F92CD
S11331809F92AF92BF92CF92DF92EF92FF920F93F2
S11331901F93CF93DF938C016A017B01722E9A01F6
S11331A0AB01C701B6010E94561B882319F060EEDB
S11331B071E027C046015701E894B7F82FEF3FEFBD
S11331C04FE75FE7C501B4010E94561B81110DC092
S11331D02FEF3FEF4FE75FE7C501B4010E94E21311
S11331E018161CF464EE71E00CC02FEF3FEF4FE7AC
S11331F05FE4C701B6010E944115181694F468EE05
S113320071E0C801DF91CF911F910F91FF90EF9072
S1133210DF90CF90BF90AF909F908F907F900C9451
S1133220BD172FEF3FEF4FE75FECC701B6010E94D8
S1133230E21387FDE4CF20E030E0A901C701B60125
S11332400E94E21387FF0AC06DE2C8010E94F617CC
S1133250EC01F7FAF094F7F8F09402C0C0E0D0E083
S1133260B12C60E070E080E09FE37B1441F020E04B
S113327030E040E251E40E94E713B394F6CFA70193
S113328096010E9476136B017C010E9460144B012D
S11332905C012AE0AB01BC01C8010E941318C80FED
S11332A0D91F7720B9F1C501B4010E948F149B0185
S11332B0AC01C701B6010E9475136B017C016EE27B
S11332C0C8010E94F617C80FD91F20E030E040E281
S11332D051E4C701B6010E9446154B015C010E94EE
S11332E060146B017C014AE050E0C8010E94691837
S11332F0C80FD91FB60180E090E00E948F149B0193
S1133300AC01C501B4010E9475136B017C017A9470
S11333107110DBCFCE01DF91CF911F910F91FF9000
S1133320EF90DF90CF90BF90AF909F908F907F9061
S113333008950C94BE181F920F920FB60F92112489
S11333402F933F938F939F93AF93BF938091F803F1
S11333509091F903A091FA03B091FB033091F70324
S113336023E0230F2D3720F40196A11DB11D05C0C4
S113337026E8230F0296A11DB11D2093F703809325
S1133380F8039093F903A093FA03B093FB0380919D
S1133390FC039091FD03A091FE03B091FF030196FD
S11333A0A11DB11D8093FC039093FD03A093FE0324
S11333B0B093FF03BF91AF919F918F913F912F9154
S11333C00F900FBE0F901F9018952FB7F89460912F
S11333D0F8037091F9038091FA039091FB032FBFD6
S11333E008953FB7F8948091FC039091FD03A09158
S11333F0FE03B091FF0326B5A89B05C02F3F19F02B
S11334000196A11DB11D3FBFBA2FA92F982F882760
S1133410820F911DA11DB11DBC01CD0142E0660FBB
S1133420771F881F991F4A95D1F708958F929F920D
S1133430AF92BF92CF92DF92EF92FF926B017C0129
S11334400E94F1194B015C01C114D104E104F1049F
S113345001F10E94551B0E94F119DC01CB0188196E
S11334609909AA09BB09883E9340A105B10560F3F7
S113347021E0C21AD108E108F10888EE880E83E041
S1133480981EA11CB11CC114D104E104F10419F764
S1133490DBCFFF90EF90DF90CF90BF90AF909F90E5
S11334A08F9008958230910538F0880F991F880F06
S11334B0991F05970197F1F70895789484B5826070
S11334C084BD84B5816084BD85B5826085BD85B5C4
S11334D0816085BDEEE6F0E0808181608083E1E873
S11334E0F0E01082808182608083808181608083AB
S11334F0E0E8F0E0808181608083E1EBF0E08081AE
S113350084608083E0EBF0E0808181608083EAE77F
S1133510F0E0808184608083808182608083808108
S1133520816080838081806880831092C1000895C7
S1133530833081F028F4813099F08230A1F008952D
S11335408730A9F08830B9F08430D1F480918000BC
S11335508F7D03C0809180008F77809380000895D1
S113356084B58F7702C084B58F7D84BD0895809122
S1133570B0008F7703C08091B0008F7D8093B0003E
S11335800895CF93DF9390E0FC01E65BFD4F249117
S1133590FC01E25AFD4F8491882361F190E0880F89
S11335A0991FFC01EA57FD4FC591D491FC01E458E1
S11335B0FD4FA591B491611109C09FB7F89488811A
S11335C0209582238883EC912E230BC0623061F412
S11335D09FB7F8948881322F309583238883EC91A8
S11335E02E2B2C939FBF06C08FB7F894E8812E2B07
S11335F028838FBFDF91CF9108951F93CF93DF93DB
S1133600282F30E0F901EA5CFD4F8491F901E65B73
S1133610FD4FD491F901E25AFD4FC491CC23C1F07E
S1133620162F81110E94981AEC2FF0E0EE0FFF1F65
S1133630E458FD4FA591B4919FB7F894111104C0BB
S11336408C91D095D82302C0EC91DE2BDC939FBFE4
S1133650DF91CF911F910895CF93DF93282F30E00E
S1133660F901EA5CFD4F8491F901E65BFD4FD491C9
S1133670F901E25AFD4FC491CC2391F081110E94CB
S1133680981AEC2FF0E0EE0FFF1FEE58FD4FA591B6
S1133690B491EC91ED2381E090E021F480E002C04C
S11336A080E090E0DF91CF91089508950E94CC14BA
S11336B0880B990B0895A1E21A2EAA1BBB1BFD01CE
S11336C00DC0AA1FBB1FEE1FFF1FA217B307E407FD
S11336D0F50720F0A21BB30BE40BF50B661F771F55
S11336E0881F991F1A9469F7609570958095909535
S11336F09B01AC01BD01CF010895EE0FFF1F0590A2
S1133700F491E02D0994F999FECF92BD81BDF89A08
S1133710992780B50895A6E1B0E044E050E00C9408
S1133720B11B262FF999FECF92BD81BDF89A01975E
S113373000B4021639F01FBA20BD0FB6F894FA9AF5
S1133740F99A0FBE08950396272F0E94921B0E9498
S1133750911B252F0E94921B242F0C94921BDC0199
S1133760CB01FC01F999FECF06C0F2BDE1BDF89A88
S1133770319600B40D9241505040B8F70895F89432
S1053780FFCF75
S11337820000403E0000003E0000803D0000003D7D
S11337920000803C0000003CA69B4439A69B4439AF
S11337A20000000000000000000000000000000013
S11337B20000000000000000000000000000000003
S11337C200000000000000000000000000000000F3
S11337D200000000000000000000000032010000B0
S11337E2803F0000803F0000803F00004000140042
S11337F254004E656564207365747570207061723F
S1133802616D7300496E697469616C697A61746986
S11338126F6E2E2E2E00436F6D706C65746564217D
S1133822005374616E642062792E2E2E0000000013
S113383200400E93178F0D920D0000000099126C38
S1133842128F0D35120A12121226120000000020E5
S1133852169317E1156D16B315CD15BF150D0A0094
S10F38626E616E00696E66006F76660091
S9030000FC
