S00C00006D61696E2E7372656373
S11300000C94FC000C9424010C9424010C94240101
S11300100C9424010C9424010C9424010C942401C8
S11300200C9424010C9424010C9424010C942401B8
S11300300C9424010C9424010C9424010C942401A8
S11300400C9410170C9424010C9424010C94240196
S11300500C9424010C9424010C9424010C94240188
S11300600C9438100C9424013A06B105B405B70574
S1130070BA05BD05C005C305C605C905CC05CF0530
S1130080F6051D06200623062B063C0759075907CB
S11300905907590759075907590759075907850730
S11300A09D07B507B707B9070C0A1C0A250A2E0ACB
S11300B0370A400A490A520A5B0A640A190B490BB7
S11300C0560B630B700B7D0B8A0B970BA40BB10BB8
S11300D02000413D00563D00523D002B002B0025E1
S11300E0005365747570207265717569726564007A
S11300F04F6F6F6F7073210042313D776F726B3BAE
S11301002042323D73746F70004D65617375726582
S11301106D656E7400414300424300414200652511
S11301200052333D0052323D0052313D0041433DC7
S11301300042433D0041423D004543726974200042
S1130140416D20414300416D20424300416D2041F7
S11301504200566D20414300566D20424300566DC7
S11301602041420052332041430052322042430096
S1130170523120414200436F6E6E656374696F6E45
S11301802074797065002B002B007800547269612B
S11301906E676C6500537461720000000008000211
S11301A00100000304070000000000000000010239
S11301B004081020408001020408102001020408F1
S11301C010200404040404040404020202020202CF
S11301D00303030303030000000023002600290097
S11301E000000000250028002B000000000024006F
S11301F027002A002D0CCC1211241FBECFEFD8E00B
S1130200DEBFCDBF11E0A0E0B1E0ECE6F2E302C056
S113021005900D92A439B107D9F723E0A4E9B1E020
S113022001C01D92A531B207E1F710E0CCEFD0E098
S113023004C02197FE010E94F218CA3FD107C9F7F2
S11302400E940F150C9434190C940000CF92DF9285
S1130250EF92FF92809195019FEF980F9A3058F595
S1130260C090A701D090A801E090A901F090AA0144
S113027020E030E048EC52E4C701B6010E949C142F
S113028087FF09C020E030E040E251E4C701B60135
S11302900E94A11404C06FE672E183E89AE36093BC
S11302A0A7017093A8018093A9019093AA0181E00A
S11302B0809394010BC095EF980F953010F480E172
S11302C003C0803119F48BE080939501FF90EF9087
S11302D0DF90CF900895CF92DF92EF92FF92CF9369
S11302E0DF93C090C701D090C801E090C901F0909D
S11302F0CA01CCECD1E0699179918991999120E07E
S113030030E048EC52E40E944213A70196010E9497
S1130310A1146C8B7D8B8E8B9F8B81E0C83DD8079D
S113032051F7DF91CF91FF90EF90DF90CF90089538
S11303300F931F93CF93DF93CCECD1E008E111E04E
S1130340699179918991999120E030E0A9010E9405
S11303503D13882399F0F8016191719181919191F4
S11303608F0120E030E0A9010E943D13882331F081
S1130370F1E0C83DDF0721F781E001C080E0109281
S1130380CB01882321F080E18093950102C0109273
S11303909501DF91CF911F910F910895E4E4F1E06D
S11303A0A0EFB1E011921192119211921086118670
S11303B0128613861D921D921D921D9281E0E035D6
S11303C0F80781F781E080935D010895CF92DF9271
S11303D0EF92FF92809195019FEF980F9A3008F069
S11303E053C091E090939401813001F520E030E016
S11303F0A9016091A3017091A4018091A50190913C
S1130400A6010E943D13882321F080E090E0DC01E6
S113041004C080E090E0A0E8BFE38093A301909340
S1130420A401A093A501B093A60148C02091A701FF
S11304303091A8014091A9015091AA016091A301B2
S11304407091A4018091A5019091A6010E94D112FE
S11304506B017C0120E030E04AE754E40E949C14E4
S113046087FF09C0C092A301D092A401E092A50124
S1130470F092A60123C01092A3011092A40110923D
S1130480A5011092A6011AC095EF980F953040F47B
S11304908F3011F08F5F01C08BE0809395010EC007
S11304A0803161F48BE08093950181E08093C501F4
S11304B0FF90EF90DF90CF900C94CE01FF90EF90DF
S11304C0DF90CF9008958F929F92AF92BF92CF9278
S11304D0DF92EF92FF92CF93DF936B017C01C42FE5
S11304E0D0E0FE01EE0FFF1FEE0FFF1FE453FE4F9F
S11304F080809180A280B3809B01AC01C501B401CE
S11305000E949C1487FF2CC0A5019401C701B60169
S11305100E94D0126B017C0120E030E0A9010E940E
S11305209C1418163CF420E030E048EC52E4C70177
S1130530B60107C0C701B601905820E030E048EC8E
S113054052E40E94A114CC0FDD1FCC0FDD1FCC514F
S1130550DE4F288139814A815B810E94421303C0A6
S113056060E070E0CB01DF91CF91FF90EF90DF90DE
S1130570CF90BF90AF909F908F900895CF92DF92CD
S1130580EF92FF92CF93DF93C0E0D1E0C990D9906E
S1130590E990F99020E030E0A901C701B6010E947A
S11305A03D13882349F0288539854A855B85C70131
S11305B0B6010E94421303C060E070E0CB016C8B73
S11305C07D8B8E8B9F8B81E0CC30D807F9F6DF9141
S11305D0CF91FF90EF90DF90CF9008952F923F92AC
S11305E04F925F926F927F928F929F92AF92BF923F
S11305F0CF92DF92EF92FF920F931F93CF93DF93EB
S1130600CDB7DEB72C970FB6F894DEBF0FBECDBFC3
S113061019821A821B821C821D821E821F821886E6
S113062019861A861B861C866C010CEC11E0CE011F
S113063001961C017C01812C912C5401F6016191DD
S11306407191819191916F01F801219131914191C1
S113065051918F010E94D0129B01AC01F70161936B
S11306607193819391937F01C501B4010E94D112CA
S11306704B015C01F1E0083D1F0701F720E030E089
S113068040E450E40E9442136B017C012DEC3CECED
S11306904CE45DE30E94A1142B013C019B01AC01DD
S11306A0C701B6010E94D1124B015C01A301920162
S11306B0C701B6010E94D0122B013C018E01035FD9
S11306C01F4FF101C190D190E190F1901F01A7015A
S11306D09601C301B2010E943D1318166CF0A701E4
S11306E09601C501B4010E949C1487FD05C0021542
S11306F0130539F780E001C081E02C960FB6F89419
S1130700DEBF0FBECDBFDF91CF911F910F91FF9040
S1130710EF90DF90CF90BF90AF909F908F907F909D
S11307206F905F904F903F902F9008952F923F923B
S11307304F925F926F927F928F929F92AF92BF92ED
S1130740CF92DF92EF92FF920F931F93CF93DF9399
S1130750CDB7DEB7E9970FB6F894DEBF0FBECDBFB5
S1130760198E1A8E1B8E1C8E1D8E1E8E1F8E18A225
S113077019A21AA21BA21CA21D861E861F86188AF5
S1130780198A1A8A1B8A1C8A1D8A1E8A1F8A188E35
S113079019821A821B821C821D821E821F82188665
S11307A019861A861B861C861E012DE0220E311C1A
S11307B0CE0101969EA38DA36C01510110E0612F1F
S11307C083E492E00E94B70CBC0180E090E00E94B8
S11307D0EA13D5016D937D938D939D935D01612FF4
S11307E08EE392E00E94B70CBC0180E090E00E948E
S11307F0EA13F60161937193819391936F011F5FE3
S11308001330E9F68091240190912501A0912601ED
S1130810B09127018AAB9BABACABBDAB80912801F7
S113082090912901A0912A01B0912B018EAB9FAB2D
S1130830A8AFB9AFA8E1B1E0BFA7AEA76E01B9E117
S1130840CB0ED11C0CE211E08CECE82E81E0F82EEA
S1130850D9AAC8AA3DA62CA6E3E0EBA7ACA5BDA5E2
S11308606D917D918D919D91BDA7ACA72AA93BA9BE
S11308704CA95DA90E94A1142B013C01F1016193D3
S11308807193819391931F01ADA1BEA12D913D91CF
S11308904D915C916EA97FA988AD99AD0E94A11478
S11308A04B015C01EDA1FEA161937193819391933E
S11308B0FEA3EDA3EEA5FFA581919191A191B19124
S11308C0FFA7EEA78FA398A7A9A7BAA7A50194018C
S11308D0C301B2010E9442132FA138A549A55AA50C
S11308E00E94A1146FA378A789A79AA7A8A9B9A958
S11308F06D937D938D939D93B9ABA8ABA3019201A6
S1130900F801608D718D828D938D0E94D112D80172
S113091058966D937D938D939C935B97A501940159
S113092094966D917D918D919C9197970E94D1128F
S1130930F80164A375A386A397A32FA138A549A59D
S11309405AA5D70194966D917D918D919C9197971D
S11309500E94D112F70164A375A386A397A3FBA5F4
S1130960F150FBA70C5F1F4F24E0E20EF11CF111C4
S113097075CF0BEA11E0F12CCE0149960E94EE02EC
S11309808823D9F0D6016D917D918D919C914F2D45
S11309900E94630220E030E04AEA52E40E949C1480
S11309A087FD0BC0F80184859585A685B785883EAB
S11309B0F3E09F07A105B10510F1F39424E0C20E02
S11309C0D11C0C5F1F4F83E0F812D6CFE9960FB607
S11309D0F894DEBF0FBECDBFDF91CF911F910F9171
S11309E0FF90EF90DF90CF90BF90AF909F908F904B
S11309F07F906F905F904F903F902F900895019655
S1130A00A11DB11DF80184879587A687B787D5CF27
S1130A10CF92DF92EF92FF9224E0829FC0011124D3
S1130A20FC01E555FE4FC080D180E280F38020E0D8
S1130A3030E04AE754E4C701B6010E943D1387FF42
S1130A4024C020E030E0A901C701B6010E949C1433
S1130A5020E030E040E05FE387FD05C0C701B60158
S1130A600E94D11204C0C701B6010E94D0120E9494
S1130A70B4132AE030E0AB01BC0187E991E0FF90B8
S1130A80EF90DF90CF900C94E4154AE050E067EECD
S1130A9073E087E991E00E942C1668E871E087E929
S1130AA091E0FF90EF90DF90CF900C945D1524E0DF
S1130AB0829FC0011124FC01E954FE4F4081518101
S1130AC062817381483E83E058076105710530F403
S1130AD02AE030E087E991E00C94D1154AE050E037
S1130AE067EE73E087E991E00E942C1666E871E0F6
S1130AF087E991E00C945D1540E064E087E991E0BA
S1130B000E94650D68ED70E087E991E00E945D1533
S1130B1041E060E087E991E00E94650D65ED70E0D9
S1130B2087E991E00E945D1541E068E087E991E082
S1130B300E94650D62ED70E087E991E00C945D150B
S1130B4087E991E00E94570DE09195018E2F90E086
S1130B508131910508F0A0C0FC01EC5CFF4F0C94BE
S1130B60F21866E771E094C060E771E091C06AE64C
S1130B7071E08EC064E671E08BC06EE571E088C000
S1130B8068E571E085C062E571E082C06CE471E003
S1130B907FC066E471E07CC060E471E079C069E321
S1130BA071E087E991E00E945D1540E068E087E923
S1130BB091E00E94650D65E371E087E991E00E9490
S1130BC05D1541E060E087E991E00E94650D61E315
S1130BD071E087E991E00E945D1541E068E087E9F2
S1130BE091E00E94650D6DE271E052C069E271E02E
S1130BF087E991E00E945D1540E068E087E991E0B3
S1130C000E94650D65E271E087E991E00E945D153F
S1130C1041E060E087E991E00E94650D61E271E0E6
S1130C2087E991E00E945D1541E06EE087E991E07B
S1130C300E94650D6EE171E02BC06BE171E005C0AF
S1130C4068E171E002C065E171E087E991E00E942A
S1130C505D150C947C0569E071E087E991E00E94E0
S1130C605D1541E060E087E991E00E94650D68EF61
S1130C7070E00EC060EF70E087E991E00E945D15BE
S1130C8041E060E087E991E00E94650D61EE70E06B
S1130C9087E991E00C945D1508950F931F93CF930A
S1130CA0DF93D82F162F042F462F682F87E991E062
S1130CB00E94650DC0E0C01741F060ED70E087E967
S1130CC091E00E945D15CF5FF6CF412F6D2F87E92C
S1130CD091E0DF91CF911F910F910C94650DCF920C
S1130CE0DF92EF92FF920F931F93CF93DF93C82F5E
S1130CF04AE060E086E00E944D06D0E08E01000FDD
S1130D00111F000F111FF801E555FE4F408151815D
S1130D106281738122E030E087E991E00E940E173E
S1130D206FED70E087E991E00E945D1546E061E0B7
S1130D3082E00E944D06F801E45DFE4FC080D18040
S1130D40E280F38020E030E048EC52E4C701B601D1
S1130D500E943D1387FD3DC020E030E04AE754E4A3
S1130D60C701B6010E943D1387FD35C04AE050E03B
S1130D7067EE73E087E991E00E942C166DED70E058
S1130D8087E991E00E945D1546E061E08AE00E94F7
S1130D904D06CC0FDD1FCC0FDD1FC85CDE4FC880B5
S1130DA0D980EA80FB8020E030E048EC52E4C701BF
S1130DB0B6010E943D1387FD17C020E030E04AE7EA
S1130DC054E4C701B6010E943D1387FF1DC021E012
S1130DD00CC022E001C021E030E0B701A60187E9A0
S1130DE091E00E940E17D0CF22E030E0B701A601B7
S1130DF087E991E0DF91CF911F910F91FF90EF90E0
S1130E00DF90CF900C940E174AE050E067EE73E049
S1130E1087E991E00E942C166BED70E087E991E080
S1130E20DF91CF911F910F91FF90EF90DF90CF90C2
S1130E300C945D158091950190919601891739F074
S1130E408093960181E0809394010E94A005809193
S1130E509401882309F490C010929401E0919501C3
S1130E608E2F90E0FC013197EF30F10508F084C03B
S1130E70EB5BFF4F0C94F21848E061E080E00E94C5
S1130E804D0620E030E0A9016091A3017091A40116
S1130E908091A5019091A6010E943D13811103C088
S1130EA065E971E002C06CE871E087E991E00C94B7
S1130EB05D1548E060E087E00E944D066AE871E055
S1130EC087E991E00E945D154091A7015091A80126
S1130ED06091A9017091AA0123E030E087E991E0D3
S1130EE00E940E1740E161E080E00E944D064091AF
S1130EF0A3015091A4016091A5017091A60123E082
S1130F0030E087E991E00C940E1744E060E08BE058
S1130F100E944D0680E00E94570544E061E083E0B2
S1130F200E944D0681E00E94570544E061E08BE099
S1130F300E944D0682E00C94570545E060E083E092
S1130F400E944D0680E00E94080545E060E08BE0C9
S1130F500E944D0681E00E94080545E061E083E0BF
S1130F600E944D0682E00C94080580E003C081E0F5
S1130F7001C082E00C946F060895CF9360E070E0A6
S1130F8083E492E00E94680C83E492E00E94640C83
S1130F9060E070E08EE392E00E94680C8EE392E0E1
S1130FA00E94640C87E991E00E94050E87E991E0B4
S1130FB00E94110D87E991E00E94570D66EE71E0E1
S1130FC08DE192E00E94420E66E271E08DE192E0D2
S1130FD00E94460E6EE170E08DE192E00E94360EB2
S1130FE068EC70E08DE192E00E943A0E68EE73E0E6
S1130FF08DE192E00E943E0E61E87AE08CEF91E090
S11310000E94420E68ED7BE08CEF91E00E94460E58
S11310106EE170E08CEF91E00E94360E68EC70E0B7
S11310208CEF91E00E943A0E68EE73E08CEF91E051
S11310300E943E0E85E290E00E94F818853609F47D
S113104049C060E084E290E00E94061940E050E06C
S1131050BA0180E290E00E94181940E050E0BA0121
S11310608CE190E00E94181940E050E0BA0188E158
S113107090E00E94181940E050E0BA0184E190E049
S11310800E94181940E050E0BA0180E190E00E940B
S1131090181940E050E0BA018CE090E00E94181961
S11310A040E050E0BA0188E090E00E94181940E066
S11310B050E0BA0184E090E00E94181940E050E04A
S11310C0BA0180E090E00E94181965E685E290E09C
S11310D00E94061984E290E00E94F818C82F81E06B
S11310E0C11101C080E08093C60180E290E00E94BB
S11310F000196093CC017093CD018093CE0190933D
S1131100CF018CE190E00E9400196093D0017093AC
S1131110D1018093D2019093D30188E190E00E94A1
S113112000196093D4017093D5018093D6019093F4
S1131130D70184E190E00E9400196093000170934C
S11311400101809302019093030180E190E00E94E9
S11311500019609304017093050180930601909334
S113116007018CE090E00E940019609308017093DD
S1131170090180930A0190930B0188E090E00E949A
S1131180001960930C0170930D0180930E019093EC
S11311900F0184E090E00E940019609310017093A5
S11311A01101809312019093130180E090E00E945A
S11311B000196093140170931501809316019093A4
S11311C01701CC2329F080E090E0A0EAB0E404C049
S11311D080E090E0A0E2B0E48093C7019093C8015E
S11311E0A093C901B093CA010E946B010E94BE0280
S11311F00E94980161E080E10E94361860E080E17D
S11312000E94721880919501809396010E94CE01EC
S11312100E94A005CF910C941A073F924F925F92BF
S11312206F927F928F929F92AF92BF92CF92DF92F2
S1131230EF92FF920F931F93CF93DF9300D000D0D0
S1131240CDB7DEB78DE192E00E94220F8CEF91E0E2
S11312500E94220F0E941A078091C501882309F475
S1131260B4C00E94960380915D0180905C01881552
S113127020F48F5F80935D01A8C081E08093940186
S11312808CE291E09C838B8380E0E82E81E0F82E51
S11312900CEC11E09BEAC92E91E0D92EDA82C982C6
S11312A0312C912CA12CB12CC501B4010E94EC135A
S11312B02B013C019B01AC01EB81FC81608D718DA4
S11312C0828D938D0E944213F701208131814281E6
S11312D053810E94A114EB81FC816083718382831A
S11312E09383A301920164A175A186A197A10E9491
S11312F04213F70124853585468557850E94A1143C
S1131300EB81FC816487758786879787A3019201A7
S1131310F80164A175A186A197A10E944213F80166
S11313206487758786879787432D0E946302E981C6
S1131330FA816193719381939193FA83E98333944E
S11313408B819C8104969C838B8394E0E90EF11C31
S11313500C5F1F4FE3E03E12A7CF0E94CE018091A5
S1131360C60164E670E0681B7109072E000C880B47
S1131370990B0E94EC134B015C01F6016191719190
S1131380819191916F01A50194010E949C141816FA
S11313903CF488ED91E00E94EE028093C30105C005
S11313A087EB91E08C159D0541F78091C30188235B
S11313B061F01092C5018BE08093950161E080E1BA
S11313C00E94721881E08093C4010F900F900F90D7
S11313D00F90DF91CF911F910F91FF90EF90DF90CD
S11313E0CF90BF90AF909F908F907F906F905F90C1
S11313F04F903F90089581E080939401E09195018E
S11314008E2F90E0FC013197EA30F10508F06CC0B2
S1131410EC5AFF4F0C94F2186091C60170E080E022
S113142090E00E94EA136093A3017093A401809357
S1131430A5019093A60158C08091CC019091CD0153
S1131440A091CE01B091CF0147C08091D00190917D
S1131450D101A091D201B091D3013EC08091D401B9
S11314609091D501A091D601B091D70135C080915A
S1131470000190910101A0910201B09103012CC0DF
S11314808091040190910501A0910601B09107019A
S113149023C08091080190910901A0910A01B091A3
S11314A00B011AC080910C0190910D01A0910E01C5
S11314B0B0910F0111C08091100190911101A09180
S11314C01201B091130108C080911401909115018B
S11314D0A0911601B09117018093A3019093A401E8
S11314E0A093A501B093A60180E090E0A0E8BFE33B
S11314F08093A7019093A801A093A901B093AA0196
S11315000895CF92DF92EF92FF92CF93809195014D
S113151081110AC0C1E0C0939401C09395010E9457
S1131520FB09C093CB0164C09FEF980F9A3008F079
S11315304EC091E0909394018130C1F420E030E0FA
S1131540A9016091A3017091A4018091A5019091DA
S1131550A6010E943D13882321F080E090E0DC0185
S11315602DC080E090E0A0E8BFE328C02091A7014F
S11315703091A8014091A9015091AA016091A30161
S11315807091A4018091A5019091A6010E94D012AE
S11315906B017C0120E030E0A9010E943D1387FD2E
S11315A009C0C092A301D092A401E092A501F092D7
S11315B0A6011EC080EF9FEFA9E7B4E48093A301C6
S11315C09093A401A093A501B093A60111C025EFA7
S11315D0280F253030F48B3009F49FE09093950167
S11315E007C0803129F48BE0809395011092C501E6
S11315F0CF91FF90EF90DF90CF900895CF92DF923C
S1131600EF92FF92CF93E09195018E2F90E0FC0131
S11316103197EA30F10508F0B2C0E25AFF4FC090AA
S1131620A301D090A401E090A501F090A6010C9430
S1131630F218C1E020E030E0A901C701B6010E9420
S11316403D13811101C0C0E0C093C60120E030E029
S1131650A901C701B6010E943D13882329F080E047
S113166090E0A0EAB0E404C080E090E0A0E2B0E43E
S11316708093C7019093C801A093C901B093CA0194
S11316800E946B016091C60184E290E00E940619F9
S113169076C0C092CC01D092CD01E092CE01F092FE
S11316A0CF01B701A60180E290E067C0C092D001EB
S11316B0D092D101E092D201F092D301B701A601F8
S11316C08CE190E05AC0C092D401D092D501E0924E
S11316D0D601F092D701B701A60188E190E04DC090
S11316E0C0920001D0920101E0920201F092030144
S11316F0B701A60184E190E040C0C0920401D092F9
S11317000501E0920601F0920701B701A60180E10C
S113171090E033C0C0920801D0920901E0920A011E
S1131720F0920B01B701A6018CE090E026C0C092B4
S11317300C01D0920D01E0920E01F0920F01B7015D
S1131740A60188E090E019C0C0921001D092110166
S1131750E0921201F0921301B701A60184E090E037
S11317600CC0C0921401D0921501E0921601F092BF
S11317701701B701A60180E090E00E94181980913A
S113178095018150843010F40E946B018091950181
S11317908550863038F4CF91FF90EF90DF90CF9052
S11317A00C94BE02CF91FF90EF90DF90CF900895FC
S11317B0CF938091C401882339F060E080E10E94D6
S11317C072181092C40147C0C0919501CC2309F44A
S11317D042C0CB3001F51092B7011092B8011092BB
S11317E0B9011092BA011092BB011092BC0110927F
S11317F0BD011092BE011092BF011092C00110925F
S1131800C1011092C2010E94CE01C093950181E0F2
S11318108093940120C08091CB01882399F0CA3031
S113182039F40E94FE0A0E94BE02CF910C949801E2
S11318300E94FE0A809195018F5F80939501CF915C
S11318400C94FB091092C501C1E0C09395010E945C
S1131850FB09C093CB01CF91089568E483E492E03F
S11318600E945C0C69E48EE392E00E945C0C21E02F
S113187040E050E06EE070E08DE192E00E94070EDF
S113188021E040E050E06FE070E08CEF91E00E94D6
S1131890070EE5ECF1E01082118280E090E0A0E216
S11318A0B0E482839383A483B58322E040E167E2BA
S11318B087E991E00C94EE0CFC011482138260839E
S11318C088E081831282089586EB92E00C943312AF
S11318D0FC017483638308951F93CF93DF93162FC2
S11318E0EA01682F86EB92E00E944512612F86EB95
S11318F092E00E94F4116D2F86EB92E00E94F411A5
S11319006C2F86EB92E00E94F41186EB92E0DF915B
S1131910CF911F910C94C9121F93CF93DF93182F6B
S1131920682F86EB92E00E94451260E086EB92E01D
S11319300E94F41186EB92E00E94C91242E0612FEA
S113194086EB92E00E94C61286EB92E00E946D1133
S1131950182F86EB92E00E946D11D12F20E0C22F48
S11319609E01282BC901DF91CF911F910895CF9338
S1131970DF93643050F5FC0143815481623051F0AF
S1131980633059F0613019F04368516408C043680A
S1131990516505C04368516602C043685167EC0154
S11319A0506861E088810E946C0C698170E080E07D
S11319B090E00E948B1788810E948C0C0A8002C0E0
S11319C0969587950A94E2F702C080E090E0DF9153
S11319D0CF91089580E090E008950895FC0113826A
S11319E012828AE691E0918380836483418722870F
S11319F0138608951F93CF93DF93EC01162F6C8108
S1131A0086EB92E00E9445126B85612B86EB92E097
S1131A100E94F41186EB92E0DF91CF911F910C9418
S1131A20C91228E0FC01238760E00C94FA0C0F93A0
S1131A301F93CF938C01C62F64600E94FA0C81E03F
S1131A4090E00E94C7176C2F6B7FC8010E94FA0CAC
S1131A5082E390E0CF911F910F910C94C7171F93CD
S1131A60CF93DF93EC01162F0E94FA0C612FCE0165
S1131A70DF91CF911F910C94170D0F931F93CF9368
S1131A80DF938C01C62FD42F607F642B0E942F0D0F
S1131A9080E1C89FB00111246D2BC801DF91CF9163
S1131AA01F910F910C942F0D40E00C943D0D61E0BB
S1131AB00E94540D80ED97E00C94C71762E00E94D9
S1131AC0540D80ED97E00C94C717CF93DF93CDB7F7
S1131AD0DEB728970FB6F894DEBF0FBECDBF9C01CA
S1131AE088E0EEE5F1E0DE01119601900D928A9511
S1131AF0E1F7F9018085841710F44FEF480FFE01D8
S1131B003196E40FF11DE40FF11D9081690F6068B7
S1131B10C90128960FB6F894DEBF0FBECDBFDF9182
S1131B20CF910C94540DFC016681262F24602683EA
S1131B306C600C94540D41E00E943D0D81E090E0F6
S1131B400895CF93DF93EC01423018F08D818860C3
S1131B508D834887222329F0413019F48D818460D4
S1131B608D8362E370E080E090E00E948B176B85C8
S1131B70CE010E94FA0C68EE73E080E090E00E94CF
S1131B808B1760E3CE010E942F0D84E991E10E943E
S1131B90C71760E3CE010E942F0D84E991E10E94F2
S1131BA0C71760E3CE010E942F0D86E990E00E94E2
S1131BB0C71760E2CE010E942F0D6D816062CE01D5
S1131BC00E94540D84E08E83CE010E94930DCE01B9
S1131BD00E94570D82E08F8366E0CE010E94540D6F
S1131BE0CE01DF91CF910C945E0DCF93DF93EC0186
S1131BF086EB92E00E9433121D8220E04A856985BB
S1131C00CE01DF91CF910C94A10D0C94F50DFC0144
S1131C10862FA2E3B0E0B383A283A8E5B2E0B58344
S1131C20A483A8EEB3E0B783A68312861486138632
S1131C3016861586108A1786128A118A148A138AC0
S1131C40168A158A108E178A60837183452B19F0C2
S1131C501186108604C041E050E05187408722235A
S1131C6011F062E001C060E00C943618FC0173834B
S1131C7062830895FC01758364830895FC0177836E
S1131C8066830895FC01748763870895FC01728B51
S1131C90618B0895CF92DF92EF92FF921F93CF93BF
S1131CA0DF93EC01162F0E945A176B017C018F8978
S1131CB0988D009731F4112309F4BCC081E090E0C1
S1131CC078C081309105D9F5898D9A8DAB8DBC8D05
S1131CD0B701A601481B590B6A0B7B0B11110FC0EE
S1131CE08A819B81A0E0B0E0481759076A077B0707
S1131CF018F4188E1F8A9EC082E090E01DC08E8169
S1131D009F81A0E0B0E084179507A607B70708F005
S1131D1091C081E08A87EF85F889309709F00995A9
S1131D20E989FA89309709F00995ED89FE89309798
S1131D3009F0099586E090E0988F8F8B68C0823017
S1131D409105F1F58D859E85892B99F0898D9A8D64
S1131D50AB8DBC8DB701A601481B590B6A0B7B0BDD
S1131D608C819D81A0E0B0E084179507A607B70792
S1131D7038F4EB85FC85309709F4BBCF0995B9CFCE
S1131D80112309F457C08D8D9E8DAF8DB8A1B70175
S1131D90A601481B590B6A0B7B0B8A819B81A0E02F
S1131DA0B0E084179507A607B70708F043C083E09F
S1131DB090E0988F8F8BC98EDA8EEB8EFC8E3AC0B2
S1131DC083309105C1F4111135C0898D9A8DAB8D85
S1131DD0BC8DB701A601481B590B6A0B7B0B8A818A
S1131DE09B81A0E0B0E084179507A607B70710F51C
S1131DF0ED85FE8507C00697E9F411110DC01A861A
S1131E00EB89FC89309709F00995188E1F8ACD8ECD
S1131E10DE8EEF8EF8A20EC081E08A87ED89FE89FE
S1131E20309741F0DF91CF911F91FF90EF90DF90B9
S1131E30CF900994DF91CF911F91FF90EF90DF90A5
S1131E40CF900895CF93DF93EC018881998197FD1A
S1131E500EC00E94A11861E028853985281739072A
S1131E6009F060E0CE01DF91CF910C944A0EDF912E
S1131E70CF9108951092B50281E08093B30210923D
S1131E80B20261E082E10E94721861E083E10E9483
S1131E907218E9EBF0E080818E7F808380818D7FF2
S1131EA0808388E48093B80085E48093BC0008951F
S1131EB0413208F043C09091B5029111FCCF91E0FA
S1131EC09093B5022093B3022FEF2093480210920F
S1131ED08D02240F20938C029093B4029091B4024B
S1131EE0880F892B8093B4028091B202813061F40F
S1131EF01092B2028091B4028093BB008091BC0026
S1131F0083FDF8CF85EC01C085EE8093BC00809101
S1131F10B5028130E1F380918D02841710F4409171
S1131F208D02AEE8B2E0962FFB018E2F891B841739
S1131F3018F48D918193F9CF842F089580E008954A
S1131F400F93413208F04AC09091B5029111FCCF31
S1131F5032E03093B5020093B3023FEF309348026E
S1131F6010928D0240938C02562FAEE8B2E0FB0132
S1131F703E2F351B341718F431913D93F9CF10924D
S1131F80B4023091B402880F832B8093B402809101
S1131F90B202813061F41092B2028091B402809353
S1131FA0BB008091BC0083FDF8CF85EC01C085EEB9
S1131FB08093BC00222321F08091B5028230D1F3BA
S1131FC0809148028F3F79F080914802803241F03D
S1131FD080914802803331F094E005C091E003C061
S1131FE092E001C093E0892F0F91089540916A0215
S1131FF0262F30E0240F311D21323105DCF42091ED
S1132000B5022430C9F4FC0180E090E0861758F44E
S113201030916A022191DC01A459BD4FA30FB11D77
S11320202C930196F3CF80916A02680F60936A0241
S113203080E0089581E0089582E008959093AF02CE
S11320408093AE0208959093B1028093B0020895F4
S113205085ED8093BC008091BC0084FDFCCF109280
S1132060B502089585EC8093BC001092B5020895E2
S11320701F920F920FB60F9211242F933F934F93F9
S11320805F936F937F938F939F93AF93BF93EF93DC
S1132090FF938091B900887F803609F49EC078F55B
S11320A0883209F45DC090F4803109F456C038F4E4
S11320B0882309F4F5C0883009F44FC0F5C088318D
S11320C009F44EC0803209F45FC0EEC0803409F4D4
S11320D06AC058F4803309F457C0883309F0E4C067
S11320E0809348020E943210DFC0803509F44FC04B
S11320F0883509F45DC0883409F0D6C0D3C0883966
S113210009F4C4C0A8F4883709F467C038F48836E1
S113211009F463C0803709F460C0C6C0883809F484
S1132120B5C0803909F45FC0803809F0BDC05BC018
S1132130803B09F483C038F4803A09F466C0883AD5
S113214009F47CC0B1C0803C09F4A4C0883C09F403
S1132150A1C0883B09F487C0A7C08091B40210C015
S113216090918D0280918C02981770F5E0918D0208
S113217081E08E0F80938D02F0E0E257FD4F808165
S11321808093BB0085EC83C0809348028BC0E091B0
S11321908D0281E08E0F80938D028091BB00F0E070
S11321A0E257FD4F808390918D0280918C026BC029
S11321B0E0918D0281E08E0F80938D028091BB00AF
S11321C0F0E0E257FD4F80838091B30281116AC031
S11321D081E08093B20284EA5EC083E08093B5021A
S11321E010924902CFCF80914902803208F04EC04C
S11321F0E091490281E08E0F809349028091BB00F7
S1132200F0E0E65BFD4F8083BDCF0E9432108091E9
S11322104902803230F4E0914902F0E0E65BFD4F80
S113222010826091490270E0E091AE02F091AF0239
S11322308AE492E009951092490236C084E08093C2
S1132240B50210926B0210926A02E091B002F09112
S1132250B102099580916A02811105C081E08093E1
S11322606A0210926C02E0916B0281E08E0F8093FF
S11322706B02F0E0E459FD4F80818093BB009091A4
S11322806B0280916A02981708F47CCF85E88093EA
S1132290BC000AC085EC8093BC001092B50204C057
S11322A0109248020E942810FF91EF91BF91AF91C4
S11322B09F918F917F916F915F914F913F912F915A
S11322C00F900FBE0F901F9018958091EA0290E036
S11322D02091EB02821B910908959091EB02809169
S11322E0EA02981750F4E92FF0E0E451FD4F208101
S11322F030E09F5F9093EB0202C02FEF3FEFC901E4
S11323000895E091EB028091EA02E81730F4F0E0DE
S1132310E451FD4F808190E008958FEF9FEF089581
S11323200895CF93DF93EC01E091C202F091C302D0
S11323303097F1F09091EB028091EA029817C0F087
S113234090E0292F30E02617370754F4DE01A20F5E
S1132350B31F4C91D901A451BD4F4C939F5FF1CF52
S11323601092EB026093EA02CB01DF91CF910994C2
S1132370DF91CF910895E091C402F091C5023097A6
S113238029F01092C8021092C70209940895CF92BE
S1132390DF92EF92FF920F931F93CF93DF937C0111
S11323A0CB018A012091C602222389F0EB016B0143
S11323B0C40ED51ECC15DD0569F06991D701ED91E8
S11323C0FC910190F081E02DC7010995F3CF642FB2
S11323D00E94F60FC801DF91CF911F910F91FF90DA
S11323E0EF90DF90CF900895CF93DF931F92CDB7F6
S11323F0DEB769832091C6022223D1F02091C7025F
S1132400203240F021E030E0FC013383228380E07D
S113241090E015C08091C802E82FF0E0E753FD4F2B
S1132420998190838F5F8093C8028093C70205C00F
S113243061E0CE0101960E94F60F81E090E00F90DA
S1132440DF91CF910895FC011382128288EE93E00C
S1132450A0E0B0E084839583A683B78386E791E008
S11324609183808308951092EB021092EA021092F5
S1132470C8021092C7020E943A0F8BEB91E10E94AE
S1132480231081E991E10C941E1081E08093C6022F
S11324906093E9021092C8021092C70208950F9344
S11324A0062F21E04091C70269EC72E08091E902B5
S11324B00E94A00F1092C8021092C7021092C60286
S11324C00F9108954F925F926F927F92AF92BF9255
S11324D0CF92EF92FF920F931F93CF93DF935C0100
S11324E0F62ED42F28013901EE2021F10E94451245
S11324F0CE2DC43008F0C3E0C150C0F028E0C29F24
S1132500C0011124A301920104C056954795379543
S113251027958A95D2F7CA01B901D501ED91FC91AD
S11325200190F081E02DC5010995E6CF60E0C50179
S11325300E944F124D2FD13208F040E22C2D6CEE48
S113254072E08F2D0E94580F1092EB028093EA02E2
S1132550DF91CF911F910F91FF90EF90CF90BF909B
S1132560AF907F906F905F904F900895CF92EF92CD
S11325700F931F93C22EE12C00E010E098010E94FB
S113258062121F910F91EF90CF90089521E00C9467
S1132590B61261E00C944F1286EB92E00C94231275
S11325A05058BB27AA270E94E8120C9462140E9478
S11325B0541438F00E945B1420F039F49F3F19F44E
S11325C026F40C9451140EF4E095E7FB0C944B1490
S11325D0E92F0E94731458F3BA176207730784072C
S11325E0950720F079F4A6F50C9495140EF4E09573
S11325F00B2EBA2FA02D0B01B90190010C01CA01B9
S1132600A0011124FF27591B99F0593F50F4503E63
S113261068F11A16F040A22F232F342F4427585F55
S1132620F3CF469537952795A795F0405395C9F76D
S11326307EF41F16BA0B620B730B840BBAF0915025
S1132640A1F0FF0FBB1F661F771F881FC2F70EC0C4
S1132650BA0F621F731F841F48F487957795679597
S1132660B795F7959E3F08F0B0CF9395880F08F083
S11326709927EE0F9795879508950E94271408F4DB
S113268081E008950E9456130C9462140E945B1416
S113269058F00E94541440F029F45F3F29F00C9440
S11326A04B1451110C9496140C9451140E947314ED
S11326B068F39923B1F3552391F3951B550BBB276D
S11326C0AA2762177307840738F09F5F5F4F220FB2
S11326D0331F441FAA1FA9F335D00E2E3AF0E0E8A9
S11326E032D091505040E695001CCAF72BD0FE2FF3
S11326F029D0660F771F881FBB1F26173707480787
S1132700AB07B0E809F0BB0B802DBF01FF2793583E
S11327105F4F3AF09E3F510578F00C944B140C94A3
S113272096145F3FE4F3983ED4F3869577956795C6
S1132730B795F7959F5FC9F7880F911D9695879573
S113274097F90895E1E0660F771F881FBB1F621792
S113275073078407BA0720F0621B730B840BBA0B50
S1132760EE1F88F7E09508950E94BB136894B11199
S11327700C94961408950E947B1488F09F5798F047
S1132780B92F9927B751B0F0E1F0660F771F881F72
S1132790991F1AF0BA95C9F714C0B13091F00E948C
S11327A09514B1E008950C949514672F782F882719
S11327B0B85F39F0B93FCCF3869577956795B395B3
S11327C0D9F73EF490958095709561957F4F8F4F22
S11327D09F4F0895E89409C097FB3EF49095809527
S11327E0709561957F4F8F4F9F4F9923A9F0F92FD3
S11327F096E9BB279395F695879577956795B79551
S1132800F111F8CFFAF4BB0F11F460FF1BC06F5F36
S11328107F4F8F4F9F4F16C0882311F096E911C048
S1132820772321F09EE8872F762F05C0662371F069
S113283096E8862F70E060E02AF09A95660F771F7D
S1132840881FDAF7880F9695879597F90895990F59
S11328500008550FAA0BE0E8FEEF16161706E80766
S1132860F907C0F012161306E407F50798F0621B87
S1132870730B840B950B39F40A2661F0232B242B5C
S1132880252B21F408950A2609F4A140A6958FEF7B
S1132890811D811D089597F99F6780E870E060E0CD
S11328A008959FEF80EC089500240A9416161706E5
S11328B018060906089500240A941216130614062D
S11328C005060895092E0394000C11F4882352F090
S11328D0BB0F40F4BF2B11F460FF04C06F5F7F4F48
S11328E08F4F9F4F089557FD9058440F551F59F02F
S11328F05F3F71F04795880F97FB991F61F09F3FE9
S113290079F087950895121613061406551FF2CF11
S11329104695F1DF08C0161617061806991FF1CF61
S113292086957105610508940895E894BB27662788
S11329307727CB0197F908950E94271408F48FEFA5
S113294008950E94B4140C9462140E94541438F034
S11329500E945B1420F0952311F00C944B140C94FA
S1132960511411240C9496140E94731470F3959FBF
S1132970C1F3950F50E0551F629FF001729FBB2772
S1132980F00DB11D639FAA27F00DB11DAA1F649F0E
S11329906627B00DA11D661F829F2227B00DA11DC1
S11329A0621F739FB00DA11D621F839FA00D611D47
S11329B0221F749F3327A00D611D231F849F600D68
S11329C0211D822F762F6A2F11249F5750409AF091
S11329D0F1F088234AF0EE0FFF1FBB1F661F771F1D
S11329E0881F91505040A9F79E3F510580F00C94E8
S11329F04B140C9496145F3FE4F3983ED4F38695FD
S1132A0077956795B795F795E7959F5FC1F7FE2B87
S1132A10880F911D9695879597F9089508950E94BA
S1132A20D2170E940E150E94BD07C0E0D0E00E949C
S1132A300D092097E1F30E940000F9CFCF92DF92B5
S1132A40EF92FF920F931F93CF93DF936C017A0160
S1132A508B01C0E0D0E0CE15DF0581F0D8016D9187
S1132A608D01D601ED91FC910190F081E02DC6011C
S1132A700995892B11F02196EECF7E01C701DF91D4
S1132A80CF911F910F91FF90EF90DF90CF90089519
S1132A906115710579F0FB0101900020E9F7319788
S1132AA0AF01461B570BDC01ED91FC910280F381D1
S1132AB0E02D099480E090E00895EF92FF920F9347
S1132AC01F93CF93DF938C017B01C0E0D0E0F7012B
S1132AD0EC0FFD1F6491662361F0D801ED91FC9128
S1132AE00190F081E02DC8010995892B11F0219600
S1132AF0EECFCE01DF91CF911F910F91FF90EF9018
S1132B000895DC01ED91FC910190F081E02D099490
S1132B108F929F92AF92BF92EF92FF920F931F9367
S1132B20CF93DF93CDB7DEB7A1970FB6F894DEBF8E
S1132B300FBECDBF7C01FA01CB0119A2223008F4EB
S1132B402AE08E010F5D1F4F822E912CA12CB12CF7
S1132B50BF01A50194010E94D018F901CA010150D6
S1132B6011096A3010F4605D01C0695CD8016C938E
S1132B70232B242B252B61F7B801C7010E9448158C
S1132B80A1960FB6F894DEBF0FBECDBFDF91CF91F3
S1132B901F910F91FF90EF90BF90AF909F908F90F7
S1132BA008952115310541F4DC01ED91FC9101906A
S1132BB0F081E02D642F09940C9488159A01AB01DF
S1132BC060E070E00C94D115CF92DF92EF92FF9207
S1132BD00F931F93CF93DF932115310581F4DC010B
S1132BE0ED91FC910190F081E02D642FDF91CF9164
S1132BF01F910F91FF90EF90DF90CF9009942A30AE
S1132C00310501F577FF1DC06A017B01EC016DE21E
S1132C100E9481158C0144275527BA014C195D097E
S1132C206E097F092AE0CE010E948815800F911F4A
S1132C30DF91CF911F910F91FF90EF90DF90CF9094
S1132C4008952AE0DF91CF911F910F91FF90EF90AB
S1132C50DF90CF900C9488159A01AB01770F660B27
S1132C60770B0C94E4157F928F929F92AF92BF9250
S1132C70CF92DF92EF92FF920F931F93CF93DF9344
S1132C808C016A017B01722E9A01AB01C701B60166
S1132C900E94CB18882319F067E871E027C0460129
S1132CA05701E894B7F82FEF3FEF4FE75FE7C5010F
S1132CB0B4010E94CB1881110DC02FEF3FEF4FE7F5
S1132CC05FE7C501B4010E943D1318161CF46BE8BC
S1132CD071E00CC02FEF3FEF4FE75FE4C701B6018F
S1132CE00E949C14181694F46FE871E0C801DF91F7
S1132CF0CF911F910F91FF90EF90DF90CF90BF90F5
S1132D00AF909F908F907F900C9448152FEF3FEFDA
S1132D104FE75FECC701B6010E943D1387FDE4CF86
S1132D2020E030E0A901C701B6010E943D1387FFEE
S1132D300AC06DE2C8010E948115EC01F7FAF09413
S1132D40F7F8F09402C0C0E0D0E0B12C60E070E08D
S1132D5080E09FE37B1441F020E030E040E251E466
S1132D600E944213B394F6CFA70196010E94D11298
S1132D706B017C010E94BB134B015C012AE0AB0197
S1132D80BC01C8010E948815C80FD91F7720B9F16A
S1132D90C501B4010E94EA139B01AC01C701B6014D
S1132DA00E94D0126B017C016EE2C8010E94811561
S1132DB0C80FD91F20E030E040E251E4C701B6015A
S1132DC00E94A1144B015C010E94BB136B017C01A6
S1132DD04AE050E0C8010E94DE15C80FD91FB601B1
S1132DE080E090E00E94EA139B01AC01C501B401AC
S1132DF00E94D0126B017C017A947110DBCFCE015A
S1132E00DF91CF911F910F91FF90EF90DF90CF90C2
S1132E10BF90AF909F908F907F9008950C9433163D
S1132E201F920F920FB60F9211242F933F938F93FB
S1132E309F93AF93BF9380910D0390910E03A09144
S1132E400F03B091100330910C0323E0230F2D37AF
S1132E5020F40196A11DB11D05C026E8230F02969A
S1132E60A11DB11D20930C0380930D0390930E03B9
S1132E70A0930F03B0931003809111039091120358
S1132E80A0911303B09114030196A11DB11D809369
S1132E90110390931203A0931303B0931403BF91EF
S1132EA0AF919F918F913F912F910F900FBE0F90F3
S1132EB01F9018952FB7F89460910D0370910E032D
S1132EC080910F03909110032FBF08953FB7F8949A
S1132ED08091110390911203A0911303B0911403F4
S1132EE026B5A89B05C02F3F19F00196A11DB11D61
S1132EF03FBFBA2FA92F982F8827820F911DA11D9C
S1132F00B11DBC01CD0142E0660F771F881F991FD8
S1132F104A95D1F708958F929F92AF92BF92CF9224
S1132F20DF92EF92FF926B017C010E9466174B01C6
S1132F305C01C114D104E104F10401F10E94CA1836
S1132F400E946617DC01CB0188199909AA09BB09FB
S1132F50883E9340A105B10560F321E0C21AD1086F
S1132F60E108F10888EE880E83E0981EA11CB11CCC
S1132F70C114D104E104F10419F7DBCFFF90EF9001
S1132F80DF90CF90BF90AF909F908F900895823044
S1132F90910538F0880F991F880F991F059701979D
S1132FA0F1F70895789484B5826084BD84B5816016
S1132FB084BD85B5826085BD85B5816085BDEEE63D
S1132FC0F0E0808181608083E1E8F0E0108280811C
S1132FD082608083808181608083E0E8F0E080818A
S1132FE081608083E1EBF0E0808184608083E0EBAA
S1132FF0F0E0808181608083EAE7F0E08081846092
S113300080838081826080838081816080838081ED
S1133010806880831092C1000895833081F028F481
S1133020813099F08230A1F008958730A9F088307A
S1133030B9F08430D1F4809180008F7D03C08091F9
S113304080008F7780938000089584B58F7702C0C5
S113305084B58F7D84BD08958091B0008F7703C0BF
S11330608091B0008F7D8093B0000895CF93DF935B
S113307090E0FC01E255FE4F2491FC01EE53FE4F1B
S11330808491882361F190E0880F991FFC01E65137
S1133090FE4FC591D491FC01E052FE4FA591B4912D
S11330A0611109C09FB7F894888120958223888391
S11330B0EC912E230BC0623061F49FB7F8948881A1
S11330C0322F309583238883EC912E2B2C939FBF32
S11330D006C08FB7F894E8812E2B28838FBFDF9129
S11330E0CF9108951F93CF93DF93282F30E0F901F8
S11330F0E656FE4F8491F901E255FE4FD491F90151
S1133100EE53FE4FC491CC23C1F0162F81110E94BF
S11331100D18EC2FF0E0EE0FFF1FE052FE4FA591CB
S1133120B4919FB7F894111104C08C91D095D82311
S113313002C0EC91DE2BDC939FBFDF91CF911F91F6
S11331400895CF93DF93282F30E0F901E656FE4F20
S11331508491F901E255FE4FD491F901EE53FE4FEB
S1133160C491CC2391F081110E940D18EC2FF0E052
S1133170EE0FFF1FEA52FE4FA591B491EC91ED239F
S113318081E090E021F480E002C080E090E0DF91F3
S1133190CF91089508950E942714880B990B0895E0
S11331A0A1E21A2EAA1BBB1BFD010DC0AA1FBB1F47
S11331B0EE1FFF1FA217B307E407F50720F0A21BB9
S11331C0B30BE40BF50B661F771F881F991F1A9426
S11331D069F760957095809590959B01AC01BD0150
S11331E0CF010895EE0FFF1F0590F491E02D09948F
S11331F0F999FECF92BD81BDF89A992780B50895BB
S1133200A6E1B0E044E050E00C942619262FF99989
S1133210FECF92BD81BDF89A019700B4021639F031
S11332201FBA20BD0FB6F894FA9AF99A0FBE089502
S11332300396272F0E9407190E940619252F0E9422
S11332400719242F0C940719DC01CB01FC01F9990F
S1133250FECF06C0F2BDE1BDF89A319600B40D92DE
S10F326041505040B8F70895F894FFCF97
S113326C0000803F0000803F0000803F0000803F52
S113327C0000803F0000803F0000803F0000803F42
S113328C0000803FA69B4439A69B443900000000F3
S113329C000000000000000000000000000000001E
S11332AC000000000000000000000000000000000E
S11332BC00000000000000000000000032010000CB
S11332CC400014005400000000009B0D1E15EA0C75
S11332DCED0C00000000F411C711EA0C90116511FB
S11332EC6D1181110D0A006E616E00696E66006FBE
S10732FC76660000EE
S9030000FC
