:100000000C9469020C9491020C9491020C9491024C
:100010000C9491020C9491020C9491020C94910214
:100020000C9491020C9491020C9491020C94910204
:100030000C9491020C9491020C9491020C949102F4
:100040000C946C220C9491020C94AC1F0C94DE1F47
:100050000C9491020C9491020C9491020C949102D4
:100060000C9495190C949102E90728072E072B0789
:100070003107340737073A073D074007FB07FB07FF
:10008000FB0743076A079107FB07BE07C107C407C1
:10009000CC07CF07D207FB07FB07FB07FB07FB07D4
:1000A000FB07FB07DA075E097C097C09CD09CD094E
:1000B000CD09CD09CD09CD097E09DE0ADE0AF9098F
:1000C000110A290A510AD00AD20AD40AD70AD90A2F
:1000D000DB0ABB0FCE0FBE0FD10FDA0FE30FEC0F11
:1000E000F50FFE0F41146D145814A314B614C9145F
:1000F000DC14EF14021580144741494E5F54574FEA
:10010000544849524453004741494E5F534958545B
:1001100045454E004741494E5F45494748540047D1
:1001200041494E5F464F5552004741494E5F545733
:100130004F004741494E5F4F4E45004144533A20DE
:10014000007C2D6D733D302D7C00496D70656461C0
:100150006E6365207365747570007C2D6D733D3121
:100160002D7C002D2D2D656E642D2D2D002D7C00F8
:100170003D007C3D6969002D7C003D007C3D69614E
:10018000002D7C003D007C3D6976002000453D004F
:10019000563D00493D0025002B004D0050005365A1
:1001A000747570207265717569726564004F6F6F48
:1001B0006F7073210042313D776F726B3B2042328A
:1001C0003D73746F70004D6561737572656D656E1A
:1001D0007400414300424300414200414320440037
:1001E0004243204400414220440046006525004926
:1001F000333D0049323D0049313D0041433D00421D
:10020000433D0041423D0045436F756E7400416DB2
:1002100020414300416D20424300416D2041420096
:10022000566D20414300566D20424300566D2041DB
:10023000420056206761696E206D6178562F737495
:1002400065700041206761696E206D6178562F737B
:1002500074657000436F6E74726F6C20656E6769B1
:100260006E653F002B002B002B00230023004D2048
:100270000023002300502000780052333D0052320A
:100280003D0052313D004E6F0059657300302E32F3
:10029000353620302E3030373831323500302E357B
:1002A000313220302E30313536323500312E303279
:1002B0003420302E303331323500322E3034382075
:1002C000302E3036323500342E30393620302E3153
:1002D000323500362E31343420302E313837350067
:1002E0007C2D69633D302D7C007C2D69633D322D72
:1002F0007C007C2D69633D312D7C002D2D2D656E9C
:10030000642D2D2D002D7C007C2D66653D002D7CFF
:10031000003D006563007C2D77002D7C003D00656D
:1003200064007C2D77002D7C003D00656C007C2DE9
:1003300077002D7C003D007061007C2D77002D7CC6
:10034000003D006D61007C2D77002D7C003D006D2F
:1003500076007C2D77007C2D4E6565642073657476
:10036000757020706172616D732D7C005374616EC5
:10037000642062792E2E2E00436F6D706C6574655B
:100380006421007C2D4465627567206D6F64652D66
:100390007C002D7C007C2D73616D63002D7C007CC6
:1003A0002D73616D62002D7C007C2D73616D610089
:1003B0002D7C007C2D73766D63002D7C007C2D736D
:1003C000766D62002D7C007C2D73766D61002D7C36
:1003D000007C2D736963002D7C007C2D73696200A5
:1003E0002D7C007C2D736961002D7C007C2D736D4C
:1003F0007220002D7C007C2D7367763D002D7C00E3
:100400007C2D7367613D00454550524F4D2076610C
:100410006C7565733A00454550524F4D20666972C0
:1004200073742073746172742077726974656421C7
:1004300000427574746F6E203220696E6974656451
:100440002100427574746F6E203120696E69746585
:100450006421004C434420696E697465642100493D
:100460006E697469616C697A6174696F6E2E2E2E83
:100470000000000008000201000003040700000063
:100480000000000000010204081020408001020466
:1004900008102001020408102004040404040404C9
:1004A000040202020202020303030303030000002A
:1004B0000023002600290000000000250028002B52
:1004C0000000000000240027002A00006D15291CF0
:1004D0000E2011241FBECFEFD8E0DEBFCDBF11E04C
:1004E000A0E0B1E0E4E2F9E402C005900D92A03E84
:1004F000B107D9F723E0A0EEB1E001C01D92AB3DFA
:10050000B207E1F712E0C9E6D2E004C02197FE018C
:100510000E944E24C636D107C9F70E943C200C9495
:1005200090240C940000CF93DF93CCEFD1E069913D
:1005300079918991999120E030E0A9010E949A1C5B
:100540008823E1F020E030E0A9016F89788D898D62
:100550009A8D0E949A1C882389F020E030E0A9013E
:100560006B857C858D859E850E949A1C882331F041
:1005700082E0C830D807D9F681E001C080E010924F
:100580000802882331F08EE18093E501DF91CF915D
:1005900008951092E50166E573E085E393E0DF914D
:1005A000CF910C94B920E3E7F1E0119211921192EE
:1005B0001192108611861286138681E0EF37F807B4
:1005C000A1F781E080938C010895CF92DF92EF92A2
:1005D000FF92CF93DF938091E5018A3009F483C0C5
:1005E0009FEF980F9A3008F056C091E09093E40185
:1005F000813019F5C1E0D0E020E030E040E85FE371
:100600006091F3017091F4018091F5019091F601F0
:100610000E949A1C811102C0C0E0D0E0BE01DD0F33
:10062000880B990B0E94491D6093F3017093F401AC
:100630008093F5019093F60156C02091F701309117
:10064000F8014091F9015091FA016091F301709124
:10065000F4018091F5019091F6010E942E1C6B012E
:100660007C0120E030E04AE754E40E94F91D87FF56
:1006700009C0C092F301D092F401E092F501F0922A
:10068000F60131C01092F3011092F4011092F501BD
:100690001092F60128C093EF980F9A3040F48631FB
:1006A00011F08F5F01C08DE08093E5011CC08E3199
:1006B000D1F48DE08093E50181E08093FB011092FD
:1006C000160160E081E10E94CE236AE571E085E3D6
:1006D00093E00E94B920DF91CF91FF90EF90DF90DF
:1006E000CF900C94D302DF91CF91FF90EF90DF90E9
:1006F000CF9008958F929F92AF92BF92CF92DF9248
:10070000EF92FF9290E0FC01EE0FFF1FEE0FFF1F34
:10071000E959FE4F80809180A280B380880F991F95
:10072000880F991FFC01E55AFE4FC080D180E280FE
:10073000F380A7019601C501B4010E94F91D87FF4E
:1007400034C0A5019401C701B6010E942D1C6B01A4
:100750007C0120E030E0A9010E94F91D18163CF44C
:1007600020E030E048EC52E4C701B60107C0C70101
:10077000B601905820E030E048EC52E40E94FE1DA3
:100780006B017C0120911B0130911C0140911D01E6
:1007900050911E01C501B4010E942E1C9B01AC01A9
:1007A000C701B6010E949F1C03C060E070E0CB014E
:1007B000FF90EF90DF90CF90BF90AF909F908F9081
:1007C0000895CF92DF92EF92FF920F936B017C011D
:1007D000CA01B90124E0029FF0011124E550FE4F47
:1007E00021813281438154810E949F1C9B01AC0175
:1007F000C701B6010E942D1C6B017C0120E030E096
:10080000A9010E949A1C181674F401E020911B01A2
:1008100030911C0140911D0150911E01C701B6018C
:100820000E94F91D87FD00E0802F0F91FF90EF904F
:10083000DF90CF9008952F923F924F925F926F92E8
:100840007F928F929F92AF92BF92CF92DF92EF9260
:10085000FF920F931F93CF93DF93CDB7DEB7A69789
:100860000FB6F894DEBF0FBECDBF1D861E861F8655
:10087000188A198A1A8A1B8A1C8A1D8A1E8A1F8A4C
:10088000188E19821A821B821C821D821E821F8270
:10089000188619861A861B861C861E012DE0220EDC
:1008A000311CCE0101966C017C01510110E0612FD9
:1008B0008CE692E00E941416BC0180E090E00E9459
:1008C000471DD5016D937D938D939D935D01612FA0
:1008D00087E692E00E941416BC0180E090E00E943E
:1008E000471DF70161937193819391937F011F5F7E
:1008F0001330E9F68091470190914801A091490198
:10090000B0914A018F8F98A3A9A3BAA380914B01FC
:1009100090914C01A0914D01B0914E018BA39CA3ED
:10092000ADA3BEA38FE4E82E81E0F82EABEFB1E0DB
:10093000BA8FA98FE0E0F1E0FC8FEB8F3E8E2D8E19
:1009400010E0AD8DBE8D4D905D906D907D90BE8F11
:10095000AD8FA3019201F70164A175A186A197A1B2
:100960000E942E1CD70194966D937D938D939C933A
:100970009797F60180809180A280B380A5019401B1
:10098000D0966D917D918D919C91D3970E942E1C54
:10099000D701D0966D937D938D939C93D397E98DDA
:1009A000FA8D20893189428953896F8D78A189A177
:1009B0009AA10E94FE1DA30192010E94FE1D2B011F
:1009C0003C01D1016D937D938D939D931D01E98D24
:1009D000FA8D248D358D468D578D6BA17CA18DA10F
:1009E0009EA10E94FE1DA50194010E94FE1DD6013C
:1009F0006D937D938D939C931397EB8DFC8DA088C5
:100A0000B188F8EEAF16F3E0BF063CF4012FA30166
:100A100092010E94E10381112DC01F5F24E0E20ECC
:100A2000F11C84E0C80ED11CA98DBA8D1496BA8F22
:100A3000A98FEB8DFC8D3296FC8FEB8F133009F074
:100A400080CFA6960FB6F894DEBF0FBECDBFDF9164
:100A5000CF911F910F91FF90EF90DF90CF90BF90BB
:100A6000AF909F908F907F906F905F904F903F904E
:100A70002F900895FFEFAF1ABF0AAB8DBC8D519632
:100A8000BC92AE925097C9CF4F925F926F927F9275
:100A90008F929F92AF92BF92CF92DF92EF92FF928E
:100AA0000F931F93CF93DF93CDB7DEB760970FB649
:100AB000F894DEBF0FBECDBF19821A821B821C8242
:100AC0001D821E821F82188619861A861B861C8626
:100AD0007B012CEF822E21E0922E37E6A32E31E00F
:100AE000B32E6C018E010F5F1F4F3B018CE0680E2F
:100AF000711CD7016D917D918D919D917D01F401C6
:100B000021913191419151914F010E949F1CD5013A
:100B10006D937D938D939D935D01F60121913191AC
:100B2000419151916F010E942D1CD8016D937D93CD
:100B30008D939D938D01E614F704D9F649805A8070
:100B40006B807C808D809E80AF80B884A5019401ED
:100B5000C301B2010E942D1C6B017C0120E030E03A
:100B6000A9010E94F91D181624F0F7FAF094F7F87D
:100B7000F09489859A85AB85BC858D879E87AF87E4
:100B8000B88B9C01AD01C501B4010E942D1C4B0125
:100B90005C0120E030E0A9010E94F91D181624F044
:100BA000B7FAB094B7F8B094A5019401C701B601A3
:100BB0000E942E1C6B017C01A30192016D857E8534
:100BC0008F8598890E942D1C4B015C0120E030E04C
:100BD000A9010E94F91D181624F0B7FAB094B7F8CD
:100BE000B094A7019601C501B4010E942E1C609328
:100BF000000170930101809302019093030111E0C1
:100C000020911F013091200140912101509122013A
:100C10000E94F91D87FD10E0812F60960FB6F894B1
:100C2000DEBF0FBECDBFDF91CF911F910F91FF901F
:100C3000EF90DF90CF90BF90AF909F908F907F907C
:100C40006F905F904F900895CF93DF93C82FD0E0BF
:100C5000FE01EE0FFF1FEE0FFF1FE55AFE4FDE01F4
:100C6000AA0FBB1FAA0FBB1FA959BE4F2D913D91C3
:100C70004D915C9160817181828193810E942D1CD4
:100C8000CC0FDD1FCC0FDD1FFE01E050FF4F63A333
:100C900074A385A396A320E030E0A9010E94F91D6A
:100CA00087FD06C068E672E087EE91E00E948A2028
:100CB000C050DF4F4BA15CA16DA17EA123E030E0CD
:100CC00087EE91E0DF91CF910C945822CF92DF9282
:100CD000EF92FF9224E0829FC0011124FC01EC5F9F
:100CE000FE4FC080D180E280F38020E030E04AE710
:100CF00054E4C701B6010E949A1C87FF24C020E07B
:100D000030E0A901C701B6010E94F91D20E030E0E2
:100D100040E05FE387FD05C0C701B6010E942E1CBD
:100D200004C0C701B6010E942D1C0E94111D2AE0BB
:100D300030E0AB01BC0187EE91E0FF90EF90DF90D7
:100D4000CF900C942E214AE050E067EE73E087EEDE
:100D500091E00E94762166E672E087EE91E0FF90D6
:100D6000EF90DF90CF900C948A20E82FF0E0EE0F08
:100D7000FF1FE05FFE4F60817181643671051CF4D6
:100D800042E050E006C0683E83E0780734F441E07A
:100D900050E087EE91E00C9476214AE050E067EE57
:100DA00073E087EE91E00E94762164E672E087EEC0
:100DB00091E00C948A2040E067E087EE91E00E9489
:100DC000C2166CE971E087EE91E00E948A2041E052
:100DD00067E087EE91E00E94C2166AE971E087EE53
:100DE00091E00C948A2040E063E087EE91E00E945D
:100DF000C21663E971E087EE91E00E948A2041E02B
:100E000060E087EE91E00E94C21660E971E087EE33
:100E100091E00E948A2041E068E087EE91E00E9424
:100E2000C2166DE871E087EE91E00C948A2087EE9F
:100E300091E00E94B416E091E5018E2F90E08F3191
:100E4000910508F0D8C0FC01EC5CFF4F0C944E24D7
:100E500064E572E0CCC063E472E0C9C062E372E0B2
:100E6000C6C06CE272E0C3C066E272E0C0C060E27D
:100E700072E0BDC06AE172E0BAC064E172E0B7C07E
:100E80006EE072E0B4C067E072E087EE91E00E942D
:100E90008A2040E068E087EE91E00E94C21663E09D
:100EA00072E087EE91E00E948A2041E060E087EEE8
:100EB00091E00E94C2166FEF71E087EE91E00E9410
:100EC0008A2041E068E087EE91E00E94C2166BEF55
:100ED00071E08DC067EF71E087EE91E00E948A209B
:100EE00040E068E087EE91E00E94C21663EF71E097
:100EF00087EE91E00E948A2041E060E087EE91E079
:100F00000E94C2166FEE71E087EE91E00E948A2087
:100F100041E06EE087EE91E00E94C2166CEE71E057
:100F200066C04AE050E061E070E087EE91E00E9428
:100F3000762140E068E087EE91E00E94C2164AE028
:100F400050E062E070E087EE91E00E94762141E09F
:100F500060E087EE91E00E94C2164AE050E063E054
:100F600070E087EE91E00E94762141E068E087EE34
:100F700091E00E94C2166AEE71E039C065EE71E040
:100F800005C060EE71E002C06BED71E087EE91E0AC
:100F90000E948A200C94DB0668ED71E005C065EDC7
:100FA00071E002C062ED71E087EE91E00E948A205C
:100FB0000C94F30666EC71E087EE91E00E948A20C3
:100FC00041E060E087EE91E00E94C21665EB71E0BF
:100FD0000EC06DEA71E087EE91E00E948A2041E048
:100FE00060E087EE91E00E94C2166EE971E087EE44
:100FF00091E00C948A2008950F931F93CF93DF9371
:10100000D82F162F042F462F682F87EE91E00E94CD
:10101000C216C0E0C01741F06BE871E087EE91E0C6
:101020000E948A20CF5FF6CF412F6D2F87EE91E08F
:10103000DF91CF911F910F910C94C21640E161E0B6
:1010400080E00E94FC076091F3017091F4018091AF
:10105000F5019091F6010E94111D62307105B1F009
:101060003CF46115710561F06130710561F008951E
:101070006430710589F06CF06530710581F0089578
:1010800063ED72E00EC067EC72E00BC06AEB72E0D9
:1010900008C06CEA72E005C06DE972E002C06DE85C
:1010A00072E087EE91E00C948A20CF92DF92EF926B
:1010B000FF920F931F93CF93DF93C82F47E060E019
:1010C00089E00E94FC07D0E08E01000F111F000F85
:1010D000111F09591E4FD8014D915D916D917C9161
:1010E00025E030E087EE91E00E94582246E061E082
:1010F00080E00E94FC072396FE01EE0FFF1FEE0F1B
:10110000FF1FE15BFE4FD8012D913D914D915C9108
:1011100060817181828193810E942D1C6B017C0111
:1011200020E030E0A9010E94F91D181624F0F7FA1A
:10113000F094F7F8F09424E030E0B701A60187EED0
:1011400091E00E94582247E061E089E00E94FC079C
:10115000CC0FDD1FCC0FDD1FC15BDE4F48815981F5
:101160006A817B8125E030E087EE91E0DF91CF91CD
:101170001F910F91FF90EF90DF90CF900C94582229
:10118000CF92DF92EF92FF92CF93DF93C82F47E089
:1011900060E085E00E94FC07D0E0FE01EE0FFF1F3B
:1011A000EE0FFF1FE55AFE4F40815181628173812E
:1011B00025E030E087EE91E00E94582248E061E0AF
:1011C00082E00E94FC07FE01EE0FFF1FEE0FFF1FE3
:1011D000E15BFE4FC080D180E280F38020E030E010
:1011E00048EC52E4C701B6010E949A1C87FD39C041
:1011F00020E030E04AE754E4C701B6010E949A1C9F
:1012000087FD31C04AE050E067EE73E087EE91E081
:101210000E94762168E971E087EE91E00E948A20C1
:1012200045E061E08AE00E94FC07CC0FDD1FCC0F97
:10123000DD1FCC5FDE4F488159816A817B8121E0CF
:1012400030E087EE91E00E94582266E971E087EE77
:1012500091E0DF91CF91FF90EF90DF90CF900C94D1
:101260008A2022E001C021E030E0B701A60187EE2C
:1012700091E00E945822D4CF8091E5019091E6013F
:10128000891739F08093E60181E08093E4010E94A0
:1012900017078091E401882309F490C11092E401BA
:1012A000E091E5018E2F90E0FC013197E631F105E8
:1012B00008F084C1ED5AFF4F0C944E2443E061E0E6
:1012C00080E00E94FC0720E030E040E85FE36091AE
:1012D000F3017091F4018091F5019091F6010E9463
:1012E0009A1C811103C069E872E002C066E872E0EE
:1012F00087EE91E00C948A200C941E0862E872E05C
:1013000087EE91E00E948A204091FC015091FD01FE
:101310006091FE017091FF0121E030E087EE91E0E5
:101320000E94582240E068E087EE91E00E94C216D9
:101330006EE772E087EE91E00E948A2045E060E06F
:101340008BE00E94FC0740910002509101026091E5
:1013500002027091030221E030E087EE91E00E94EA
:10136000582241E060E087EE91E00E94C2166AE7F1
:1013700072E087EE91E00E948A2045E061E083E020
:101380000E94FC0740910402509105026091060200
:101390007091070221E030E028C048E060E087E07B
:1013A0000E94FC0768E772E087EE91E00E948A20C5
:1013B0004091F7015091F8016091F9017091FA01A3
:1013C00023E030E087EE91E00E94582240E161E0A6
:1013D00080E00E94FC074091F3015091F40160917C
:1013E000F5017091F60123E030E087EE91E00C9476
:1013F000582244E060E08BE00E94FC0780E00E94FD
:10140000B50644E061E083E00E94FC0781E00E94B1
:10141000B50644E061E08BE00E94FC0782E00C949A
:10142000B50645E060E083E00E94FC0780E00E9492
:10143000660645E060E08BE00E94FC0781E00E94C8
:10144000660645E061E083E00E94FC0782E00C94C0
:10145000660646E060E081E00E94FC0780E00E94B2
:10146000240646E060E089E00E94FC0781E00E94DB
:10147000240646E061E081E00E94FC0782E00E94D1
:10148000240646E061E089E00E94FC0740910001EB
:1014900050910101609102017091030124E030E05C
:1014A000A4CF87EE91E00E94B41665E772E087EE64
:1014B00091E00E948A2040916701509168016091FB
:1014C000690170916A0122E030E087EE91E00E94AC
:1014D000582263E772E087EE91E00E948A204091F3
:1014E0006B0150916C0160916D0170916E0122E071
:1014F00030E087EE91E00E94582261E772E087EECB
:1015000091E00E948A2040916F015091700160919A
:1015100071017091720122E030E087EE91E00E944B
:10152000582241E060E087EE91E00E94C2166EE62C
:1015300072E087EE91E00E948A2040915B01509119
:101540005C0160915D0170915E0122E030E087EE08
:1015500091E00E9458226CE672E087EE91E00E94D2
:101560008A2040915F01509160016091610170910A
:10157000620122E030E087EE91E00E9458226AE6A4
:1015800072E087EE91E00E948A20409163015091C1
:101590006401609165017091660122E030E025CF21
:1015A00080E003C081E001C082E00C94550880E037
:1015B00003C081E001C082E00C94C00808953F920E
:1015C0004F925F926F927F928F929F92AF92BF9253
:1015D000CF92DF92EF92FF920F931F93CF93DF93FF
:1015E00000D000D000D0CDB7DEB786E492E00E94F4
:1015F0007F1885E292E00E947F180E943C0980914A
:10160000FB01882309F496C20E941B0480918C017F
:1016100090918B01891720F48F5F80938C018AC28F
:1016200081E08093E4010E94B6220091E0011091D4
:10163000E1012091E2013091E3016B017C01C01ACC
:10164000D10AE20AF30AC982DA82EB82FC820FE451
:1016500011E08BEFE82E81E0F82E90E0C92E91E0AA
:10166000D92E81E090E09E838D83312C60918B0197
:1016700070E080E090E00E94491D2B013C019B013D
:10168000AC01D80194966D917D918D919C91979725
:101690000E949F1C209147013091480140914901CF
:1016A00050914A010E94FE1DF7012089318942892B
:1016B00053890E94FE1D4B015C01D8016D937D93FF
:1016C0008D939C931397A3019201D0966D917D9178
:1016D0008D919C91D3970E949F1C20914B0130913A
:1016E0004C0140914D0150914E010E94FE1DF701A9
:1016F000248D358D468D578D0E94FE1DD8011C9678
:101700006D937D938D939C931F97F7012181328177
:1017100043815481C501B4010E949F1CD801589691
:101720006D937D938D939C935B97832D0E947A0399
:10173000F601648375838683978389819A81AB815F
:10174000BC81893E9340A105B10508F403C162E55F
:1017500073E085E393E00E948A204AE050E06D81C7
:101760007E8185E393E00E9476216FE473E085E358
:1017700093E00E948A204AE050E06D817E8185E3FB
:1017800093E00E9476216DE473E085E393E00E948C
:101790008A20D8014D915D916D917C9125E030E0DA
:1017A00085E393E00E9458226AE473E085E393E0C6
:1017B0000E94B92066E473E085E393E00E948A20EA
:1017C0004AE050E06D817E8185E393E00E947621BE
:1017D00063E473E085E393E00E948A204AE050E0EE
:1017E0006D817E8185E393E00E94762161E473E060
:1017F00085E393E00E948A20F8014485558566853B
:10180000778525E030E085E393E00E9458226EE37F
:1018100073E085E393E00E94B9206AE373E085E317
:1018200093E00E948A204AE050E06D817E8185E34A
:1018300093E00E94762167E373E085E393E00E94E2
:101840008A204AE050E06D817E8185E393E00E942A
:10185000762165E373E085E393E00E948A20D80156
:1018600058964D915D916D917C915B9725E030E0AC
:1018700085E393E00E94582262E373E085E393E0FE
:101880000E94B9206EE273E085E393E00E948A2013
:101890004AE050E06D817E8185E393E00E947621ED
:1018A0006BE273E085E393E00E948A204AE050E017
:1018B0006D817E8185E393E00E94762169E273E089
:1018C00085E393E00E948A20F60144815581668178
:1018D000778122E030E085E393E00E94582266E2BF
:1018E00073E085E393E00E94B92062E273E085E350
:1018F00093E00E948A204AE050E06D817E8185E37A
:1019000093E00E9476216FE173E085E393E00E940B
:101910008A204AE050E06D817E8185E393E00E9459
:1019200076216DE173E085E393E00E948A20D60181
:1019300093964D915D916D917C91969722E030E068
:1019400085E393E00E9458226AE173E085E393E027
:101950000E94B92033940C5F1F4FB4E0EB0EF11CD2
:10196000E4E0CE0ED11C8D819E8101969E838D83F5
:1019700093E039127BCEC980DA80EB80FC8029EEBF
:10198000C21623E0D206E104F10408F469C000E1C4
:1019900011E081E090E09A83898366E173E085E35A
:1019A00093E00E948A204AE050E069817A8185E3D1
:1019B00093E00E94762163E173E085E393E00E9467
:1019C0008A204AE050E069817A8185E393E00E94B1
:1019D000762161E173E085E393E00E948A20D801DB
:1019E0006D917D918D014AE050E085E393E00E9486
:1019F00076216EE073E085E393E00E94B920E981EF
:101A0000FA813196FA83E983349739F668E073E016
:101A100085E393E00E948A204091000150910101EA
:101A2000609102017091030125E030E085E393E0CD
:101A30000E945A2265E073E085E393E00E94B9209A
:101A40006BEF72E085E393E00E94B9200E94B6221A
:101A50006093E0017093E1018093E2019093E301D0
:101A60000E94D3026FE471E08BE591E00E9444058F
:101A700040911701509118016091190170911A015C
:101A8000882309F445C0452B462B472B81F462EF90
:101A900072E085E393E00E94B9200E94B622609331
:101AA0001701709318018093190190931A010E94F5
:101AB000B62200911701109118012091190130915F
:101AC0001A01DC01CB01801B910BA20BB30B8031FF
:101AD0009742A105B10570F180912302882321F07E
:101AE00080912402882331F01092FB0161E081E1B2
:101AF0000E94CE2369EE72E085E393E00E94B92054
:101B000061E080E10E94CE2381E08093160112C043
:101B1000452B462B472B31F060EE72E085E393E0D6
:101B20000E94B92010921701109218011092190109
:101B300010921A0126960FB6F894DEBF0FBECDBFE5
:101B4000DF91CF911F910F91FF90EF90DF90CF9099
:101B5000BF90AF909F908F907F906F905F904F90CD
:101B60003F9008952F923F924F925F926F927F9293
:101B70008F929F92AF92BF92CF92DF92EF92FF929D
:101B80000F931F93CF93DF93CDB7DEB7E0970FB6D8
:101B9000F894DEBF0FBECDBF1DA21EA21FA218A6C5
:101BA00019A61AA61BA61CA61DA61EA61FA618AA25
:101BB000198E1A8E1B8E1C8E1D8E1E8E1F8E18A2C5
:101BC00019A21AA21BA21CA21D861E861F86188A95
:101BD000198A1A8A1B8A1C8A1D8A1E8A1F8A188ED5
:101BE00019821A821B821C821D821E821F82188605
:101BF00019861A861B861C8601E03E0181E3680E69
:101C0000711C80918B01081708F060C07E0195E27D
:101C1000E90EF11C6E01E9E1CE0ED11C560147011F
:101C200010E0612F8CE692E00E941416BC0180E067
:101C300090E00E94471DF401619371938193919309
:101C40004F01612F87E692E00E941416BC0180E0EC
:101C500090E00E94471DF5016193719381939193E8
:101C60005F011F5F1330E9F64E01FDE08F0E911CFE
:101C7000CE0101965C01F701219131914191519181
:101C80007F01F40160817181828193810E942E1C09
:101C9000F40161937193819391934F01F601219126
:101CA0003191419151916F01F50160817181828182
:101CB00093810E942E1CF5016193719381939193FE
:101CC0005F016E147F04B9F60F5F9BCF6E01FDE0DC
:101CD000CF0ED11C8BEFE82E81E0F82ECE010196BD
:101CE0001C0100E010E0F60141905190619071906C
:101CF0006F0160918B0170E080E090E00E94491DCF
:101D00004B015C019B01AC01C301B2010E949F1C0D
:101D100020914701309148014091490150914A0179
:101D20000E94FE1DF70120893189428953890E9452
:101D3000FE1D2B013C01F101619171918191919105
:101D40001F01A50194010E949F1C20914B0130911D
:101D50004C0140914D0150914E010E94FE1DF70132
:101D6000248D358D468D578D0E94FE1D4B015C01E3
:101D70009B01AC01C301B2010E949F1CF70161836A
:101D800072838383948366E871E085E393E00E9425
:101D90008A200F5F1F4F4AE050E0B80185E393E0CF
:101DA0000E94762164E871E085E393E00E948A2036
:101DB00025E030E0B301A20185E393E00E945822C0
:101DC00061E871E085E393E00E94B9206CE771E07F
:101DD00085E393E00E948A204AE050E0B80185E361
:101DE00093E00E9476216AE771E085E393E00E9428
:101DF0008A2025E030E0B501A40185E393E00E944C
:101E0000582267E771E085E393E00E94B92062E71A
:101E100071E085E393E00E948A204AE050E0B80137
:101E200085E393E00E94762160E771E085E393E02B
:101E30000E948A20F701418152816381748125E0EB
:101E400030E085E393E00E9458226DE671E085E37F
:101E500093E00E94B920F4E0EF0EF11C033011056D
:101E600009F041CF63E671E085E393E0E0960FB6B9
:101E7000F894DEBF0FBECDBFDF91CF911F910F91C0
:101E8000FF90EF90DF90CF90BF90AF909F908F909A
:101E90007F906F905F904F903F902F900C94B9205F
:101EA000CF92DF92EF92FF928091E5019CEF980F25
:101EB000963058F5C090F701D090F801E090F90104
:101EC000F090FA0120E030E048EC52E4C701B6019E
:101ED0000E94F91D87FF09C020E030E040E251E494
:101EE000C701B6010E94FE1D04C06FE672E183E8DF
:101EF0009AE36093F7017093F8018093F90190934E
:101F0000FA0181E08093E40120C08A3099F487EEE1
:101F100091E00E94B4166AE471E087EE91E00E94BD
:101F20008A200E94B20D87EE91E00E94B4161092B2
:101F3000E6010BC093EF980F9A3010F48EE103C0C6
:101F40008E3119F48DE08093E501FF90EF90DF90E2
:101F5000CF90089581E08093E401E091E5018E2F18
:101F600090E0FC013197E930F10508F057C0E759DE
:101F7000FF4F0C944E246091240202C0609109022C
:101F800070E080E090E00E94471D6093F301709341
:101F9000F4018093F5019093F60140C060910A022C
:101FA000EFCF80910B0290910C02A0910D02B091A5
:101FB0000E022CC080910F0290911002A09111028C
:101FC000B091120223C08091130290911402A0914B
:101FD0001502B09116021AC0809117029091180252
:101FE000A0911902B0911A0211C080911B02909128
:101FF0001C02A0911D02B0911E0208C080911F0218
:1020000090912002A0912102B09122028093F301CD
:102010009093F401A093F501B093F60180E090E075
:10202000A0E8BFE38093F7019093F801A093F90132
:10203000B093FA010895CF92DF92EF92FF92CF937F
:10204000DF938091E5018A30E1F41092FC01109257
:10205000FD011092FE011092FF01109200021092F9
:1020600001021092020210920302109204021092D6
:102070000502109206021092070281E08093E401AB
:102080007BC081110AC0C1E0C093E401C093E501A7
:102090000E94AA0FC09308026FC09FEF980F9A305A
:1020A00008F059C091E09093E401813019F5C1E046
:1020B000D0E020E030E040E85FE36091F301709110
:1020C000F4018091F5019091F6010E949A1C811112
:1020D00002C0C0E0D0E0BE01DD0F880B990B0E946A
:1020E000491D6093F3017093F4018093F50190937F
:1020F000F60142C02091F7013091F8014091F901B9
:102100005091FA016091F3017091F4018091F50111
:102110009091F6010E942D1C6B017C0120E030E0C3
:10212000A9010E949A1C87FD09C0C092F301D092B8
:10213000F401E092F501F092F6011EC080EF9FEFEE
:10214000A9E7B4E48093F3019093F401A093F5011F
:10215000B093F60111C023EF280F2A3030F48D30F0
:1021600009F496E19093E50107C08E3129F48DE0E2
:102170008093E5011092FB01DF91CF91FF90EF90EA
:10218000DF90CF9008951F93CF93DF93EC01162F2C
:102190006BE371E085E393E00E948A20133021F124
:1021A00068F41130C1F0123089F569E271E085E31D
:1021B00093E00E94B92060E074E030C01430E9F090
:1021C000153021F567E071E085E393E00E94B920C6
:1021D00060E07AE023C062E371E085E393E00E946F
:1021E000B92060E072E01AC06FE171E085E393E02E
:1021F0000E94B92060E076E011C064E171E085E3FF
:1022000093E00E94B92060E078E008C068EF70E0D9
:1022100085E393E00E94B92060E070E0CE01DF9199
:10222000CF911F910C94C515CF93DF93CBEFD1E0E5
:102230006F858CE692E00E94C310EF8584E0E89FF2
:10224000F0011124E15DFE4F20E030E04AE754E464
:1022500060817181828193810E949F1C60934701FC
:10226000709348018093490190934A01DF91CF9187
:102270000895CF93DF93CBEFD1E06E8587E692E0B0
:102280000E94C310EE8584E0E89FF0011124E15D17
:10229000FE4F20E030E04AE754E4608171818281A2
:1022A00093810E949F1C60934B0170934C0180931B
:1022B0004D0190934E01DF91CF91089526E040E8C3
:1022C00055E260E070E085E393E00E94471F6FE510
:1022D00074E085E393E00E94B92060E070E08CE652
:1022E00092E00E94C5158CE692E00E94C11560E064
:1022F00070E087E692E00E94C51587E692E00E94B2
:10230000C11587EE91E00E94621787EE91E00E946E
:102310006E1687EE91E00E94B41663E574E085E3E3
:1023200093E00E94B92065EE72E086E492E00E949C
:102330009F1760E57FE086E492E00E94A3176EE1BC
:1023400070E086E492E00E94931768EC70E086E407
:1023500092E00E94971768EE73E086E492E00E9494
:102360009B1762E474E085E393E00E94B9206BE17F
:1023700070E185E292E00E949F1769E175E185E2D4
:1023800092E00E94A3176EE170E085E292E00E9465
:10239000931768EC70E085E292E00E94971768EE70
:1023A00073E085E292E00E949B1761E374E085E3AD
:1023B00093E00E94B92087E290E00E945424853681
:1023C00009F459C060E086E290E00E94622460E077
:1023D00085E290E00E94622460E084E290E00E9446
:1023E000622440E050E0BA0180E290E00E94742450
:1023F00040E050E0BA018CE190E00E94742440E09B
:1024000050E0BA0188E190E00E94742440E050E07E
:10241000BA0184E190E00E94742440E050E0BA01E7
:1024200080E190E00E94742440E050E0BA018CE02A
:1024300090E00E94742440E050E0BA0188E090E00F
:102440000E94742440E050E0BA0184E090E00E94D1
:10245000742440E050E0BA0180E090E00E947424CF
:1024600065E687E290E00E94622466E174E085E31D
:1024700093E00E94B92085E290E00E94542480936A
:10248000090284E290E00E94542480930A0286E2CA
:1024900090E00E94542491E0811101C090E090935B
:1024A000240280E290E00E945C246093FC0170931F
:1024B000FD018093FE019093FF018CE190E00E946A
:1024C0005C24609300027093010280930202909357
:1024D000030288E190E00E945C2460930402709300
:1024E0000502809306029093070284E190E00E9427
:1024F0005C2460930B0270930C0280930D02909306
:102500000E0280E190E00E945C2460930F027093C1
:10251000100280931102909312028CE090E00E94CE
:102520005C246093130270931402809315029093BD
:10253000160288E090E00E945C246093170270937A
:1025400018028093190290931A0284E090E00E948E
:102550005C2460931B0270931C0280931D02909375
:102560001E0280E090E00E945C2460931F02709342
:102570002002809321029093220267E074E085E3B9
:1025800093E00E94B92060E074E085E393E00E944C
:102590008A204AE050E06091090285E393E00E94BE
:1025A00021216DEF73E085E393E00E94B92066EF8F
:1025B00073E085E393E00E948A204AE050E0609156
:1025C0000A0285E393E00E94212163EF73E085E333
:1025D00093E00E94B9206CEE73E085E393E00E94E3
:1025E0008A206091240270E04AE050E085E393E0A5
:1025F0000E94762169EE73E085E393E00E94B920A2
:1026000063EE73E085E393E00E948A204091FC0131
:102610005091FD016091FE017091FF012AE030E0D0
:1026200085E393E00E94582260EE73E085E393E037
:102630000E94B9206AED73E085E393E00E948A204E
:1026400040910002509101026091020270910302D8
:102650002AE030E085E393E00E94582267ED73E0C2
:1026600085E393E00E94B92061ED73E085E393E098
:102670000E948A2040910402509105026091060256
:10268000709107022AE030E085E393E00E9458222F
:102690006EEC73E085E393E00E94B92067EC73E091
:1026A00085E393E00E948A2040910B0250910C0236
:1026B00060910D0270910E0223E030E085E393E01B
:1026C0000E94582264EC73E085E393E00E94B920F5
:1026D0006DEB73E085E393E00E948A2040910F0246
:1026E00050911002609111027091120223E030E0CB
:1026F00085E393E00E9458226AEB73E085E393E060
:102700000E94B92063EB73E085E393E00E948A2086
:1027100040911302509114026091150270911602BB
:1027200023E030E085E393E00E94582260EB73E001
:1027300085E393E00E94B92069EA73E085E393E0C2
:102740000E948A204091170250911802609119024C
:1027500070911A0223E030E085E393E00E94582252
:1027600066EA73E085E393E00E94B9206FE973E0C5
:1027700085E393E00E948A2040911B0250911C0245
:1027800060911D0270911E0223E030E085E393E02A
:102790000E9458226CE973E085E393E00E94B9201F
:1027A00065E973E085E393E00E948A2040911F026F
:1027B00050912002609121027091220223E030E0CA
:1027C00085E393E00E94582262E973E085E393E099
:1027D0000E94B9200E9414110E9439110E94930294
:1027E00061E081E10E94922361E080E10E949223F6
:1027F00060E084E00E94922360E081E10E94CE23A9
:1028000060E080E10E94CE2384E00E94FD230197D6
:1028100099F481E08093230287EE91E00E94B41640
:1028200063E873E087EE91E00E948A2068EE73E02F
:1028300080E090E00E94E7228091E5018093E6012C
:102840000E94D30268E773E085E393E00E94B92019
:102850006CE673E085E393E00E94B9200E941707BD
:102860000C943C09CF93E091E5018E2F90E0FC01A0
:102870003197EA30F10508F0DAC0EE58FF4F0C94BA
:102880004E24C1E020E030E0A9016091F301709195
:10289000F4018091F5019091F6010E949A1C81113A
:1028A00001C0C0E0C09324026C2F86E290E012C009
:1028B0006091F3017091F4018091F5019091F6011E
:1028C0000E94181D609309020E943911609109024B
:1028D00085E290E0CF910C9462246091F3017091B5
:1028E000F4018091F5019091F6010E94181D60930A
:1028F0000A020E94141160910A0284E290E0EACF79
:102900004091FC015091FD016091FE017091FF0129
:1029100080E290E00E9474244091000250910102F4
:1029200060910202709103028CE190E00E94742495
:1029300040910402509105026091060270910702D5
:1029400088E190E071C04091F3015091F4016091F1
:10295000F5017091F60140930B0250930C026093C5
:102960000D0270930E0284E190E05EC04091F3018D
:102970005091F4016091F5017091F60140930F02BE
:1029800050931002609311027093120280E190E064
:102990004BC04091F3015091F4016091F5017091A9
:1029A000F601409313025093140260931502709342
:1029B00016028CE090E038C04091F3015091F40190
:1029C0006091F5017091F60140931702509318023F
:1029D0006093190270931A0288E090E025C040913C
:1029E000F3015091F4016091F5017091F60140936B
:1029F0001B0250931C0260931D0270931E0284E020
:102A000090E012C04091F3015091F4016091F50102
:102A10007091F60140931F025093200260932102AF
:102A20007093220280E090E0CF910C947424CF91B7
:102A30000895CF9380911601882379F060E080E1BA
:102A40000E94CE23109216011092170110921801C5
:102A50001092190110921A013EC0C091E501CC23D9
:102A6000D1F1CD30A1F41092110110921001109209
:102A700013011092120110921501109214010E947C
:102A8000D302C093E50181E08093E40124C08091EA
:102A90000802882389F0CA3029F40E943214CF91A9
:102AA0000C9493020E9432148091E5018F5F809311
:102AB000E501CF910C94AA0F61E471E085E393E006
:102AC0000E94B9201092FB01C1E0C093E5010E9471
:102AD000AA0FC0930802CF910895CF93DF9368E4C3
:102AE0008CE692E00E94B91569E487E692E00E94C4
:102AF000B91521E040E050E06EE070E086E492E03D
:102B00000E94641721E040E050E06FE070E085E251
:102B100092E00E946417CBEFD1E0188219821A82EA
:102B20001B821C821D821E821F82188619861A86AD
:102B30001B861C861E861F868CE0EDE8F1E0ABE06C
:102B4000B2E001900D928A95E1F78CE0EDE8F1E0BA
:102B5000A7E1B2E001900D928A95E1F718A619A6B7
:102B600022E040E167E287EE91E0DF91CF910C94A3
:102B70004B16FC0114821382608388E081831282E9
:102B800008958FED92E00C94901BFC017483638395
:102B900008951F93CF93DF93162FEA01682F8FEDCF
:102BA00092E00E94A21B612F8FED92E00E94511BC8
:102BB0006D2F8FED92E00E94511B6C2F8FED92E0F4
:102BC0000E94511B8FED92E0DF91CF911F910C94E9
:102BD000261C1F93CF93DF93182F682F8FED92E061
:102BE0000E94A21B60E08FED92E00E94511B8FEDCE
:102BF00092E00E94261C42E0612F8FED92E00E943D
:102C0000231C8FED92E00E94CA1A182F8FED92E0DC
:102C10000E94CA1AD12F20E0C22F9E01282BC90181
:102C2000DF91CF911F910895CF93DF93643050F5DA
:102C3000FC0143815481623051F0633059F06130BE
:102C400019F04368516408C04368516505C0436882
:102C5000516602C043685167EC01506861E08881A9
:102C60000E94C915698170E080E090E00E94E7222F
:102C700088810E94E9150A8002C0969587950A947A
:102C8000E2F702C080E090E0DF91CF91089580E00C
:102C900090E008950895FC011382128285EA91E084
:102CA00091838083648341872287138608951F93CD
:102CB000CF93DF93EC01162F6C818FED92E00E9491
:102CC000A21B6B85612B8FED92E00E94511B8FED53
:102CD00092E0DF91CF911F910C94261C28E0FC011B
:102CE000238760E00C9457160F931F93CF938C01AA
:102CF000C62F64600E94571681E090E00E94232353
:102D00006C2F6B7FC8010E94571682E390E0CF9131
:102D10001F910F910C9423231F93CF93DF93EC010A
:102D2000162F0E945716612FCE01DF91CF911F9170
:102D30000C9474160F931F93CF93DF938C01C62FBF
:102D4000D42F607F642B0E948C1680E1C89FB00155
:102D500011246D2BC801DF91CF911F910F910C941D
:102D60008C1640E00C949A1661E00E94B11680ED3A
:102D700097E00C94232362E00E94B11680ED97E067
:102D80000C942323CF93DF93CDB7DEB728970FB6EC
:102D9000F894DEBF0FBECDBF9C0188E0E9E9F1E009
:102DA000DE01119601900D928A95E1F7F901808577
:102DB000841710F44FEF480FFE013196E40FF11D18
:102DC000E40FF11D9081690F6068C90128960FB664
:102DD000F894DEBF0FBECDBFDF91CF910C94B1163A
:102DE000FC016681262F246026836C600C94B1164A
:102DF00041E00E949A1681E090E00895CF93DF931E
:102E0000EC01423018F08D8188608D834887222341
:102E100029F0413019F48D8184608D8362E370E084
:102E200080E090E00E94E7226B85CE010E94571659
:102E300068EE73E080E090E00E94E72260E3CE015C
:102E40000E948C1684E991E10E94232360E3CE0165
:102E50000E948C1684E991E10E94232360E3CE0155
:102E60000E948C1686E990E00E94232360E2CE0146
:102E70000E948C166D816062CE010E94B11684E0C2
:102E80008E83CE010E94F016CE010E94B41682E01D
:102E90008F8366E0CE010E94B116CE01DF91CF9103
:102EA0000C94BB16CF93DF93EC018FED92E00E9460
:102EB000901B1D8220E04A856985CE01DF91CF916C
:102EC0000C94FE160C945217FC01862FA2E3B0E07E
:102ED000B383A283A8E5B2E0B583A483A8EEB3E0F0
:102EE000B783A68312861486138616861586108AE3
:102EF0001786128A118A148A138A168A158A108EE6
:102F0000178A60837183452B19F01186108604C0DF
:102F100041E050E051874087222311F062E001C078
:102F200060E00C949223FC01738362830895FC019A
:102F3000758364830895FC01778366830895FC019B
:102F4000748763870895FC01728B618B0895CF921B
:102F5000DF92EF92FF921F93CF93DF93EC01162F36
:102F60000E94B6226B017C018F89988D009731F405
:102F7000112309F4BCC081E090E078C08130910554
:102F8000D9F5898D9A8DAB8DBC8DB701A601481BF3
:102F9000590B6A0B7B0B11110FC08A819B81A0E03A
:102FA000B0E0481759076A077B0718F4188E1F8A84
:102FB0009EC082E090E01DC08E819F81A0E0B0E0C5
:102FC00084179507A607B70708F091C081E08A87A4
:102FD000EF85F889309709F00995E989FA893097E2
:102FE00009F00995ED89FE89309709F0099586E089
:102FF00090E0988F8F8B68C082309105F1F58D85B8
:103000009E85892B99F0898D9A8DAB8DBC8DB701EA
:10301000A601481B590B6A0B7B0B8C819D81A0E09C
:10302000B0E084179507A607B70738F4EB85FC8551
:10303000309709F4BBCF0995B9CF112309F457C0D4
:103040008D8D9E8DAF8DB8A1B701A601481B590B80
:103050006A0B7B0B8A819B81A0E0B0E08417950707
:10306000A607B70708F043C083E090E0988F8F8BE6
:10307000C98EDA8EEB8EFC8E3AC083309105C1F496
:10308000111135C0898D9A8DAB8DBC8DB701A6010C
:10309000481B590B6A0B7B0B8A819B81A0E0B0E037
:1030A00084179507A607B70710F5ED85FE8507C0BD
:1030B0000697E9F411110DC01A86EB89FC89309747
:1030C00009F00995188E1F8ACD8EDE8EEF8EF8A23C
:1030D0000EC081E08A87ED89FE89309741F0DF914B
:1030E000CF911F91FF90EF90DF90CF900994DF91E7
:1030F000CF911F91FF90EF90DF90CF900895CF93E5
:10310000DF93EC018881998197FD0EC00E94FD2319
:1031100061E0288539852817390709F060E0CE017C
:10312000DF91CF910C94A717DF91CF910895109262
:10313000DE0281E08093DC021092DB0261E082E13A
:103140000E94CE2361E083E10E94CE23E9EBF0E010
:1031500080818E7F808380818D7F808388E48093CF
:10316000B80085E48093BC000895413208F043C064
:103170009091DE029111FCCF91E09093DE022093BA
:10318000DC022FEF209371021092B602240F2093DD
:10319000B5029093DD029091DD02880F892B809318
:1031A000DD028091DB02813061F41092DB028091BC
:1031B000DD028093BB008091BC0083FDF8CF85ECDD
:1031C00001C085EE8093BC008091DE028130E1F386
:1031D0008091B602841710F44091B602A7EBB2E0DA
:1031E000962FFB018E2F891B841718F48D918193E4
:1031F000F9CF842F089580E008950F93413208F0AD
:103200004AC09091DE029111FCCF32E03093DE0291
:103210000093DC023FEF309371021092B6024093AC
:10322000B502562FA7EBB2E0FB013E2F351B34173A
:1032300018F431913D93F9CF1092DD023091DD0207
:10324000880F832B8093DD028091DB02813061F453
:103250001092DB028091DD028093BB008091BC0064
:1032600083FDF8CF85EC01C085EE8093BC0022235E
:1032700021F08091DE028230D1F3809171028F3F84
:1032800079F080917102803241F080917102803337
:1032900031F094E005C091E003C092E001C093E0FA
:1032A000892F0F91089540919302262F30E0240F2B
:1032B000311D21323105DCF42091DE022430C9F4C5
:1032C000FC0180E090E0861758F430919302219140
:1032D000DC01AB56BD4FA30FB11D2C930196F3CF6C
:1032E00080919302680F6093930280E0089581E0DB
:1032F000089582E008959093D8028093D7020895AC
:103300009093DA028093D902089585ED8093BC00F2
:103310008091BC0084FDFCCF1092DE02089585EC04
:103320008093BC001092DE0208951F920F920FB698
:103330000F9211242F933F934F935F936F937F933B
:103340008F939F93AF93BF93EF93FF938091B900B7
:10335000887F803609F49EC078F5883209F45DC014
:1033600090F4803109F456C038F4882309F4F5C08C
:10337000883009F44FC0F5C0883109F44EC080325E
:1033800009F45FC0EEC0803409F46AC058F4803399
:1033900009F457C0883309F0E4C0809371020E9499
:1033A0008F19DFC0803509F44FC0883509F45DC03E
:1033B000883409F0D6C0D3C0883909F4C4C0A8F451
:1033C000883709F467C038F4883609F463C0803759
:1033D00009F460C0C6C0883809F4B5C0803909F462
:1033E0005FC0803809F0BDC05BC0803B09F483C07A
:1033F00038F4803A09F466C0883A09F47CC0B1C058
:10340000803C09F4A4C0883C09F4A1C0883B09F4BD
:1034100087C0A7C08091DD0210C09091B602809154
:10342000B502981770F5E091B60281E08E0F809397
:10343000B602F0E0E954FD4F80818093BB0085EC3B
:1034400083C0809371028BC0E091B60281E08E0F41
:103450008093B6028091BB00F0E0E954FD4F808379
:103460009091B6028091B5026BC0E091B60281E006
:103470008E0F8093B6028091BB00F0E0E954FD4FBF
:1034800080838091DC0281116AC081E08093DB023D
:1034900084EA5EC083E08093DE0210927202CFCF96
:1034A00080917202803208F04EC0E091720281E099
:1034B0008E0F809372028091BB00F0E0ED58FD4FBB
:1034C0008083BDCF0E948F1980917202803230F4C8
:1034D000E0917202F0E0ED58FD4F108260917202AF
:1034E00070E0E091D702F091D80283E792E009956D
:1034F0001092720236C084E08093DE021092940231
:1035000010929302E091D902F091DA02099580912C
:103510009302811105C081E080939302109295027D
:10352000E091940281E08E0F80939402F0E0EB56DC
:10353000FD4F80818093BB00909194028091930213
:10354000981708F47CCF85E88093BC000AC085EC0E
:103550008093BC001092DE0204C0109271020E949F
:103560008519FF91EF91BF91AF919F918F917F91BD
:103570006F915F914F913F912F910F900FBE0F90E0
:103580001F9018958091130390E020911403821BE3
:10359000910908959091140380911303981750F4A2
:1035A000E92FF0E0EB5EFC4F208130E09F5F9093CD
:1035B000140302C02FEF3FEFC9010895E0911403F7
:1035C00080911303E81730F4F0E0EB5EFC4F80814C
:1035D00090E008958FEF9FEF08950895CF93DF93C4
:1035E000EC01E091EB02F091EC023097F1F0909158
:1035F0001403809113039817C0F090E0292F30E056
:103600002617370754F4DE01A20FB31F4C91D901DE
:10361000AB5EBC4F4C939F5FF1CF1092140360934D
:103620001303CB01DF91CF910994DF91CF910895DE
:10363000E091ED02F091EE02309729F01092F10244
:103640001092F00209940895CF92DF92EF92FF92C8
:103650000F931F93CF93DF937C01CB018A012091BD
:10366000EF02222389F0EB016B01C40ED51ECC15AD
:10367000DD0569F06991D701ED91FC910190F08130
:10368000E02DC7010995F3CF642F0E945319C8019B
:10369000DF91CF911F910F91FF90EF90DF90CF902E
:1036A0000895CF93DF931F92CDB7DEB76983209142
:1036B000EF022223D1F02091F002203240F021E0ED
:1036C00030E0FC013383228380E090E015C08091DC
:1036D000F102E82FF0E0EE50FD4F998190838F5F6B
:1036E0008093F1028093F00205C061E0CE01019663
:1036F0000E94531981E090E00F90DF91CF910895DF
:10370000FC011382128288EE93E0A0E0B0E0848393
:103710009583A683B78381EB91E09183808308959D
:1037200010921403109213031092F1021092F002FF
:103730000E94971888E19BE10E9480198EEE9AE121
:103740000C947B1981E08093EF0260931203109236
:10375000F1021092F00208950F93062F21E040919C
:10376000F00262EF72E0809112030E94FD18109245
:10377000F1021092F0021092EF020F9108954F9211
:103780005F926F927F92AF92BF92CF92EF92FF9231
:103790000F931F93CF93DF935C01F62ED42F280154
:1037A0003901EE2021F10E94A21BCE2DC43008F079
:1037B000C3E0C150C0F028E0C29FC0011124A301A2
:1037C000920104C056954795379527958A95D2F76B
:1037D000CA01B901D501ED91FC910190F081E02D74
:1037E000C5010995E6CF60E0C5010E94AC1B4D2FD5
:1037F000D13208F040E22C2D65E173E08F2D0E945C
:10380000B5181092140380931303DF91CF911F9189
:103810000F91FF90EF90CF90BF90AF907F906F90FF
:103820005F904F900895CF92EF920F931F93C22E07
:10383000E12C00E010E098010E94BF1B1F910F9146
:10384000EF90CF90089521E00C94131C61E00C944C
:10385000AC1B8FED92E00C94801B5058BB27AA271D
:103860000E94451C0C94BF1D0E94B11D38F00E949F
:10387000B81D20F039F49F3F19F426F40C94AE1DC6
:103880000EF4E095E7FB0C94A81DE92F0E94D01DD3
:1038900058F3BA17620773078407950720F079F485
:1038A000A6F50C94F21D0EF4E0950B2EBA2FA02D68
:1038B0000B01B90190010C01CA01A0011124FF27DD
:1038C000591B99F0593F50F4503E68F11A16F040D8
:1038D000A22F232F342F4427585FF3CF46953795D7
:1038E0002795A795F0405395C9F77EF41F16BA0B9C
:1038F000620B730B840BBAF09150A1F0FF0FBB1F4A
:10390000661F771F881FC2F70EC0BA0F621F731F92
:10391000841F48F4879577956795B795F7959E3FEF
:1039200008F0B0CF9395880F08F09927EE0F979580
:10393000879508950E94841D08F481E008950E94EF
:10394000B31C0C94BF1D0E94B81D58F00E94B11DFD
:1039500040F029F45F3F29F00C94A81D51110C94FC
:10396000F31D0C94AE1D0E94D01D68F39923B1F392
:10397000552391F3951B550BBB27AA276217730795
:10398000840738F09F5F5F4F220F331F441FAA1F29
:10399000A9F335D00E2E3AF0E0E832D091505040E5
:1039A000E695001CCAF72BD0FE2F29D0660F771F93
:1039B000881FBB1F261737074807AB07B0E809F079
:1039C000BB0B802DBF01FF2793585F4F3AF09E3FFE
:1039D000510578F00C94A81D0C94F31D5F3FE4F39F
:1039E000983ED4F3869577956795B795F7959F5F41
:1039F000C9F7880F911D9695879597F90895E1E08D
:103A0000660F771F881FBB1F621773078407BA07EB
:103A100020F0621B730B840BBA0BEE1F88F7E09546
:103A200008950E94181D6894B1110C94F31D089517
:103A30000E94D81D88F09F5798F0B92F9927B75149
:103A4000B0F0E1F0660F771F881F991F1AF0BA9542
:103A5000C9F714C0B13091F00E94F21DB1E0089591
:103A60000C94F21D672F782F8827B85F39F0B93F83
:103A7000CCF3869577956795B395D9F73EF49095F5
:103A80008095709561957F4F8F4F9F4F0895E89473
:103A900009C097FB3EF490958095709561957F4F96
:103AA0008F4F9F4F9923A9F0F92F96E9BB27939544
:103AB000F695879577956795B795F111F8CFFAF454
:103AC000BB0F11F460FF1BC06F5F7F4F8F4F9F4F85
:103AD00016C0882311F096E911C0772321F09EE8E3
:103AE000872F762F05C0662371F096E8862F70E049
:103AF00060E02AF09A95660F771F881FDAF7880F23
:103B00009695879597F90895990F0008550FAA0B78
:103B1000E0E8FEEF16161706E807F907C0F01216E0
:103B20001306E407F50798F0621B730B840B950BE3
:103B300039F40A2661F0232B242B252B21F4089538
:103B40000A2609F4A140A6958FEF811D811D0895D5
:103B500097F99F6780E870E060E008959FEF80EC40
:103B6000089500240A9416161706180609060895E3
:103B700000240A9412161306140605060895092E49
:103B80000394000C11F4882352F0BB0F40F4BF2BB8
:103B900011F460FF04C06F5F7F4F8F4F9F4F0895F8
:103BA00057FD9058440F551F59F05F3F71F04795EE
:103BB000880F97FB991F61F09F3F79F087950895D3
:103BC000121613061406551FF2CF4695F1DF08C0F2
:103BD000161617061806991FF1CF8695710561050F
:103BE00008940895E894BB2766277727CB0197F9B7
:103BF00008950E94841D08F48FEF08950E94111EFD
:103C00000C94BF1D0E94B11D38F00E94B81D20F019
:103C1000952311F00C94A81D0C94AE1D11240C9446
:103C2000F31D0E94D01D70F3959FC1F3950F50E0D6
:103C3000551F629FF001729FBB27F00DB11D639F5E
:103C4000AA27F00DB11DAA1F649F6627B00DA11D04
:103C5000661F829F2227B00DA11D621F739FB00DAA
:103C6000A11D621F839FA00D611D221F749F33271A
:103C7000A00D611D231F849F600D211D822F762FB3
:103C80006A2F11249F5750409AF0F1F088234AF090
:103C9000EE0FFF1FBB1F661F771F881F91505040FC
:103CA000A9F79E3F510580F00C94A81D0C94F31DBC
:103CB0005F3FE4F3983ED4F3869577956795B79583
:103CC000F795E7959F5FC1F7FE2B880F911D96959D
:103CD000879597F90895FC01918D228D892F90E0A9
:103CE000805C9F4F821B91098F7399270895FC0177
:103CF000918D828D981731F0828DE80FF11D858DA1
:103D000090E008958FEF9FEF0895FC01918D828DD3
:103D1000981761F0828DDF01A80FB11D5D968C911F
:103D2000928D9F5F9F73928F90E008958FEF9FEF2A
:103D30000895FC01538D448D252F30E0842F90E0B1
:103D4000821B930B541710F0CF9608950197089596
:103D500084E090E2892B49F080E090E0892B29F003
:103D60000E94042081110C9400000895FC01848DB0
:103D7000DF01A80FB11DA35ABF4F2C91848D90E095
:103D800001968F739927848FA689B7892C93A08970
:103D9000B1898C91837080648C93938D848D9813FA
:103DA00006C00288F389E02D80818F7D808308958D
:103DB000EF92FF920F931F93CF93DF93EC0181E07B
:103DC000888F9B8D8C8D981305C0E889F989808137
:103DD00085FD26C0F62E0B8D10E00F5F1F4F0F7371
:103DE0001127E02E8C8DE8120CC00FB607FCFACF1D
:103DF000E889F989808185FFF5CFCE010E94B61E42
:103E0000F1CF8B8DFE01E80FF11DE35AFF4FF082D9
:103E10009FB7F8940B8FEA89FB89808180620AC082
:103E20009FB7F894EE89FF896083E889F9898081DA
:103E30008370806480839FBF81E090E0DF91CF91A9
:103E40001F910F91FF90EF900895CF93DF93EC01B6
:103E5000888D8823C9F0EA89FB89808185FD05C0AA
:103E6000A889B9898C9186FD0FC00FB607FCF5CFE4
:103E7000808185FFF2CFA889B9898C9185FFEDCF2C
:103E8000CE010E94B61EE7CFDF91CF910895CF9269
:103E9000DF92EF92FF921F93CF93DF93EC016A01C1
:103EA0007B01122FE889F98982E080834115514E08
:103EB00061057105B1F060E079E08DE390E0A70164
:103EC00096010E942C24DA01C9010197A109B109C8
:103ED000B695A795979587959C01211580E13807A0
:103EE000A8F0E889F989108260E874E88EE190E032
:103EF000A70196010E942C24DA01C9010197A109AA
:103F0000B109B695A795979587959C01EC85FD8598
:103F10003083EE85FF852083188EEC89FD89108320
:103F2000EA89FB89808180618083EA89FB898081BD
:103F300088608083EA89FB89808180688083EA8940
:103F4000FB8980818F7D8083DF91CF911F91FF90CE
:103F5000EF90DF90CF9008951F920F920FB60F92BF
:103F600011242F938F939F93EF93FF93E091450339
:103F7000F09146038081E0914B03F0914C0382FD68
:103F800012C0908180914E038F5F8F7320914F03F9
:103F9000821751F0E0914E03F0E0EB5CFC4F958FFF
:103FA00080934E0301C08081FF91EF919F918F918B
:103FB0002F910F900FBE0F901F9018951F920F9288
:103FC0000FB60F9211242F933F934F935F936F93EC
:103FD0007F938F939F93AF93BF93EF93FF9385E36B
:103FE00093E00E94B61EFF91EF91BF91AF919F9118
:103FF0008F917F916F915F914F913F912F910F9092
:104000000FBE0F901F90189585E393E00E946B1EE2
:1040100021E0892B09F420E0822F0895E5E3F3E005
:104020001382128288EE93E0A0E0B0E0848395834F
:10403000A683B78383EC91E09183808385EC90E045
:104040009587848784EC90E09787868780EC90E062
:10405000918B808B81EC90E0938B828B82EC90E053
:10406000958B848B86EC90E0978B868B118E128ECD
:10407000138E148E089508950E942E230E943B20D3
:104080000E945E11C8EADEE10E94DF0A2097E1F398
:104090000E94A81EF9CFCF92DF92EF92FF920F936A
:1040A0001F93CF93DF936C017A018B01C0E0D0E0C6
:1040B000CE15DF0581F0D8016D918D01D601ED910E
:1040C000FC910190F081E02DC6010995892B11F03A
:1040D0002196EECF7E01C701DF91CF911F910F9105
:1040E000FF90EF90DF90CF9008956115710579F002
:1040F000FB0101900020E9F73197AF01461B570BF8
:10410000DC01ED91FC910280F381E02D099480E0C7
:1041100090E00895EF92FF920F931F93CF93DF9358
:104120008C017B01C0E0D0E0F701EC0FFD1F649132
:10413000662361F0D801ED91FC910190F081E02DB2
:10414000C8010995892B11F02196EECFCE01DF91A0
:10415000CF911F910F91FF90EF900895DC01ED91A9
:10416000FC910190F081E02D099461ED71E00C94D7
:1041700075200F931F93CF93DF93EC010E948A2049
:104180008C01CE010E94B520800F911FDF91CF914D
:104190001F910F9108958F929F92AF92BF92EF92CD
:1041A000FF920F931F93CF93DF93CDB7DEB7A19705
:1041B0000FB6F894DEBF0FBECDBF7C01FA01CB0174
:1041C00019A2223008F42AE08E010F5D1F4F822EC3
:1041D000912CA12CB12CBF01A50194010E942C248B
:1041E000F901CA01015011096A3010F4605D01C083
:1041F000695CD8016C93232B242B252B61F7B80124
:10420000C7010E947520A1960FB6F894DEBF0FBEBD
:10421000CDBFDF91CF911F910F91FF90EF90BF9095
:10422000AF909F908F9008952115310541F4DC01E6
:10423000ED91FC910190F081E02D642F09940C9494
:10424000CB209A01462F50E060E070E00C941421DE
:104250009A01AB0160E070E00C941421CF92DF92E0
:10426000EF92FF920F931F93CF93DF9321153105A8
:1042700081F4DC01ED91FC910190F081E02D642F3F
:10428000DF91CF911F910F91FF90EF90DF90CF9032
:1042900009942A30310501F577FF1DC06A017B01C1
:1042A000EC016DE20E94AE208C0144275527BA0133
:1042B0004C195D096E097F092AE0CE010E94CB20CE
:1042C000800F911FDF91CF911F910F91FF90EF9081
:1042D000DF90CF9008952AE0DF91CF911F910F9149
:1042E000FF90EF90DF90CF900C94CB209A01AB0120
:1042F000770F660B770B0C942E217F928F929F92F3
:10430000AF92BF92CF92DF92EF92FF920F931F93E3
:10431000CF93DF938C016A017B01722E9A01AB016E
:10432000C701B6010E942724882319F064ED71E0CB
:1043300027C046015701E894B7F82FEF3FEF4FE74A
:104340005FE7C501B4010E94272481110DC02FEF42
:104350003FEF4FE75FE7C501B4010E949A1C1816B2
:104360001CF468ED71E00CC02FEF3FEF4FE75FE406
:10437000C701B6010E94F91D181694F46CED71E0A6
:10438000C801DF91CF911F910F91FF90EF90DF90C7
:10439000CF90BF90AF909F908F907F900C9475209E
:1043A0002FEF3FEF4FE75FECC701B6010E949A1C69
:1043B00087FDE4CF20E030E0A901C701B6010E94EB
:1043C0009A1C87FF0AC06DE2C8010E94AE20EC0172
:1043D000F7FAF094F7F8F09402C0C0E0D0E0B12C06
:1043E00060E070E080E09FE37B1441F020E030E08B
:1043F00040E251E40E949F1CB394F6CFA7019601BE
:104400000E942E1C6B017C010E94181D4B015C0157
:104410002AE0AB01BC01C8010E94CB20C80FD91F04
:104420007720B9F1C501B4010E94471D9B01AC0181
:10443000C701B6010E942D1C6B017C016EE2C80110
:104440000E94AE20C80FD91F20E030E040E251E4C6
:10445000C701B6010E94FE1D4B015C010E94181DA0
:104460006B017C014AE050E0C8010E942821C80F7E
:10447000D91FB60180E090E00E94471D9B01AC016E
:10448000C501B4010E942D1C6B017C017A9471104E
:10449000DBCFCE01DF91CF911F910F91FF90EF9075
:1044A000DF90CF90BF90AF909F908F907F900895B6
:1044B0000C947D210F931F93CF93DF93EC010E9407
:1044C0007D218C01CE010E94B520800F911FDF91CC
:1044D000CF911F910F9108951F920F920FB60F92D7
:1044E00011242F933F938F939F93AF93BF9380910A
:1044F000D3039091D403A091D503B091D60330910A
:10450000D20323E0230F2D3720F40196A11DB11D06
:1045100005C026E8230F0296A11DB11D2093D203EA
:104520008093D3039093D403A093D503B093D60381
:104530008091D7039091D803A091D903B091DA0369
:104540000196A11DB11D8093D7039093D803A0932A
:10455000D903B093DA03BF91AF919F918F913F91AF
:104560002F910F900FBE0F901F9018952FB7F894B2
:104570006091D3037091D4038091D5039091D603B9
:104580002FBF08953FB7F8948091D7039091D80337
:10459000A091D903B091DA0326B5A89B05C02F3F9F
:1045A00019F00196A11DB11D3FBFBA2FA92F982F59
:1045B0008827820F911DA11DB11DBC01CD0142E0D4
:1045C000660F771F881F991F4A95D1F708958F921C
:1045D0009F92AF92BF92CF92DF92EF92FF926B01C8
:1045E0007C010E94C2224B015C01C114D104E10490
:1045F000F10401F10E9426240E94C222DC01CB01B9
:1046000088199909AA09BB09883E9340A105B105FB
:1046100060F321E0C21AD108E108F10888EE880EA3
:1046200083E0981EA11CB11CC114D104E104F10463
:1046300019F7DBCFFF90EF90DF90CF90BF90AF9056
:104640009F908F9008958230910538F0880F991FC0
:10465000880F991F05970197F1F70895789484B50D
:10466000826084BD84B5816084BD85B5826085BD6E
:1046700085B5816085BDEEE6F0E080818160808354
:10468000E1E8F0E010828081826080838081816037
:104690008083E0E8F0E0808181608083E1EBF0E0FE
:1046A000808184608083E0EBF0E0808181608083A2
:1046B000EAE7F0E08081846080838081826080838B
:1046C0008081816080838081806880831092C100B6
:1046D0000895833081F028F4813099F08230A1F080
:1046E00008958730A9F08830B9F08430D1F48091F2
:1046F00080008F7D03C0809180008F778093800041
:10470000089584B58F7702C084B58F7D84BD0895E8
:104710008091B0008F7703C08091B0008F7D80932F
:10472000B0000895CF93DF9390E0FC01EB57FB4F6F
:104730002491FC01E756FB4F8491882361F190E0BE
:10474000880F991FFC01EF53FB4FC591D491FC01D9
:10475000E954FB4FA591B491611109C09FB7F8943A
:104760008881209582238883EC912E230BC06230B0
:1047700061F49FB7F8948881322F30958323888322
:10478000EC912E2B2C939FBF06C08FB7F894E88135
:104790002E2B28838FBFDF91CF9108951F93CF9346
:1047A000DF93282F30E0F901EF58FB4F8491F90196
:1047B000EB57FB4FD491F901E756FB4FC491CC2343
:1047C000C1F0162F81110E946923EC2FF0E0EE0F4B
:1047D000FF1FE954FB4FA591B4919FB7F8941111B5
:1047E00004C08C91D095D82302C0EC91DE2BDC93D1
:1047F0009FBFDF91CF911F910895CF93DF93282F13
:1048000030E0F901EF58FB4F8491F901EB57FB4F72
:10481000D491F901E756FB4FC491CC2391F081115B
:104820000E946923EC2FF0E0EE0FFF1FE355FB4FD2
:10483000A591B491EC91ED2381E090E021F480E02A
:1048400002C080E090E0DF91CF91089508950E942A
:10485000841D880B990B0895A1E21A2EAA1BBB1B7D
:10486000FD010DC0AA1FBB1FEE1FFF1FA217B3073C
:10487000E407F50720F0A21BB30BE40BF50B661F52
:10488000771F881F991F1A9469F760957095809516
:1048900090959B01AC01BD01CF010895EE0FFF1F64
:1048A0000590F491E02D0994F999FECF92BD81BD58
:1048B000F89A992780B50895A6E1B0E044E050E069
:1048C0000C948224262FF999FECF92BD81BDF89ACF
:1048D000019700B4021639F01FBA20BD0FB6F89444
:1048E000FA9AF99A0FBE08950396272F0E9463241F
:1048F0000E946224252F0E946324242F0C94632499
:10490000DC01CB01FC01F999FECF06C0F2BDE1BD8F
:10491000F89A319600B40D9241505040B8F708957E
:04492000F894FFCF39
:104924000000000000000000000000000000000083
:1049340000000000000000000000009A99593F00A8
:1049440000803F00000000000000000000000000A4
:1049540000403E0000003E0000803D0000003D009D
:1049640000803C0000003CA69B4439A69B443900CF
:104974000000000000000000000000000000000033
:104984000000000000000000000000000000000023
:104994000000000000000000000000000000000013
:1049A40000000000000000000000003C0100008046
:1049B4003F0000803F0000803F000040001400548E
:1049C4000000000000F8164B2047164A16000000AD
:1049D40000511B241B4716ED1AC21ACA1ADE1A000C
:1049E400000000D81E4B20991E251F6B1E851E77C4
:1049F4001E0D0A006E616E00696E66006F766600B9
:00000001FF
