S00C00006D61696E2E7372656373
S11300000C9456020C947E020C947E020C947E0294
S11300100C947E020C947E020C947E020C947E025C
S11300200C947E020C947E020C947E020C947E024C
S11300300C947E020C947E020C947E020C947E023C
S11300400C94E91E0C947E020C94051C0C94371C31
S11300500C947E020C947E020C947E020C947E021C
S11300600C94EE150C947E025207B506B806BB0636
S1130070C706CA06CD06D006D306D606BE06C106F6
S1130080C406D906000727072A072D0735073807AE
S11300903B074307F708140914091609160916093A
S11300A016091609160916091609160942095A09E4
S11300B072097409770979097B097D092A0C2D0CC9
S11300C03D0C5B0C640C6D0C760C7F0C880C400CA6
S11300D0490C520C54108710A010EC10FF10121190
S11300E0251138114B11B310C610D9102A2A4D65A9
S11300F061737572656D656E742053746F70656499
S113010021002A2A4D6561737572656D656E7420D0
S11301105374617274656421002000453D00563DAE
S113012000493D0025002B004D00500053657475B7
S113013070207265717569726564004F6F6F6F70BE
S113014073210042313D776F726B3B2042323D7325
S1130150746F70004D6561737572656D656E7400C2
S113016041430042430041420041430042430041B5
S1130170420065250049333D0049323D0049313D87
S11301800041433D0042433D0041423D0045436F31
S1130190756E7400416D20414300416D204243005F
S11301A0416D20414200566D20414300566D20426E
S11301B04300566D204142005233204143005232E5
S11301C02042430052312041420056206761696E4B
S11301D0206D6178562F73746570004120676169E2
S11301E06E206D6178562F7374657000436F6E6E68
S11301F0656374696F6E2074797065002B002B0041
S11302007800547269616E676C65005374617200A2
S1130210302E32353620302E3030373831323500FA
S1130220302E35313220302E3031353632350031F2
S11302302E30323420302E303331323500322E30ED
S1130240343820302E3036323500342E30393620D2
S1130250302E31323500362E31343420302E3138C0
S11302603735005741524E494E47212121204D65D3
S113027061737572656D656E742053746F70656417
S11302802049432045584953545321002D2D2D65B1
S11302906E642D2D2D002D2D2D006572726F722030
S11302A03D20007065726665637420616D706572CF
S11302B0616765203D20006D65617375726564201A
S11302C0616D706572616765203D20006D656173C5
S11302D07572656420766F6C74616765203D2000DB
S11302E07C0057696E64696E67207C004E656564A6
S11302F020736574757020706172616D730053743E
S1130300616E642062792E2E2E00436F6D706C65D1
S11303107465642100616D7065726167655F6D75F8
S11303206C745F61633A2000616D7065726167652A
S11303305F6D756C745F62633A2000616D70657205
S11303406167655F6D756C745F61623A2000766FFA
S11303506C746167655F6D756C745F61633A2000EE
S1130360766F6C746167655F6D756C745F62633A18
S11303702000766F6C746167655F6D756C745F6186
S1130380623A2000696D706564616E63655F6163E4
S11303903A2000696D706564616E63655F62633AFB
S11303A02000696D706564616E63655F61623A2007
S11303B000636F6E6E656374696F6E5F74797065E8
S11303C03A20006761696E5F766F6C746167653AA5
S11303D020006761696E5F616D7065726167653A7F
S11303E02000454550524F4D2076616C7565733A37
S11303F000454550524F4D206669727374207374E2
S11304006172742077726974656421004275747432
S11304106F6E203220696E697465642100427574C0
S1130420746F6E203120696E6974656421004C43D9
S11304304420696E697465642100496E6974696158
S11304406C697A6174696F6E2E2E2E0000000008AC
S11304500002010000030407000000000000000087
S11304600102040810204080010204081020010247
S11304700408102004040404040404040202020214
S11304800202030303030303000000002300260009
S1130490290000000000250028002B0000000000B7
S11304A0240027002A00C3118218671C11241FBED0
S11304B0CFEFD8E0DEBFCDBF11E0A0E0B1E0EEE1C8
S11304C0F2E402C005900D92A23BB107D9F723E0F4
S11304D0A2EBB1E001C01D92AA3CB207E1F712E021
S11304E0C6E5D2E004C02197FE010E94CB20C335AB
S11304F0D107C9F70E94951C0C940D210C9400009F
S1130500CF93DF93CDEED1E069917991899199915F
S113051020E030E0A9010E94F3188823E1F020E0F4
S113052030E0A9016F89788D898D9A8D0E94F31826
S1130530882389F020E030E0A9016B857C858D85D6
S11305409E850E94F318882331F081E0C93FD807C3
S1130550D9F681E001C080E01092F901882331F0DE
S113056085E18093B701DF91CF9108951092B7018F
S11305706CEE72E084E293E0DF91CF910C94121D53
S1130580E4E4F1E011921192119211921086118615
S11305901286138681E0E035F807A1F781E08093A5
S11305A05D010895CF92DF92EF92FF928091B7019F
S11305B096EF980F933008F4A2C09FEF980F9C30E9
S11305C008F07DC091E09093B601813001F520E000
S11305D030E0A9016091C5017091C6018091C70105
S11305E09091C8010E94F318882321F080E090E0E4
S11305F0DC0104C080E090E0A0E8BFE38093C50183
S11306009093C601A093C701B093C80178C08250EB
S1130610823038F5C090C501D090C601E090C70182
S1130620F090C80120E030E040EA50E4C701B60190
S11306300E94F318882349F020E030E040E85FE3AB
S1130640C701B6010E94871803C060E070E0CB01C7
S11306506093C5017093C6018093C7019093C8014C
S11306604EC02091C9013091CA014091CB015091F3
S1130670CC016091C5017091C6018091C701909130
S1130680C8010E9487186B017C0120E030E04AE732
S113069054E40E94521A87FF09C0C092C501D09247
S11306A0C601E092C701F092C80129C01092C501A9
S11306B01092C6011092C7011092C80120C093EF96
S11306C0980F983040F4843111F08F5F01C08DE0B1
S11306D08093B70114C0853191F48DE08093B70104
S11306E081E08093E70162E071E084E293E00E949C
S11306F0121DFF90EF90DF90CF900C94C002FF90FA
S1130700EF90DF90CF9008958F929F92AF92BF9217
S1130710CF92DF92EF92FF926B017C0184E0489FBD
S1130720F0011124E85CFE4F80809180A280B380A8
S1130730A7019601C501B4010E94521A87FF30C077
S1130740A5019401C701B6010E9486186B017C01C2
S113075020E030E0A9010E94521A18163CF420E06F
S113076030E048EC52E4C701B60107C0C701B60146
S1130770905820E030E048EC52E40E94571A6B0194
S11307807C012DEC3CEC4CE45EE3C501B4010E9419
S1130790571A9B01AC01C701B6010E94F81803C0A7
S11307A060E070E0CB01FF90EF90DF90CF90BF90BE
S11307B0AF909F908F9008954F925F926F927F9227
S11307C08F929F92AF92BF92CF92DF92EF92FF925D
S11307D00F931F93CF93DF93CDB7DEB760970FB618
S11307E0F894DEBF0FBECDBF19821A821B821C8211
S11307F01D821E821F82188619861A861B861C86F5
S11308007B012DEE822E21E0922E38E3A32E31E0DF
S1130810B32E6C018E010F5F1F4F3B018CE0680EFD
S1130820711CD7016D917D918D919D917D01F40194
S113083021913191419151914F010E94F818D501B4
S11308406D937D938D939D935D01F601219131917B
S1130850419151916F010E948618D8016D937D9347
S11308608D939D938D01E614F704D9F649805A803F
S11308706B807C808D809E80AF80B884A5019401BC
S1130880C301B2010E9486186B017C0120E030E0B4
S1130890A9010E94521A181624F0F7FAF094F7F8F6
S11308A0F09489859A85AB85BC858D879E87AF87B3
S11308B0B88B9C01AD01C501B4010E9486184B019F
S11308C05C0120E030E0A9010E94521A181624F0BD
S11308D0B7FAB094B7F8B094A5019401C701B60172
S11308E00E9487186B017C01A30192016D857E85AE
S11308F08F8598890E9486184B015C0120E030E0C6
S1130900A9010E94521A181624F0B7FAB094B7F845
S1130910B094A7019601C501B4010E9487186B0128
S11309207C012AE939E949E95FE30E94571A9B01EE
S1130930AC0111E0C701B6010E94F31818160CF4BB
S113094010E081E0812760960FB6F894DEBF0FBEF9
S1130950CDBFDF91CF911F910F91FF90EF90DF906A
S1130960CF90BF90AF909F908F907F906F905F904B
S11309704F9008952F923F924F925F926F927F9281
S11309808F929F92AF92BF92CF92DF92EF92FF929B
S11309900F931F93CF93DF93CDB7DEB7A5970FB611
S11309A0F894DEBF0FBECDBF1D861E861F86188A33
S11309B0198A1A8A1B8A1C8A1D8A1E8A1F8A188E03
S11309C019821A821B821C821D821E821F82188633
S11309D019861A861B861C866E012DE0C20ED11C58
S11309E0CE0101967C014C01360110E0612F8BE5AC
S11309F092E00E946D12BC0180E090E00E94A01978
S1130A00D3016D937D938D939D933D01612F86E575
S1130A1092E00E946D12BC0180E090E00E94A01957
S1130A20F40161937193819391934F011F5F13308C
S1130A30E9F68091180190911901A0911A01B091E1
S1130A401B018E8F9F8FA8A3B9A380911C01909145
S1130A501D01A0911E01B0911F018AA39BA3ACA309
S1130A60BDA300E211E0A7EEB1E0BA8FA98FDD8E3D
S1130A70CC8E1701B3E0BB8FF60181909190A190C9
S1130A80B1906F01A5019401D80194966D917D9167
S1130A908D919C9197970E948718F80164A375A380
S1130AA086A397A3D1014D905D906D907C90A30196
S1130AB0920160A971A982A993A90E948718F801DB
S1130AC060AB71AB82AB93ABA98DBA8D91962D912E
S1130AD03D914D915C9194976E8D7F8D88A199A1E4
S1130AE00E94571AA50194010E94571AEC8DFD8D9E
S1130AF06193719381939193FD8FEC8FA98DBA8D3E
S1130B0055962D913D914D915C9158976AA17BA189
S1130B108CA19DA10E94571AA30192010E94571A09
S1130B20F10161937193819391931F01FB8DF150B6
S1130B30FB8F0C5F1F4F898D9A8D04969A8F898F36
S1130B40F1119ACF0DEC11E0D12CBE01635F7F4F00
S1130B50CE0101960E94DC038823D9F0D7016D9160
S1130B607D918D919C914D2D0E94840320E030E075
S1130B7040EA51E40E94521A87FD0BC0F8018485B3
S1130B809585A685B785883EF3E09F07A105B10545
S1130B9010F1D39424E0E20EF11C0C5F1F4F83E0AC
S1130BA0D812D3CFA5960FB6F894DEBF0FBECDBF33
S1130BB0DF91CF911F910F91FF90EF90DF90CF9035
S1130BC0BF90AF909F908F907F906F905F904F9069
S1130BD03F902F9008950196A11DB11DF8018487BF
S1130BE09587A687B787D5CFCF92DF92EF92FF92F2
S1130BF024E0829FC0011124FC01E353FE4FC08016
S1130C00D180E280F38020E030E04AE754E4C70179
S1130C10B6010E94F31887FF24C020E030E0A90148
S1130C20C701B6010E94521A20E030E040E05FE3C1
S1130C3087FD05C0C701B6010E94871804C0C7011B
S1130C40B6010E9486180E946A192AE030E0AB01BE
S1130C50BC0189EB91E0FF90EF90DF90CF900C9472
S1130C60991D4AE050E067EE73E089EB91E00E9441
S1130C70E11D6EEF71E089EB91E0FF90EF90DF9062
S1130C80CF900C94E31C24E0829FC0011124FC014A
S1130C90E752FE4F4081518162817381483E83E077
S1130CA058076105710530F42AE030E089EB91E0E2
S1130CB00C946D1D4AE050E067EE73E089EB91E01F
S1130CC00E94E11D6CEF71E089EB91E00C94E31C50
S1130CD040E063E089EB91E00E941B136AE271E05B
S1130CE089EB91E00E94E31C41E060E089EB91E034
S1130CF00E941B1368E271E089EB91E00C94E31C01
S1130D0040E064E089EB91E00E941B1361E271E032
S1130D1089EB91E00E94E31C41E060E089EB91E003
S1130D200E941B136EE171E089EB91E00E94E31CC9
S1130D3041E068E089EB91E00E941B136BE171E0F4
S1130D4089EB91E00C94E31C89EB91E00E940D1374
S1130D50E091B7018E2F90E08631910508F0B4C080
S1130D60FC01EC5CFF4F0C94CB206CEE71E0A8C04E
S1130D706BED71E0A5C06AEC71E0A2C064EC71E0B7
S1130D809FC06EEB71E09CC068EB71E099C062EBB0
S1130D9071E096C06CEA71E093C066EA71E090C0BD
S1130DA060EA71E08DC06AE971E08AC064E971E0CB
S1130DB087C06DE871E089EB91E00E94E31C40E09C
S1130DC068E089EB91E00E941B1369E871E089EB0C
S1130DD091E00E94E31C41E060E089EB91E00E9415
S1130DE01B1365E871E089EB91E00E94E31C41E08C
S1130DF068E089EB91E00E941B1361E871E060C038
S1130E006DE771E089EB91E00E94E31C40E068E04B
S1130E1089EB91E00E941B1369E771E089EB91E093
S1130E200E94E31C41E060E089EB91E00E941B1307
S1130E3065E771E089EB91E00E94E31C41E06EE01C
S1130E4089EB91E00E941B1362E771E039C06FE601
S1130E5071E005C06CE671E002C069E671E089EBFF
S1130E6091E00E94E31C0C94680666E671E005C0FC
S1130E7063E671E002C060E671E089EB91E00E94F4
S1130E80E31C0C94800664E571E089EB91E00E9418
S1130E90E31C41E060E089EB91E00E941B1363E4F2
S1130EA071E00EC06BE371E089EB91E00E94E31CFA
S1130EB041E060E089EB91E00E941B136CE271E079
S1130EC089EB91E00C94E31C08950F931F93CF9347
S1130ED0DF93D82F162F042F462F682F89EB91E02C
S1130EE00E941B13C0E0C01741F069E171E089EB77
S1130EF091E00E94E31CCF5FF6CF412F6D2F89EB69
S1130F0091E0DF91CF911F910F910C941B1340E15D
S1130F1061E080E00E9465076091C5017091C6019F
S1130F208091C7019091C8010E946A1962307105CD
S1130F30B1F03CF46115710561F06130710561F047
S1130F4008956430710589F06CF06530710581F0A5
S1130F50089566E572E00EC06AE472E00BC06DE3CA
S1130F6072E008C06FE272E005C060E272E002C0A5
S1130F7060E172E089EB91E00C94E31CCF92DF9284
S1130F80EF92FF920F931F93CF93DF93C82F49E003
S1130F9060E086E00E946507D0E08E010D5F1F4F80
S1130FA0F801EE0FFF1FEE0FFF1FE05EFE4F20E083
S1130FB030E040E251E460817181828193810E943A
S1130FC0F318269687FD15C0FE01EE0FFF1FEE0FE6
S1130FD0FF1FE05EFE4F20E030E048EC52E4608109
S1130FE07181828193810E94F31887FD04C025E0FA
S1130FF003C029E001C028E030E0CC0FDD1FCC0F96
S1131000DD1FC05EDE4F488159816A817B8189EB97
S113101091E00E94D51E49E061E085E00E946507E9
S1131020000F111F000F111FF801E05EFE4FC0807A
S1131030D180E280F38020E030E040E251E4C70157
S1131040B6010E94F31887FD0CC020E030E048ECA4
S113105052E4C701B6010E94F31887FD04C025E0DD
S113106003C029E001C028E030E0B701A60189EB04
S113107091E0DF91CF911F910F91FF90EF90DF905E
S1131080CF900C94D51ECF92DF92EF92FF92CF9324
S1131090DF93C82F4AE060E086E00E946507D0E055
S11310A0FE01EE0FFF1FEE0FFF1FE45DFE4FC08039
S11310B0D180E280F38020E030E040E251E4C701D7
S11310C0B6010E94F31887FD0CC020E030E048EC24
S11310D052E4C701B6010E94F31887FD04C024E05E
S11310E003C028E001C027E030E0B701A60189EB86
S11310F091E00E94D51E48E061E082E00E9465070D
S1131100CC0FDD1FCC0FDD1FFE01E05EFE4FC08063
S1131110D180E280F38020E030E048EC52E4C70163
S1131120B6010E94F31887FD0CC020E030E04AE7C6
S113113054E4C701B6010E94F31887FF27C021E0D9
S113114001C022E030E0B701A60189EB91E00E94E2
S1131150D51E45E061E08AE00E946507C353DE4F77
S1131160488159816A817B8121E030E089EB91E0FB
S11311700E94D51E64E271E089EB91E0DF91CF918A
S1131180FF90EF90DF90CF900C94E31C4AE050E086
S113119067EE73E089EB91E00E94E11D66E271E085
S11311A089EB91E00E94E31CD4CF8091B701909128
S11311B0B801891739F08093B80181E08093B601B2
S11311C00E94A4068091B601882309F499C0109264
S11311D0B601E091B7018E2F90E0FC013197E43124
S11311E0F10508F08DC0E65BFF4F0C94CB2048E07E
S11311F061E080E00E94650720E030E0A901609191
S1131200C5017091C6018091C7019091C8010E94E7
S1131210F318811103C06BE072E002C062E072E077
S113122089EB91E00C94E31C0C94870748E060E0A0
S113123087E00E94650760E072E089EB91E00E941C
S1131240E31C4091C9015091CA016091CB01709196
S1131250CC0123E030E089EB91E00E94D51E40E10F
S113126061E080E00E9465074091C5015091C6018C
S11312706091C7017091C80123E030E089EB91E0EF
S11312800C94D51E44E060E08BE00E94650780E08A
S11312900E94430644E061E083E00E94650781E028
S11312A00E94430644E061E08BE00E94650782E00F
S11312B00C94430645E060E083E00E94650780E00B
S11312C00E94F40545E060E08BE00E94650781E040
S11312D00E94F40545E061E083E00E94650782E036
S11312E00C94F40580E001C081E00C94BE0782E018
S11312F0FCCF80E003C081E001C082E00C9443088D
S113130008952F923F924F925F926F927F928F92A5
S11313109F92AF92BF92CF92DF92EF92FF920F9380
S11313201F93CF93DF93CDB7DEB727970FB6F8940B
S1131330DEBF0FBECDBF85E392E00E94D81484E1E6
S113134092E00E94D8140E94D5088091E701882376
S113135009F471C10E94BA0480915D0190915C010D
S1131360891720F48F5F80935D0165C181E08093CC
S1131370B6010E94331F0091B2011091B301209174
S1131380B4013091B5012B013C01401A510A620AA3
S1131390730A20E231E03F832E8307EE11E08DECE7
S11313A091E09D838C831C01E1E0F0E0FB83EA8300
S11313B0198260915C0170E080E090E00E94A219C3
S11313C06B017C019B01AC01EE81FF8164A175A1DD
S11313D086A197A10E94F818209118013091190153
S11313E040911A0150911B010E94571AF801258956
S11313F036894789508D0E94571A4B015C01EE8152
S1131400FF816083718382839383A701960160A91E
S113141071A982A993A90E94F81820911C01309106
S11314201D0140911E0150911F010E94571AF8019D
S113143021A132A143A154A10E94571A6B017C013E
S1131440EE81FF816487758786879787F8012681F7
S1131450378140855185C501B4010E94F818EE8199
S1131460FF81608F718F828F938F4981C701B6018D
S11314700E948403F1016083718382839383F9EE74
S11314804F16F3E05F066104710408F464C062EE71
S113149072E084E293E00E94E31C4AE050E06A8137
S11314A07B8184E293E00E94E11D60EE72E084E2BD
S11314B093E00E94121D6CEC72E084E293E00E94BF
S11314C0E31CEE81FF8140815181628173812AE0B6
S11314D030E084E293E00E94D71E67EB72E084E27E
S11314E093E00E94E31CEE81FF8144855585668567
S11314F077852AE030E084E293E00E94D71E63EA15
S113150072E084E293E00E94E31CEE81FF81408D4F
S1131510518D628D738D2AE030E084E293E00E9465
S1131520D71E6AE972E084E293E00E94E31CF101B1
S1131530408151816281738122E030E084E293E052
S11315400E94D71EF981F23031F066E972E084E23C
S113155093E00E94121D29812F5F29838E819F8130
S113156004969F838E830C5F1F4F94E0290E311CD9
S1131570EA81FB813196FB83EA83233009F019CF9A
S1131580F9EE4F16F3E05F066104710480F06CE835
S113159072E084E293E00E94121D0E94331F609364
S11315A0B2017093B3018093B4019093B5010E948A
S11315B0C0028091E80164E670E0681B7109072E9F
S11315C0000C880B990B0E94A2196B017C01EC8121
S11315D0FD816191719181919191FD83EC83A701CA
S11315E096010E94521A18164CF460E271E08CE2E3
S11315F091E00E94DC038093E50107C029ED31E00E
S11316008C819D812817390711F78091E501882382
S113161091F01092E70163E672E084E293E00E94A5
S1131620121D8DE08093B70161E080E10E944B20A0
S113163081E08093E60127960FB6F894DEBF0FBED3
S1131640CDBFDF91CF911F910F91FF90EF90DF906D
S1131650CF90BF90AF909F908F907F906F905F904E
S11316604F903F902F9008954F925F926F927F9288
S11316708F929F92AF92BF92CF92DF92EF92FF929E
S11316801F93CF93DF9300D000D0CDB7DEB7809106
S1131690B7018B3021F08C3021F412E003C011E04B
S11316A001C010E0612F8BE592E00E946D129A83D5
S11316B08983612F86E592E00E946D12BC0180E06F
S11316C090E00E94A0196B017C0180901801909019
S11316D01901A0901A01B0901B0124E0129FF0019F
S11316E01124E951FE4F458856886788708C21A1E2
S11316F032A143A154A160911C0170911D018091FC
S11317001E0190911F010E94571AA70196010E9481
S1131710571A6B017C0120E030E0A9010E94F31804
S11317208823E1F029813A81B90180E090E00E94A8
S1131730A01969837A838B839C83A3019201C501D9
S1131740B4010E94571A29813A814B815C810E941D
S1131750571AA70196010E94F81803C060E070E0D0
S1131760CB010F900F900F900F90DF91CF911F91AD
S1131770FF90EF90DF90CF90BF90AF909F908F90AD
S11317807F906F905F904F900895CF92DF92EF9289
S1131790FF928091B7019CEF980F963040F5C0906E
S11317A0C901D090CA01E090CB01F090CC0120E0B7
S11317B030E048EC52E4C701B6010E94521A87FF98
S11317C009C020E030E040E251E4C701B6010E94C4
S11317D0571A04C06FE672E183E89AE36093C90183
S11317E07093CA018093CB019093CC010EC096EF05
S11317F0980F933070F40E94340B6093C50170937A
S1131800C6018093C7019093C80181E08093B6011B
S11318100BC093EF980F983010F485E103C0853125
S113182019F48DE08093B701FF90EF90DF90CF9093
S1131830089581E08093B601E091B7018E2F90E086
S1131840FC013197EC30F10508F072C0E25AFF4F09
S11318500C94CB206091E80102C06091FA0170E021
S113186080E090E00E94A0196093C5017093C601C6
S11318708093C7019093C8015BC06091FB01EFCFD7
S11318808091ED019091EE01A091EF01B091F001F2
S113189047C08091F1019091F201A091F301B091C0
S11318A0F4013EC08091F5019091F601A091F701F9
S11318B0B091F80135C08091FC019091FD01A09197
S11318C0FE01B091FF012CC08091000290910102B1
S11318D0A0910202B091030223C08091040290916E
S11318E00502A0910602B09107021AC08091080275
S11318F090910902A0910A02B0910B0211C080914B
S11319000C0290910D02A0910E02B0910F0208C03A
S11319108091100290911102A0911202B0911302D1
S11319208093C5019093C601A093C701B093C801E9
S113193080E090E0A0E8BFE38093C9019093CA01DE
S1131940A093CB01B093CC010895CF92DF92EF9294
S1131950FF92CF938091B70196EF980F933060F484
S11319601092C5011092C6011092C7011092C801CD
S113197081E08093B6019AC081110AC0C1E0C0938E
S1131980B601C093B7010E94190CC093F9018EC02F
S11319909FEF980F9C3008F078C091E09093B601C7
S11319A08130C1F420E030E0A9016091C50170915B
S11319B0C6018091C7019091C8010E94F318882341
S11319C021F080E090E0DC0157C080E090E0A0E8E6
S11319D0BFE352C08250823038F5C090C501D09028
S11319E0C601E090C701F090C80120E030E0A901F1
S11319F0C701B6010E94F318882349F020E030E0C3
S1131A0040E85FE3C701B6010E94861804C060E0A5
S1131A1070E080EA90E46093C5017093C6018093FE
S1131A20C7019093C80142C02091C9013091CA01F5
S1131A304091CB015091CC016091C5017091C601D8
S1131A408091C7019091C8010E9486186B017C01A6
S1131A5020E030E0A9010E94F31887FD09C0C0927C
S1131A60C501D092C601E092C701F092C8011EC020
S1131A7080EF9FEFA9E7B4E48093C5019093C6017A
S1131A80A093C701B093C80111C023EF280F2830D9
S1131A9030F48D3009F494E19093B70107C0853197
S1131AA029F48DE08093B7011092E701CF91FF9064
S1131AB0EF90DF90CF900895633091F038F4613067
S1131AC061F0623099F460E074E012C0643059F05F
S1131AD0653061F460E07AE00BC060E072E008C059
S1131AE060E076E005C060E078E002C060E070E0AD
S1131AF00C941E12CF93DF93C7EED1E06C898BE573
S1131B0092E00E945C0DEC8984E0E89FF0011124CE
S1131B10E050FF4F20E030E04AE754E460817181F7
S1131B20828193810E94F8186093180170931901BF
S1131B3080931A0190931B01DF91CF910895CF9365
S1131B40DF93C7EED1E06B8986E592E00E945C0DDD
S1131B50EB8984E0E89FF0011124E050FF4F20E07E
S1131B6030E04AE754E460817181828193810E946C
S1131B70F81860931C0170931D0180931E019093CB
S1131B801F01DF91CF91089526E040E855E260E01F
S1131B9070E084E293E00E94A01B6AE374E084E2B4
S1131BA093E00E94121D60E070E08BE592E00E94D9
S1131BB01E1260E070E086E592E00E941E128BE542
S1131BC092E00E941A1286E592E00E941A1289EBB2
S1131BD091E00E94BB1389EB91E00E94C71289EB4C
S1131BE091E00E940D136EE274E084E293E00E949F
S1131BF0121D62ED72E085E392E00E94F81365EC39
S1131C007BE085E392E00E94FC136EE170E085E3E3
S1131C1092E00E94EC1368EC70E085E392E00E948D
S1131C20F01368EE73E085E392E00E94F4136DE133
S1131C3074E084E293E00E94121D65EA7CE084E192
S1131C4092E00E94F8136AE671E184E192E00E9456
S1131C50FC136EE170E084E192E00E94EC1368EC06
S1131C6070E084E192E00E94F01368EE73E084E196
S1131C7092E00E94F4136CE074E084E293E00E942A
S1131C80121D87E290E00E94D120873609F459C0E2
S1131C9060E086E290E00E94DF2060E085E290E070
S1131CA00E94DF2060E084E290E00E94DF2040E0B8
S1131CB050E0BA0180E290E00E94F12040E050E060
S1131CC0BA018CE190E00E94F12040E050E0BA01BA
S1131CD088E190E00E94F12040E050E0BA0184E104
S1131CE090E00E94F12040E050E0BA0180E190E0F1
S1131CF00E94F12040E050E0BA018CE090E00E94A4
S1131D00F12040E050E0BA0188E090E00E94F12028
S1131D1040E050E0BA0184E090E00E94F12040E00D
S1131D2050E0BA0180E090E00E94F12067E687E28B
S1131D3090E00E94DF2061EF73E084E293E00E9470
S1131D40121D85E290E00E94D1208093FA0184E282
S1131D5090E00E94D1208093FB0186E290E00E94F3
S1131D60D12091E0811101C090E09093E80180E2DC
S1131D7090E00E94D9206093ED017093EE0180936E
S1131D80EF019093F0018CE190E00E94D9206093E0
S1131D90F1017093F2018093F3019093F40188E1CF
S1131DA090E00E94D9206093F5017093F60180932E
S1131DB0F7019093F80184E190E00E94D9206093A8
S1131DC0FC017093FD018093FE019093FF0180E17B
S1131DD090E00E94D92060930002709301028093E6
S1131DE00202909303028CE090E00E94D920609359
S1131DF0040270930502809306029093070288E020
S1131E0090E00E94D92060930802709309028093A5
S1131E100A0290930B0284E090E00E94D920609320
S1131E200C0270930D0280930E0290930F0280E0D7
S1131E3090E00E94D9206093100270931102809365
S1131E4012029093130262EE73E084E293E00E9424
S1131E50121D62ED73E084E293E00E94E31C4AE009
S1131E6050E06091FA0184E293E00E94811D63ECEA
S1131E7073E084E293E00E94E31C4AE050E0609146
S1131E80FB0184E293E00E94811D61EB73E084E234
S1131E9093E00E94E31C6091E80170E04AE050E0A6
S1131EA084E293E00E94E81D62EA73E084E293E036
S1131EB00E94E31C4091ED015091EE016091EF010D
S1131EC07091F0012AE030E084E293E00E94D71E92
S1131ED063E973E084E293E00E94E31C4091F10122
S1131EE05091F2016091F3017091F4012AE030E025
S1131EF084E293E00E94D71E64E873E084E293E0F6
S1131F000E94E31C4091F5015091F6016091F701A4
S1131F107091F8012AE030E084E293E00E94D71E39
S1131F2062E773E084E293E00E94E31C4091FC01C9
S1131F305091FD016091FE017091FF0123E030E0BA
S1131F4084E293E00E94D71E60E673E084E293E0AB
S1131F500E94E31C40910002509101026091020230
S1131F607091030223E030E084E293E00E94D71EE4
S1131F706EE473E084E293E00E94E31C4091040267
S1131F8050910502609106027091070223E030E04F
S1131F9084E293E00E94D71E6BE373E084E293E053
S1131FA00E94E31C409108025091090260910A02C8
S1131FB070910B0223E030E084E293E00E94D71E8C
S1131FC068E273E084E293E00E94E31C40910C0217
S1131FD050910D0260910E0270910F0223E030E0E7
S1131FE084E293E00E94D71E65E173E084E293E00B
S1131FF00E94E31C40911002509111026091120260
S11320007091130223E030E084E293E00E94D71E33
S11320100E947A0D0E949F0D8091E801882329F087
S113202080E090E0A0EAB0E404C080E090E0A0E2A8
S1132030B0E48093E9019093EA01A093EB01B0939B
S1132040EC010E94800261E080E10E940F2060E0C8
S113205080E10E944B208091B7018093B8010E94D7
S1132060C0026AE073E084E293E00E94121D6EEF06
S113207072E084E293E00E94121D0E94A4060C9474
S1132080D508CF92DF92EF92FF92CF93E091B70100
S11320908E2F90E0FC013197EC30F10508F014C16B
S11320A0E659FF4F0C94CB20C090C501D090C601D7
S11320B0E090C701F090C801C1E020E030E0A90140
S11320C0C701B6010E94F318811101C0C0E0C0939A
S11320D0E80120E030E0A901C701B6010E94F3182D
S11320E0811105C080E090E0A0E2B0E404C080E08B
S11320F090E0A0EAB0E48093E9019093EA01A09310
S1132100EB01B093EC016C2F86E290E012C0609179
S1132110C5017091C6018091C7019091C8010E94C8
S113212071196093FA010E949F0D6091FA0185E292
S113213090E0CF91FF90EF90DF90CF900C94DF2050
S11321406091C5017091C6018091C7019091C80149
S11321500E9471196093FB010E947A0D6091FB014A
S113216084E290E0E6CF4091C5015091C6016091B0
S1132170C7017091C8014093ED015093EE01609343
S1132180EF017093F00180E290E097C04091C501A7
S11321905091C6016091C7017091C8014093F1014B
S11321A05093F2016093F3017093F4018CE190E099
S11321B084C04091C5015091C6016091C7017091DE
S11321C0C8014093F5015093F6016093F7017093B1
S11321D0F80188E190E071C04091C5015091C601B9
S11321E06091C7017091C8014093FC015093FD01B7
S11321F06093FE017093FF0184E190E05EC0409122
S1132200C5015091C6016091C7017091C801409306
S1132210000250930102609302027093030280E172
S113222090E04BC04091C5015091C6016091C70137
S11322307091C80140930402509305026093060212
S1132240709307028CE090E038C04091C501509132
S1132250C6016091C7017091C80140930802509370
S1132260090260930A0270930B0288E090E025C093
S11322704091C5015091C6016091C7017091C80198
S113228040930C0250930D0260930E0270930F0260
S113229084E090E012C04091C5015091C601609164
S11322A0C7017091C80140931002509311026093CA
S11322B012027093130280E090E0CF91FF90EF90B0
S11322C0DF90CF900C94F120CF91FF90EF90DF90AE
S11322D0CF900895CF938091E601882339F060E090
S11322E080E10E944B201092E6014BC0C091B701DF
S11322F0CC2309F446C0CD3001F51092D9011092D7
S1132300DA011092DB011092DC011092DD011092CF
S1132310DE011092DF011092E0011092E1011092AF
S1132320E2011092E3011092E4010E94C002C09302
S1132330B70181E08093B60124C08091F90188231C
S113234089F0CC3029F40E944110CF910C94800282
S11323500E9441108091B7018F5F8093B701CF91A4
S11323600C94190C6CEE70E084E293E00E94121D50
S11323701092E701C1E0C093B7010E94190CC09309
S1132380F901CF91089568E48BE592E00E9412125E
S113239069E486E592E00E94121221E040E050E0F8
S11323A06EE070E085E392E00E94BD1321E040E01E
S11323B050E06FE070E084E192E00E94BD13E7EE2C
S11323C0F1E01082118280E090E0A0E2B0E4828328
S11323D09383A483B583168217821086118612868E
S11323E013861486158616861786108A118A138A10
S11323F0148A8CE0EEE5F1E0ACEFB1E001900D92CF
S11324008A95E1F78CE0EEE5F1E0A8E0B2E0019016
S11324100D928A95E1F722E040E167E289EB91E0D1
S11324200C94A412FC0114821382608388E08183DB
S1132430128208958EEC92E00C94E917FC017483E7
S1132440638308951F93CF93DF93162FEA01682FB8
S11324508EEC92E00E94FB17612F8EEC92E00E94BA
S1132460AA176D2F8EEC92E00E94AA176C2F8EECA7
S113247092E00E94AA178EEC92E0DF91CF911F9117
S11324800C947F181F93CF93DF93182F682F8EEC33
S113249092E00E94FB1760E08EEC92E00E94AA1783
S11324A08EEC92E00E947F1842E0612F8EEC92E065
S11324B00E947C188EEC92E00E942317182F8EEC59
S11324C092E00E942317D12F20E0C22F9E01282BD7
S11324D0C901DF91CF911F910895CF93DF936430A9
S11324E050F5FC0143815481623051F0633059F05E
S11324F0613019F04368516408C04368516505C0F0
S11325004368516602C043685167EC01506861E05A
S113251088810E942212698170E080E090E00E942C
S1132520641F88810E9442120A8002C09695879592
S11325300A94E2F702C080E090E0DF91CF91089521
S113254080E090E008950895FC011382128286E7EA
S113255091E0918380836483418722871386089561
S11325601F93CF93DF93EC01162F6C818EEC92E0D6
S11325700E94FB176B85612B8EEC92E00E94AA17D8
S11325808EEC92E0DF91CF911F910C947F1828E09C
S1132590FC01238760E00C94B0120F931F93CF9338
S11325A08C01C62F64600E94B01281E090E00E940A
S11325B0A01F6C2F6B7FC8010E94B01282E390E0D1
S11325C0CF911F910F910C94A01F1F93CF93DF9372
S11325D0EC01162F0E94B012612FCE01DF91CF9132
S11325E01F910C94CD120F931F93CF93DF938C0103
S11325F0C62FD42F607F642B0E94E51280E1C89F10
S1132600B00111246D2BC801DF91CF911F910F915F
S11326100C94E51240E00C94F31261E00E940A135A
S113262080ED97E00C94A01F62E00E940A1380EDF5
S113263097E00C94A01FCF93DF93CDB7DEB7289714
S11326400FB6F894DEBF0FBECDBF9C0188E0EAE66A
S1132650F1E0DE01119601900D928A95E1F7F901FE
S11326608085841710F44FEF480FFE013196E40F74
S1132670F11DE40FF11D9081690F6068C90128966E
S11326800FB6F894DEBF0FBECDBFDF91CF910C948F
S11326900A13FC016681262F246026836C600C9447
S11326A00A1341E00E94F31281E090E00895CF9371
S11326B0DF93EC01423018F08D8188608D83488768
S11326C0222329F0413019F48D8184608D8362E3E3
S11326D070E080E090E00E94641F6B85CE010E9450
S11326E0B01268EE73E080E090E00E94641F60E343
S11326F0CE010E94E51284E991E10E94A01F60E3EB
S1132700CE010E94E51284E991E10E94A01F60E3DA
S1132710CE010E94E51286E990E00E94A01F60E2CB
S1132720CE010E94E5126D816062CE010E940A13FF
S113273084E08E83CE010E944913CE010E940D13C2
S113274082E08F8366E0CE010E940A13CE01DF91FE
S1132750CF910C941413CF93DF93EC018EEC92E0A1
S11327600E94E9171D8220E04A856985CE01DF9128
S1132770CF910C9457130C94AB13FC01862FA2E356
S1132780B0E0B383A283A8E5B2E0B583A483A8EE46
S1132790B3E0B783A683128614861386168615863D
S11327A0108A1786128A118A148A138A168A158A3D
S11327B0108E178A60837183452B19F01186108659
S11327C004C041E050E051874087222311F062E0C9
S11327D001C060E00C940F20FC01738362830895B0
S11327E0FC01758364830895FC01778366830895EF
S11327F0FC01748763870895FC01728B618B0895D3
S1132800CF92DF92EF92FF921F93CF93DF93EC016D
S1132810162F0E94331F6B017C018F89988D0097BE
S113282031F4112309F4BCC081E090E078C0813018
S11328309105D9F5898D9A8DAB8DBC8DB701A60113
S1132840481B590B6A0B7B0B11110FC08A819B81AA
S1132850A0E0B0E0481759076A077B0718F4188E00
S11328601F8A9EC082E090E01DC08E819F81A0E0FF
S1132870B0E084179507A607B70708F091C081E078
S11328808A87EF85F889309709F00995E989FA89EB
S1132890309709F00995ED89FE89309709F009957B
S11328A086E090E0988F8F8B68C082309105F1F5B7
S11328B08D859E85892B99F0898D9A8DAB8DBC8DE4
S11328C0B701A601481B590B6A0B7B0B8C819D81B8
S11328D0A0E0B0E084179507A607B70738F4EB85A6
S11328E0FC85309709F4BBCF0995B9CF112309F4BE
S11328F057C08D8D9E8DAF8DB8A1B701A601481B21
S1132900590B6A0B7B0B8A819B81A0E0B0E0841792
S11329109507A607B70708F043C083E090E0988FB7
S11329208F8BC98EDA8EEB8EFC8E3AC08330910584
S1132930C1F4111135C0898D9A8DAB8DBC8DB70151
S1132940A601481B590B6A0B7B0B8A819B81A0E073
S1132950B0E084179507A607B70710F5ED85FE8547
S113296007C00697E9F411110DC01A86EB89FC899A
S1132970309709F00995188E1F8ACD8EDE8EEF8E62
S1132980F8A20EC081E08A87ED89FE89309741F074
S1132990DF91CF911F91FF90EF90DF90CF9009943A
S11329A0DF91CF911F91FF90EF90DF90CF9008952A
S11329B0CF93DF93EC018881998197FD0EC00E942B
S11329C07A2061E0288539852817390709F060E005
S11329D0CE01DF91CF910C940014DF91CF91089533
S11329E01092CD0281E08093CB021092CA0261E082
S11329F082E10E944B2061E083E10E944B20E9EBDD
S1132A00F0E080818E7F808380818D7F808388E465
S1132A108093B80085E48093BC000895413208F0A7
S1132A2043C09091CD029111FCCF91E09093CD02DF
S1132A302093CB022FEF209360021092A502240F63
S1132A402093A4029093CC029091CC02880F892BFE
S1132A508093CC028091CA02813061F41092CA0240
S1132A608091CC028093BB008091BC0083FDF8CFA1
S1132A7085EC01C085EE8093BC008091CD0281304D
S1132A80E1F38091A502841710F44091A502A6EA0F
S1132A90B2E0962FFB018E2F891B841718F48D91B9
S1132AA08193F9CF842F089580E008950F934132E4
S1132AB008F04AC09091CD029111FCCF32E03093DE
S1132AC0CD020093CB023FEF309360021092A50237
S1132AD04093A402562FA6EAB2E0FB013E2F351B19
S1132AE0341718F431913D93F9CF1092CC02309100
S1132AF0CC02880F832B8093CC028091CA02813050
S1132B0061F41092CA028091CC028093BB00809140
S1132B10BC0083FDF8CF85EC01C085EE8093BC003A
S1132B20222321F08091CD028230D1F38091600282
S1132B308F3F79F080916002803241F08091600291
S1132B40803331F094E005C091E003C092E001C00D
S1132B5093E0892F0F91089540918202262F30E04F
S1132B60240F311D21323105DCF42091CD022430B3
S1132B70C9F4FC0180E090E0861758F43091820299
S1132B802191DC01AC57BD4FA30FB11D2C930196CD
S1132B90F3CF80918202680F6093820280E00895EF
S1132BA081E0089582E008959093C7028093C6025D
S1132BB008959093C9028093C802089585ED809387
S1132BC0BC008091BC0084FDFCCF1092CD0208951E
S1132BD085EC8093BC001092CD0208951F920F9251
S1132BE00FB60F9211242F933F934F935F936F93DC
S1132BF07F938F939F93AF93BF93EF93FF938091B2
S1132C00B900887F803609F49EC078F5883209F4CB
S1132C105DC090F4803109F456C038F4882309F477
S1132C20F5C0883009F44FC0F5C0883109F44EC0AE
S1132C30803209F45FC0EEC0803409F46AC058F4ED
S1132C40803309F457C0883309F0E4C080936002EC
S1132C500E94E815DFC0803509F44FC0883509F4B7
S1132C605DC0883409F0D6C0D3C0883909F4C4C023
S1132C70A8F4883709F467C038F4883609F463C0C7
S1132C80803709F460C0C6C0883809F4B5C08039FB
S1132C9009F45FC0803809F0BDC05BC0803B09F413
S1132CA083C038F4803A09F466C0883A09F47CC0D9
S1132CB0B1C0803C09F4A4C0883C09F4A1C0883B9D
S1132CC009F487C0A7C08091CC0210C09091A502DE
S1132CD08091A402981770F5E091A50281E08E0F0F
S1132CE08093A502F0E0EA55FD4F80818093BB00FC
S1132CF085EC83C0809360028BC0E091A50281E0E3
S1132D008E0F8093A5028091BB00F0E0EA55FD4F41
S1132D1080839091A5028091A4026BC0E091A502EA
S1132D2081E08E0F8093A5028091BB00F0E0EA550C
S1132D30FD4F80838091CB0281116AC081E0809332
S1132D40CA0284EA5EC083E08093CD0210926102DD
S1132D50CFCF80916102803208F04EC0E0916102D1
S1132D6081E08E0F809361028091BB00F0E0EE5908
S1132D70FD4F8083BDCF0E94E815809161028032AF
S1132D8030F4E0916102F0E0EE59FD4F1082609161
S1132D90610270E0E091C602F091C70282E692E01F
S1132DA009951092610236C084E08093CD0210929E
S1132DB0830210928202E091C802F091C90209953F
S1132DC080918202811105C081E080938202109279
S1132DD08402E091830281E08E0F80938302F0E00D
S1132DE0EC57FD4F80818093BB00909183028091CA
S1132DF08202981708F47CCF85E88093BC000AC04F
S1132E0085EC8093BC001092CD0204C01092600245
S1132E100E94DE15FF91EF91BF91AF919F918F9129
S1132E207F916F915F914F913F912F910F900FBEC2
S1132E300F901F9018958091020390E02091030356
S1132E40821B9109089590910303809102039817BE
S1132E5050F4E92FF0E0EC5FFC4F208130E09F5FFD
S1132E609093030302C02FEF3FEFC9010895E0914F
S1132E70030380910203E81730F4F0E0EC5FFC4FA9
S1132E80808190E008958FEF9FEF08950895CF9388
S1132E90DF93EC01E091DA02F091DB023097F1F07C
S1132EA090910303809102039817C0F090E0292FBA
S1132EB030E02617370754F4DE01A20FB31F4C91FC
S1132EC0D901AC5FBC4F4C939F5FF1CF10920303C9
S1132ED060930203CB01DF91CF910994DF91CF91ED
S1132EE00895E091DC02F091DD02309729F0109210
S1132EF0E0021092DF0209940895CF92DF92EF92DC
S1132F00FF920F931F93CF93DF937C01CB018A0130
S1132F102091DE02222389F0EB016B01C40ED51E41
S1132F20CC15DD0569F06991D701ED91FC91019013
S1132F30F081E02DC7010995F3CF642F0E94AC15F1
S1132F40C801DF91CF911F910F91FF90EF90DF9017
S1132F50CF900895CF93DF931F92CDB7DEB76983E7
S1132F602091DE022223D1F02091DF02203240F0B2
S1132F7021E030E0FC013383228380E090E015C03F
S1132F808091E002E82FF0E0EF51FD4F99819083AA
S1132F908F5F8093E0028093DF0205C061E0CE0181
S1132FA001960E94AC1581E090E00F90DF91CF91E3
S1132FB00895FC011382128288EE93E0A0E0B0E051
S1132FC084839583A683B78382E891E09183808389
S1132FD0089510920303109202031092E0021092DB
S1132FE0DF020E94F01481E797E10E94D91587E47B
S1132FF097E10C94D41581E08093DE026093010381
S11330001092E0021092DF0208950F93062F21E040
S11330104091DF0261EE72E0809101030E94561537
S11330201092E0021092DF021092DE020F910895D6
S11330304F925F926F927F92AF92BF92CF92EF9234
S1133040FF920F931F93CF93DF935C01F62ED42F3F
S113305028013901EE2021F10E94FB17CE2DC43046
S113306008F0C3E0C150C0F028E0C29FC0011124A1
S1133070A301920104C056954795379527958A95E3
S1133080D2F7CA01B901D501ED91FC910190F0810B
S1133090E02DC5010995E6CF60E0C5010E94051841
S11330A04D2FD13208F040E22C2D64E073E08F2DD7
S11330B00E940E151092030380930203DF91CF91B7
S11330C01F910F91FF90EF90CF90BF90AF907F90A2
S11330D06F905F904F900895CF92EF920F931F934C
S11330E0C22EE12C00E010E098010E9418181F91F4
S11330F00F91EF90CF90089521E00C946C1861E04B
S11331000C9405188EEC92E00C94D9175058BB27F8
S1133110AA270E949E180C94181A0E940A1A38F0C2
S11331200E94111A20F039F49F3F19F426F40C94EC
S1133130071A0EF4E095E7FB0C94011AE92F0E949C
S1133140291A58F3BA17620773078407950720F002
S113315079F4A6F50C944B1A0EF4E0950B2EBA2FC5
S1133160A02D0B01B90190010C01CA01A001112489
S1133170FF27591B99F0593F50F4503E68F11A1635
S1133180F040A22F232F342F4427585FF3CF4695C6
S113319037952795A795F0405395C9F77EF41F16E8
S11331A0BA0B620B730B840BBAF09150A1F0FF0FB2
S11331B0BB1F661F771F881FC2F70EC0BA0F621F9E
S11331C0731F841F48F4879577956795B795F7958E
S11331D09E3F08F0B0CF9395880F08F09927EE0F23
S11331E09795879508950E94DD1908F481E0089564
S11331F00E940C190C94181A0E94111A58F00E947B
S11332000A1A40F029F45F3F29F00C94011A511175
S11332100C944C1A0C94071A0E94291A68F39923E7
S1133220B1F3552391F3951B550BBB27AA276217BE
S11332307307840738F09F5F5F4F220F331F441FCB
S1133240AA1FA9F335D00E2E3AF0E0E832D09150FF
S11332505040E695001CCAF72BD0FE2F29D0660FEC
S1133260771F881FBB1F261737074807AB07B0E82F
S113327009F0BB0B802DBF01FF2793585F4F3AF035
S11332809E3F510578F00C94011A0C944C1A5F3F40
S1133290E4F3983ED4F3869577956795B795F795BB
S11332A09F5FC9F7880F911D9695879597F90895A3
S11332B0E1E0660F771F881FBB1F6217730784073F
S11332C0BA0720F0621B730B840BBA0BEE1F88F74E
S11332D0E09508950E9471196894B1110C944C1AE8
S11332E008950E94311A88F09F5798F0B92F9927B2
S11332F0B751B0F0E1F0660F771F881F991F1AF0DD
S1133300BA95C9F714C0B13091F00E944B1AB1E0DC
S113331008950C944B1A672F782F8827B85F39F0DB
S1133320B93FCCF3869577956795B395D9F73EF475
S113333090958095709561957F4F8F4F9F4F08951D
S1133340E89409C097FB3EF490958095709561953B
S11333507F4F8F4F9F4F9923A9F0F92F96E9BB27F1
S11333609395F695879577956795B795F111F8CF6D
S1133370FAF4BB0F11F460FF1BC06F5F7F4F8F4FD8
S11333809F4F16C0882311F096E911C0772321F0CE
S11333909EE8872F762F05C0662371F096E8862F66
S11333A070E060E02AF09A95660F771F881FDAF7BD
S11333B0880F9695879597F90895990F0008550FEA
S11333C0AA0BE0E8FEEF16161706E807F907C0F0A7
S11333D012161306E407F50798F0621B730B840BAF
S11333E0950B39F40A2661F0232B242B252B21F489
S11333F008950A2609F4A140A6958FEF811D811D29
S1133400089597F99F6780E870E060E008959FEF62
S113341080EC089500240A94161617061806090667
S1133420089500240A941216130614060506089536
S1133430092E0394000C11F4882352F0BB0F40F4BE
S1133440BF2B11F460FF04C06F5F7F4F8F4F9F4FFE
S1133450089557FD9058440F551F59F05F3F71F080
S11334604795880F97FB991F61F09F3F79F08795E7
S11334700895121613061406551FF2CF4695F1DF70
S113348008C0161617061806991FF1CF8695710500
S1133490610508940895E894BB2766277727CB0134
S11334A097F908950E94DD1908F48FEF08950E949A
S11334B06A1A0C94181A0E940A1A38F00E94111AF7
S11334C020F0952311F00C94011A0C94071A11247E
S11334D00C944C1A0E94291A70F3959FC1F3950F0E
S11334E050E0551F629FF001729FBB27F00DB11D84
S11334F0639FAA27F00DB11DAA1F649F6627B00D14
S1133500A11D661F829F2227B00DA11D621F739FFC
S1133510B00DA11D621F839FA00D611D221F749F0A
S11335203327A00D611D231F849F600D211D822F51
S1133530762F6A2F11249F5750409AF0F1F0882378
S11335404AF0EE0FFF1FBB1F661F771F881F9150A5
S11335505040A9F79E3F510580F00C94011A0C9439
S11335604C1A5F3FE4F3983ED4F3869577956795BC
S1133570B795F795E7959F5FC1F7FE2B880F911DCF
S11335809695879597F90895FC01918D228D892F41
S113359090E0805C9F4F821B91098F739927089557
S11335A0FC01918D828D981731F0828DE80FF11D09
S11335B0858D90E008958FEF9FEF0895FC01918D24
S11335C0828D981761F0828DDF01A80FB11D5D9681
S11335D08C91928D9F5F9F73928F90E008958FEFEF
S11335E09FEF0895FC01538D448D252F30E0842FE7
S11335F090E0821B930B541710F0CF960895019717
S113360008958DE59CE1892B49F080E090E0892BB9
S113361029F00E945D1C81110C9400000895FC01A6
S1133620848DDF01A80FB11DA35ABF4F2C91848D47
S113363090E001968F739927848FA689B7892C937C
S1133640A089B1898C91837080648C93938D848DCF
S1133650981306C00288F389E02D80818F7D8083D2
S11336600895EF92FF920F931F93CF93DF93EC0192
S113367081E0888F9B8D8C8D981305C0E889F9892A
S1133680808185FD26C0F62E0B8D10E00F5F1F4F45
S11336900F731127E02E8C8DE8120CC00FB607FCB7
S11336A0FACFE889F989808185FFF5CFCE010E94A0
S11336B00F1BF1CF8B8DFE01E80FF11DE35AFF4F75
S11336C0F0829FB7F8940B8FEA89FB89808180622E
S11336D00AC09FB7F894EE89FF896083E889F98965
S11336E080818370806480839FBF81E090E0DF915C
S11336F0CF911F910F91FF90EF900895CF93DF9397
S1133700EC01888D8823C9F0EA89FB89808185FDD5
S113371005C0A889B9898C9186FD0FC00FB607FC36
S1133720F5CF808185FFF2CFA889B9898C9185FF77
S1133730EDCFCE010E940F1BE7CFDF91CF9108950B
S1133740CF92DF92EF92FF921F93CF93DF93EC011E
S11337506A017B01122FE889F98982E0808341158F
S1133760514E61057105B1F060E079E08DE390E0C0
S1133770A70196010E94A920DA01C9010197A109B4
S1133780B109B695A795979587959C01211580E178
S11337903807A8F0E889F989108260E874E88EE1B6
S11337A090E0A70196010E94A920DA01C9010197BE
S11337B0A109B109B695A795979587959C01EC85C4
S11337C0FD853083EE85FF852083188EEC89FD8985
S11337D01083EA89FB89808180618083EA89FB897F
S11337E0808188608083EA89FB8980818068808306
S11337F0EA89FB8980818F7D8083DF91CF911F913E
S1133800FF90EF90DF90CF9008951F920F920FB624
S11338100F9211242F938F939F93EF93FF93E09133
S11338203403F09135038081E0913A03F0913B0336
S113383082FD12C0908180913D038F5F8F73209130
S11338403E03821751F0E0913D03F0E0EC5DFC4F44
S1133850958F80933D0301C08081FF91EF919F91EB
S11338608F912F910F900FBE0F901F9018951F925C
S11338700F920FB60F9211242F933F934F935F93A0
S11338806F937F938F939F93AF93BF93EF93FF9324
S113389084E293E00E940F1BFF91EF91BF91AF91DF
S11338A09F918F917F916F915F914F913F912F9154
S11338B00F900FBE0F901F90189584E293E00E9422
S11338C0C41A21E0892B09F420E0822F0895E4E250
S11338D0F3E01382128288EE93E0A0E0B0E08483E8
S11338E09583A683B78384E991E09183808385ECF3
S11338F090E09587848784EC90E09787868780ECB6
S113390090E0918B808B81EC90E0938B828B82ECA6
S113391090E0958B848B86EC90E0978B868B118E50
S1133920128E138E148E089508950E94AB1F0E9468
S1133930941C0E94C40DC1E0DBE10E948109209720
S1133940E1F30E94011BF9CFCF92DF92EF92FF9235
S11339500F931F93CF93DF936C017A018B01C0E027
S1133960D0E0CE15DF0581F0D8016D918D01D6012F
S1133970ED91FC910190F081E02DC6010995892B10
S113398011F02196EECF7E01C701DF91CF911F91F7
S11339900F91FF90EF90DF90CF900895611571051E
S11339A079F0FB0101900020E9F73197AF01461B44
S11339B0570BDC01ED91FC910280F381E02D099419
S11339C080E090E00895EF92FF920F931F93CF93BE
S11339D0DF938C017B01C0E0D0E0F701EC0FFD1F09
S11339E06491662361F0D801ED91FC910190F0811E
S11339F0E02DC8010995892B11F02196EECFCE0157
S1133A00DF91CF911F910F91FF90EF900895DC010A
S1133A10ED91FC910190F081E02D099462EA71E04E
S1133A200C94CE1C0F931F93CF93DF93EC010E9451
S1133A30E31C8C01CE010E940E1D800F911FDF91AB
S1133A40CF911F910F9108958F929F92AF92BF9241
S1133A50EF92FF920F931F93CF93DF93CDB7DEB70F
S1133A60A1970FB6F894DEBF0FBECDBF7C01FA015B
S1133A70CB0119A2223008F42AE08E010F5D1F4FFA
S1133A80822E912CA12CB12CBF01A50194010E947E
S1133A90A920F901CA01015011096A3010F4605DCE
S1133AA001C0695CD8016C93232B242B252B61F76F
S1133AB0B801C7010E94CE1CA1960FB6F894DEBFD0
S1133AC00FBECDBFDF91CF911F910F91FF90EF906B
S1133AD0BF90AF909F908F9008952115310541F4C8
S1133AE0DC01ED91FC910190F081E02D642F0994AB
S1133AF00C94241D9A01462F50E060E070E00C9471
S1133B006D1D0F931F93CF93DF93EC010E947A1DD9
S1133B108C01CE010E940E1D800F911FDF91CF9169
S1133B201F910F9108959A01AB0160E070E00C942D
S1133B306D1DCF92DF92EF92FF920F931F93CF935D
S1133B40DF932115310581F4DC01ED91FC910190A5
S1133B50F081E02D642FDF91CF911F910F91FF90A1
S1133B60EF90DF90CF9009942A30310501F577FF6B
S1133B701DC06A017B01EC016DE20E94071D8C01EE
S1133B8044275527BA014C195D096E097F092AE0BB
S1133B90CE010E94241D800F911FDF91CF911F91B0
S1133BA00F91FF90EF90DF90CF9008952AE0DF917E
S1133BB0CF911F910F91FF90EF90DF90CF900C94D5
S1133BC0241D9A01AB01770F660B770B0C94991D9A
S1133BD00F931F93CF93DF93EC010E94E11D8C019F
S1133BE0CE010E940E1D800F911FDF91CF911F9176
S1133BF00F9108957F928F929F92AF92BF92CF922E
S1133C00DF92EF92FF920F931F93CF93DF938C0178
S1133C106A017B01722E9A01AB01C701B6010E94B1
S1133C20A420882319F065EA71E027C046015701F2
S1133C30E894B7F82FEF3FEF4FE75FE7C501B40112
S1133C400E94A42081110DC02FEF3FEF4FE75FE7E3
S1133C50C501B4010E94F31818161CF469EA71E056
S1133C600CC02FEF3FEF4FE75FE4C701B6010E949E
S1133C70521A181694F46DEA71E0C801DF91CF91DD
S1133C801F910F91FF90EF90DF90CF90BF90AF9076
S1133C909F908F907F900C94CE1C2FEF3FEF4FE7B7
S1133CA05FECC701B6010E94F31887FDE4CF20E062
S1133CB030E0A901C701B6010E94F31887FF0AC0CA
S1133CC06DE2C8010E94071DEC01F7FAF094F7F8C1
S1133CD0F09402C0C0E0D0E0B12C60E070E080E07D
S1133CE09FE37B1441F020E030E040E251E40E9485
S1133CF0F818B394F6CFA70196010E9487186B01B8
S1133D007C010E9471194B015C012AE0AB01BC01EA
S1133D10C8010E94241DC80FD91F7720B9F1C5011D
S1133D20B4010E94A0199B01AC01C701B6010E9415
S1133D3086186B017C016EE2C8010E94071DC80F42
S1133D40D91F20E030E040E251E4C701B6010E94EF
S1133D50571A4B015C010E9471196B017C014AE006
S1133D6050E0C8010E94931DC80FD91FB60180E01E
S1133D7090E00E94A0199B01AC01C501B4010E940E
S1133D8086186B017C017A947110DBCFCE01DF9130
S1133D90CF911F910F91FF90EF90DF90CF90BF9044
S1133DA0AF909F908F907F9008950C94FA1D0F937D
S1133DB01F93CF93DF93EC010E94FA1D8C01CE0177
S1133DC00E940E1D800F911FDF91CF911F910F91C3
S1133DD008951F920F920FB60F9211242F933F93C1
S1133DE08F939F93AF93BF938091C2039091C3032A
S1133DF0A091C403B091C5033091C10323E0230F04
S1133E002D3720F40196A11DB11D05C026E8230F0E
S1133E100296A11DB11D2093C1038093C203909308
S1133E20C303A093C403B093C5038091C6039091C8
S1133E30C703A091C803B091C9030196A11DB11D88
S1133E408093C6039093C703A093C803B093C90398
S1133E50BF91AF919F918F913F912F910F900FBE82
S1133E600F901F9018952FB7F8946091C20370912A
S1133E70C3038091C4039091C5032FBF08953FB736
S1133E80F8948091C6039091C703A091C803B091A0
S1133E90C90326B5A89B05C02F3F19F00196A11DA3
S1133EA0B11D3FBFBA2FA92F982F8827820F911DCC
S1133EB0A11DB11DBC01CD0142E0660F771F881F13
S1133EC0991F4A95D1F708958F929F92AF92BF920E
S1133ED0CF92DF92EF92FF926B017C010E943F1F11
S1133EE04B015C01C114D104E104F10401F10E940D
S1133EF0A3200E943F1FDC01CB0188199909AA095C
S1133F00BB09883E9340A105B10560F321E0C21AC4
S1133F10D108E108F10888EE880E83E0981EA11C00
S1133F20B11CC114D104E104F10419F7DBCFFF90F3
S1133F30EF90DF90CF90BF90AF909F908F900895B7
S1133F408230910538F0880F991F880F991F0597C3
S1133F500197F1F70895789484B5826084BD84B59F
S1133F60816084BD85B5826085BD85B5816085BD70
S1133F70EEE6F0E0808181608083E1E8F0E0108289
S1133F80808182608083808181608083E0E8F0E0CA
S1133F90808181608083E1EBF0E0808184608083B4
S1133FA0E0EBF0E0808181608083EAE7F0E08081EB
S1133FB0846080838081826080838081816080834B
S1133FC08081806880831092C1000895833081F0DD
S1133FD028F4813099F08230A1F008958730A9F057
S1133FE08830B9F08430D1F4809180008F7D03C093
S1133FF0809180008F7780938000089584B58F77B7
S113400002C084B58F7D84BD08958091B0008F7700
S113401003C08091B0008F7D8093B0000895CF934A
S1134020DF9390E0FC01E05AFB4F2491FC01EC5833
S1134030FB4F8491882361F190E0880F991FFC0164
S1134040E456FB4FC591D491FC01EE56FB4FA5916C
S1134050B491611109C09FB7F89488812095822397
S11340608883EC912E230BC0623061F49FB7F894DF
S11340708881322F309583238883EC912E2B2C93C7
S11340809FBF06C08FB7F894E8812E2B28838FBF7B
S1134090DF91CF9108951F93CF93DF93282F30E0C2
S11340A0F901E45BFB4F8491F901E05AFB4FD49191
S11340B0F901EC58FB4FC491CC23C1F0162F8111A8
S11340C00E94E61FEC2FF0E0EE0FFF1FEE56FB4FB1
S11340D0A591B4919FB7F894111104C08C91D09517
S11340E0D82302C0EC91DE2BDC939FBFDF91CF91EC
S11340F01F910895CF93DF93282F30E0F901E45BFB
S1134100FB4F8491F901E05AFB4FD491F901EC582B
S1134110FB4FC491CC2391F081110E94E61FEC2F38
S1134120F0E0EE0FFF1FE857FB4FA591B491EC911F
S1134130ED2381E090E021F480E002C080E090E093
S1134140DF91CF91089508950E94DD19880B990B92
S11341500895A1E21A2EAA1BBB1BFD010DC0AA1FC4
S1134160BB1FEE1FFF1FA217B307E407F50720F0DC
S1134170A21BB30BE40BF50B661F771F881F991F57
S11341801A9469F760957095809590959B01AC01A0
S1134190BD01CF010895EE0FFF1F0590F491E02DAE
S11341A00994F999FECF92BD81BDF89A992780B5FB
S11341B00895A6E1B0E044E050E00C94FF20262FDF
S11341C0F999FECF92BD81BDF89A019700B4021609
S11341D039F01FBA20BD0FB6F894FA9AF99A0FBEB7
S11341E008950396272F0E94E0200E94DF20252FA8
S11341F00E94E020242F0C94E020DC01CB01FC0180
S1134200F999FECF06C0F2BDE1BDF89A319600B42B
S11142100D9241505040B8F70895F894FFCF36
S113421E0000403E0000003E0000803D0000003DD6
S113422E0000803C0000003CA69B4439A69B443908
S113423E000000000000000000000000000000006C
S113424E000000000000000000000000000000005C
S113425E000000000000000000000000000000004C
S113426E0000000000000000000000003201000009
S113427E803F0000803F0000803F0000400014009B
S113428E5400000000005113A41CA012A31200003D
S113429E0000AA177D17A01246171B1723173717EE
S11342AE00000000311BA41CF21A7E1BC41ADE1A75
S11342BED01A0D0A006E616E00696E66006F766626
S10542CE0000EA
S9030000FC
