:100000000C946A000C946F040C9448040C949200B5
:100010000C9492000C9492000C9492000C94920018
:100020000C9492000C9492000C9492000C94920008
:100030000C9492000C9492000C9492000C949200F8
:100040000C94FE030C9492000C9492000C94920079
:100050000C9492000C9492000C9492000C949200D8
:100060000C9496040C949200C907D606E70635074F
:10007000B70782078D079A07B0079F07A607B00743
:10008000B20700000000240027002A000000000042
:10009000250028002B0004040404040404040202C4
:1000A00002020202030303030303010204081020F7
:1000B0004080010204081020010204081020000002
:1000C0000008000201000003040700000000000017
:1000D0000000C40511241FBECFEFD8E0DEBFCDBFA6
:1000E00011E0A0E0B1E0E4EBF6E102C005900D9272
:1000F000A433B107D9F722E0A4E3B1E001C01D9217
:10010000A834B207E1F710E0CAE6D0E004C02197B6
:10011000FE010E94180AC936D107C9F70E94FF05DF
:100120000C94580B0C940000909116029111FCCF86
:1001300091E090931602909315022FEF20931402F2
:1001400010921302260F20931202909311029091A5
:100150001102880F892B8093110280911002813047
:1001600061F410921002809111028093BB00809183
:10017000BC0083FDF8CF85EC01C085EE8093BC0008
:10018000809116028130E1F380911302861710F4FA
:1001900060911302A0EFB1E0E0EDF1E080E086179E
:1001A00021F09D9191938F5FFACF0895282F309180
:1001B000CF01313208F04AC0809116028111FCCF84
:1001C0009091CE0142E040931602209315022FEF4A
:1001D000209314021092130230931202EEEAF1E01F
:1001E000A0EFB1E020E0321721F041914D932F5F55
:1001F000FACF1092110220911102990F922B909335
:10020000110290911002913061F4109210029091BD
:1002100011029093BB009091BC0093FDF8CF95EC38
:1002200001C095EE9093BC00909116029230E1F3DC
:10023000909114029F3F79F080911402803241F036
:1002400080911402803331F084E005C081E003C066
:1002500082E001C083E01092AD011092CF011092B4
:10026000AC0108950895089590E0FC01E254FF4F19
:100270002491FC01E655FF4F3491FC01EA56FF4FF3
:10028000E491EE2309F43CC0222339F1233091F0AC
:1002900038F42130A9F0223001F584B58F7D12C0E9
:1002A000273091F02830A1F02430B9F480918000FB
:1002B0008F7D03C0809180008F77809380000DC078
:1002C00084B58F7784BD09C08091B0008F7703C05B
:1002D0008091B0008F7D8093B000F0E0EE0FFF1FA3
:1002E000E457FF4FA591B4919FB7F894611104C0F2
:1002F0008C913095382302C0EC913E2B3C939FBFEC
:1003000008951092AB011092AA011092AD011092C3
:10031000CF011092160281E0809315021092100214
:1003200061E082E10E94340161E083E10E943401D6
:10033000E9EBF0E080818E7F808380818D7F8083F8
:1003400080E28093B80085E48093BC0082E391E072
:100350009093A9018093A80183E391E09093A70172
:100360008093A6010895CF93DF9390E0FC01E655BA
:10037000FF4F2491FC01EA56FF4F8491882361F1DD
:1003800090E0880F991FFC01EE57FF4FC591D49163
:10039000FC01E457FF4FA591B491611109C09FB7CB
:1003A000F8948881209582238883EC912E230BC0BA
:1003B000623061F49FB7F8948881322F309583239F
:1003C0008883EC912E2B2C939FBF06C08FB7F89497
:1003D000E8812E2B28838FBFDF91CF9108958E3037
:1003E00008F08E502091040190E4299F900111247F
:1003F0008770822B80937C0080917A008064809348
:100400007A0080917A0086FDFCCF8091780020915F
:10041000790090E0922B08952FB7F8946091A20193
:100420007091A3018091A4019091A5012FBF08951F
:100430000895CF92DF92EF92FF920F931F93CF9385
:10044000DF936C017A018B01C0E0D0E0CE15DF05AF
:1004500081F0D8016D918D01D601ED91FC91019053
:10046000F081E02DC6010995892B11F02196EECF80
:100470007E01C701DF91CF911F910F91FF90EF9007
:10048000DF90CF90089585ED8093BC008091BC00F3
:1004900084FDFCCF10921602089540915901262F39
:1004A00030E0240F311D21323105DCF42091160299
:1004B0002430C9F4FC0180E090E0861758F43091B4
:1004C00059012191DC01A75CBE4FA30FB11D2C93F4
:1004D0000196F3CF80915901680F6093590180E034
:1004E000089581E0089582E008950895E091AB01B8
:1004F0008091AA01E81730F4F0E0E053FE4F8081CC
:1005000090E008958FEF9FEF08959091AB01809157
:10051000AA01981750F4E92FF0E0E053FE4F208134
:1005200030E09F5F9093AB0102C02FEF3FEFC90116
:1005300008958091AA0190E02091AB01821B91095E
:100540000895CF92DF92EF92FF920F931F93CF9374
:10055000DF937C01CB018A012091AC01222389F039
:10056000EB016B01C40ED51ECC15DD0569F0699158
:10057000D701ED91FC910190F081E02DC701099523
:10058000F3CF642F0E944D02C801DF91CF911F91DC
:100590000F91FF90EF90DF90CF900895CF93DF936E
:1005A0001F92CDB7DEB769832091AC012223D1F031
:1005B0002091CF01203240F021E030E0FC01338374
:1005C000228380E090E015C08091AD01E82FF0E03B
:1005D000E255FE4F998190838F5F8093AD018093A8
:1005E000CF0105C061E0CE0101960E944D0281E07D
:1005F00090E00F90DF91CF910895089580E090E012
:100600000895982F92959F702AEF929F800D112444
:100610000895811104C080917C01811117C085E18A
:100620000E94EF019C01220F331F213088E0380720
:100630003CF480E098E0821B930B8233910514F424
:1006400082E390E090937E0180937D010895262FB0
:10065000482F50E06A3030F0862F6AE00E94F80997
:1006600090E002C080E090E0FA01E058FE4FDC012B
:10067000A95EBE4F8C9180834F5F5F4F2A3010F48C
:10068000622F05C0822F6AE00E94F809692F70E08E
:10069000FA01E058FE4FDB01A95EBE4F8C918083CA
:1006A00008950F931F93CF93C82F0E940C020091BF
:1006B0003501109136012091370130913801DC016C
:1006C000CB01801B910BA20BB30B8C329140A10587
:1006D000B10518F4CC2309F45FC081E08093AC012C
:1006E00088E68093CE011092AD011092CF0160E0B8
:1006F00087E192E00E94CE0281E00E94D600811143
:1007000041C067E088E60E9494001092AB0180939C
:10071000AA0187E192E00E9485028F770E9401037F
:100720008093940187E192E00E9485020E94010378
:100730008093950187E192E00E9485028F7B0E9461
:1007400001038093960187E192E00E9485028093E5
:10075000970187E192E00E9485020E940103809345
:10076000980187E192E00E9485028F770E94010341
:100770008093990187E192E00E9485020E94010323
:1007800080939A010E940C026093350170933601A8
:100790008093370190933801CF911F910F91089565
:1007A0000F931F93CF938B0191E09093AC0198E648
:1007B0009093CE011092AD011092CF01682F87E186
:1007C00092E00E94CE0281E00E94D600C82F8111E3
:1007D0000EC061E088E60E9494001092AB01809305
:1007E000AA0187E192E00E948502F80180838C2FA4
:1007F000CF911F910F9108950E94530B1F920F925A
:100800000FB60F9211242F933F938F939F93AF9323
:10081000BF938091A2019091A301A091A401B091F6
:10082000A5013091A10126E0230F2D3720F4029677
:10083000A11DB11D05C029E8230F0396A11DB11DFF
:100840002093A1018093A2019093A301A093A401FE
:10085000B093A50180919D0190919E01A0919F016F
:10086000B091A0010196A11DB11D80939D019093AF
:100870009E01A0939F01B093A001BF91AF919F9162
:100880008F913F912F910F900FBE0F901F90189551
:100890001F920F920FB60F9211242F933F934F93F5
:1008A0005F936F937F938F939F93AF93BF93EF93D8
:1008B000FF93E0910201F09103010995FF91EF91FF
:1008C000BF91AF919F918F917F916F915F914F9168
:1008D0003F912F910F900FBE0F901F9018951F9270
:1008E0000F920FB60F9211242F933F934F935F9364
:1008F0006F937F938F939F93AF93BF93EF93FF93E8
:10090000E0910001F09101010995FF91EF91BF91F4
:10091000AF919F918F917F916F915F914F913F9197
:100920002F910F900FBE0F901F9018951F920F924E
:100930000FB60F9211242F933F934F935F936F93B2
:100940007F938F939F93AF93BF93EF93FF93809188
:10095000B900887F803609F49CC068F5883209F4B4
:100960005BC090F4803109F454C038F4882309F452
:10097000F6C0883009F44DC0F6C0883109F44CC087
:10098000803209F45DC0EFC0803409F468C048F4D7
:10099000803309F455C0883309F0E5C08093140210
:1009A000D8C0803509F44FC0883509F45DC088345B
:1009B00009F0D9C0D6C0883909F4C7C0A8F488376F
:1009C00009F467C038F4883609F463C0803709F445
:1009D00060C0C9C0883809F4B8C0803909F45FC064
:1009E000803809F0C0C05BC0803B09F486C038F491
:1009F000803A09F466C0883A09F47FC0B4C0803CEC
:100A000009F4A7C0883C09F4A4C0883B09F48AC053
:100A1000AAC08091110210C090911302809112021D
:100A2000981770F5E091130281E08E0F8093130206
:100A3000F0E0E051FE4F80818093BB0085EC86C0E2
:100A4000809314028EC0E091130281E08E0F809398
:100A500013028091BB00F0E0E051FE4F8083909143
:100A60001302809112026EC0E091130281E08E0F9A
:100A7000809313028091BB00F0E0E051FE4F808331
:100A80008091150281116DC081E08093100284EA8B
:100A900061C083E08093160210927B01CFCF8091DA
:100AA0007B01803208F051C0E0917B0181E08E0F24
:100AB00080937B018091BB00F0E0E55AFE4F80837C
:100AC000BDCF85EC8093BC001092160280917B0113
:100AD000803230F4E0917B01F0E0E55AFE4F108265
:100AE00060917B0170E0E091A601F091A7018BE598
:100AF00091E0099510927B0136C084E08093160244
:100B000010925A0110925901E091A801F091A901A7
:100B1000099580915901811105C081E080935901A7
:100B200010923901E0915A0181E08E0F80935A01B1
:100B3000F0E0E75CFE4F80818093BB0090915A010A
:100B400080915901981708F479CF85E88093BC000B
:100B50000AC085EC8093BC001092160204C010926B
:100B600014020E944302FF91EF91BF91AF919F91B8
:100B70008F917F916F915F914F913F912F910F9046
:100B80000FBE0F901F901895E7E1F2E013821282DA
:100B900088EE93E0A0E0B0E084839583A683B783DA
:100BA00085E291E0918380830E948101E3E2F2E09B
:100BB00082E390E09383828388E592E09583848347
:100BC00088EE93E0978386831286148613861686B2
:100BD0001586108A1786128A118A148A138A168A31
:100BE000158A108E178A83E090E09183808381E0DC
:100BF00090E09187808762E083E00C94B301CF930B
:100C0000DF931F92CDB7DEB7789484B5826084BD40
:100C100084B5816084BD85B5826085BD85B5816000
:100C200085BD80916E00816080936E00109281007E
:100C30008091810082608093810080918100816039
:100C400080938100809180008160809380008091FA
:100C5000B10084608093B1008091B0008160809386
:100C6000B00080917A00846080937A0080917A004D
:100C7000826080937A0080917A008E7F80937A00E0
:100C800080917A00806880937A001092C10081E0A0
:100C900090E00E94320A8C010E948101012B11F028
:100CA0000E94810181E00E945103BE016F5F7F4F6E
:100CB0008EE00E94D003198181E08093AC0188E628
:100CC0008093CE011092AD011092CF016EE087E1CA
:100CD00092E00E94CE02612F646087E192E00E9460
:100CE000CE0281E00E94D60062E082E00E94B30161
:100CF00060E085E10E94B30160E084E10E94B301FD
:100D000061E081E00E94B3010BE011E0BFE0CB2E77
:100D1000B1E0DB2EF801F1908F0161E08F2D0E9490
:100D2000B30161E08F2D0E943401C016D10691F706
:100D300084B1806C84B92E982F98F7E18F2EF1E062
:100D40009F2EAFE0EA2EA1E0FA2EF70111917F016C
:100D5000123451F01D3441F061E0812F0E94B30143
:100D600060E0812F0E9434018E149F0471F710926D
:100D70009B0181E080939C0174E6C72ED12CEAE0B0
:100D80006E2E712C53E3E52E6EE7F62E80E00E9466
:100D90005103E0919C018E2F90E08D30910508F079
:100DA00000C1FC01EC5CFF4F0C94180A10919B01F0
:100DB000113019F06091960101C060E080E00E945E
:100DC0002703123009F4E3C060919501A2C087E7C0
:100DD0008093800181E08093040184EE93E0019789
:100DE000F1F784E10E94EF018D35F3E09F07D4F421
:100DF000813E22E092070CF1BC01615E7240072E39
:100E0000000C880B990B0E94FF0825EC30E240E5AE
:100E10005FE30E9463090E94C7089B016436710565
:100E200074F002C024E630E0C901B6010E94040A51
:100E3000FB01E95EFE4F808103C020E030E080E0EE
:100E400080938101C901B3010E94040AFB01E95E9C
:100E5000FE4F208120938201FC01E95EFE4F8081DC
:100E600080938301109204019CC08FE080938001E5
:100E7000BE016F5F7F4F82E10E94D0031981BE01E6
:100E80006F5F7F4F81E10E94D003612F798177FFEF
:100E900002C0615C7F4F46E0759567954A95E1F722
:100EA000072E000C880B990B0E94FF0820E030E011
:100EB00040E250E40E9463090E94C7089B01643627
:100EC00071054CF0CB01B6010E94040AFB01E95EFA
:100ED000FE4F808101C080E080938101C901B6018D
:100EE0000E94040AB3010E94040AFB01E95EFE4F5E
:100EF000208120938201FC01E95EFE4F8081809376
:100F000083014FC06091950180E00E9427036091AA
:100F1000940182E00E94270344C087E4809380010B
:100F20001092810110928201F092830181E00E946F
:100F3000090337C047E3409380018FE504C05DE3B8
:100F40005093800180E38093810105C09EE49093DB
:100F50008001E092810110928201F092830121C010
:100F600060E001C064E180E00E94270310C010919E
:100F70009B011D3019F06091980101C060E080E094
:100F80000E9427031C3019F060919901C2CF60E0E4
:100F9000C0CF1092800110928101109282011092B4
:100FA000830180919B01833019F080E00E94090346
:100FB00080917F01833011F08F5F01C080E08093CA
:100FC0007F013FE0A32E31E0B32E00E010E0F501F9
:100FD00081915F01E0917F01F0E0E058FE4F8234A3
:100FE00071F4808190E0002E02C0959587950A9457
:100FF000E2F780FF02C02E9A1FC02E981DC08D34CC
:1010000081F48081282F30E0A901002E02C055957F
:1010100047950A94E2F740FF02C02F9A0DC02F981F
:101020000BC0608170E0002E02C0759567950A9430
:10103000E2F761700E9434010F5F1F4F0830110505
:1010400031F680919C01813021F080919C018530A6
:1010500029F480917F01813009F48DC080919C0139
:10106000833029F480917F01823009F48BC0809114
:101070009B01811111C000917F0110E0F801E0583F
:10108000FE4F8085055F1E4F811145C060E0F8016D
:1010900080810E9434013FC004E811E0BB24B39476
:1010A000F80181918F01882379F10E940C02209030
:1010B0009001309091014090920150909301DC0199
:1010C000CB0182199309A409B509F8018639910564
:1010D000A105B105C8F0B3820E940C02DC01CB016E
:1010E00082199309A409B50986329240A105B10578
:1010F00060F00E940C0260939001709391018093C4
:1011000092019093930101C0138248E851E0401787
:10111000510731F6B0CF80917D0190917E018330EF
:10112000910528F0880F991F04970197F1F761E066
:10113000F80180810E9434010FE011E0F8018191F3
:101140008F01823411F42E9807C08D3411F42F983A
:1011500003C060E00E9434018016910679F78CE5A7
:1011600099E00197F1F740E050E0452B09F40ECEED
:101170000E94000007CE6091940161708CE00E9493
:1011800034016CCF61E08CE00E94340170CF0E948A
:10119000CE086894B1110C945D0908950E9442092B
:1011A00088F09F5798F0B92F9927B751B0F0E1F028
:1011B000660F771F881F991F1AF0BA95C9F714C0D8
:1011C000B13091F00E945C09B1E008950C945C0983
:1011D000672F782F8827B85F39F0B93FCCF3869511
:1011E00077956795B395D9F73EF49095809570956E
:1011F00061957F4F8F4F9F4F0895E89409C097FBEB
:101200003EF490958095709561957F4F8F4F9F4FDD
:101210009923A9F0F92F96E9BB279395F695879521
:1012200077956795B795F111F8CFFAF4BB0F11F4E4
:1012300060FF1BC06F5F7F4F8F4F9F4F16C088238B
:1012400011F096E911C0772321F09EE8872F762FC1
:1012500005C0662371F096E8862F70E060E02AF002
:101260009A95660F771F881FDAF7880F96958795EE
:1012700097F9089557FD9058440F551F59F05F3F57
:1012800071F04795880F97FB991F61F09F3F79F0A8
:1012900087950895121613061406551FF2CF46952A
:1012A000F1DF08C0161617061806991FF1CF8695AC
:1012B0007105610508940895E894BB276627772790
:1012C000CB0197F908950E9476090C94E7090E94D2
:1012D000D90938F00E94E00920F0952311F00C9410
:1012E000D0090C94D60911240C945D090E943A0986
:1012F00070F3959FC1F3950F50E0551F629FF00169
:10130000729FBB27F00DB11D639FAA27F00DB11D81
:10131000AA1F649F6627B00DA11D661F829F22270A
:10132000B00DA11D621F739FB00DA11D621F839F91
:10133000A00D611D221F749F3327A00D611D231F67
:10134000849F600D211D822F762F6A2F11249F57B5
:1013500050409AF0F1F088234AF0EE0FFF1FBB1FB8
:10136000661F771F881F91505040A9F79E3F510577
:1013700080F00C94D0090C945D095F3FE4F3983E33
:10138000D4F3869577956795B795F795E7959F5F21
:10139000C1F7FE2B880F911D9695879597F90895B3
:1013A00097F99F6780E870E060E008959FEF80EC18
:1013B000089500240A9416161706180609060895BB
:1013C00000240A9412161306140605060895092E21
:1013D0000394000C11F4882352F0BB0F40F4BF2B90
:1013E00011F460FF04C06F5F7F4F8F4F9F4F0895D0
:1013F000991B79E004C0991F961708F0961B881F67
:101400007A95C9F78095089597FB072E16F40094F6
:1014100007D077FD09D00E941E0A07FC05D03EF4D4
:10142000909581959F4F0895709561957F4F089590
:10143000EE0FFF1F0590F491E02D0994AA1BBB1B32
:1014400051E107C0AA1FBB1FA617B70710F0A61BC4
:10145000B70B881F991F5A95A9F780959095BC01E5
:10146000CD0108950F931F93CF93DF9382309105A1
:1014700010F482E090E0E0914602F091470220E013
:1014800030E0A0E0B0E0309719F140815181028155
:10149000138148175907C8F08417950769F4109706
:1014A00031F012960C93129713961C9327C0009359
:1014B00046021093470222C02115310519F0421748
:1014C000530718F49A01BD01EF01DF01F801DBCFEA
:1014D00021153105F9F0281B390B2430310580F432
:1014E0008A819B816115710521F0FB0193838283C1
:1014F00004C09093470280934602FE01329644C096
:10150000FE01E20FF31F8193919322503109398339
:1015100028833AC02091440230914502232B41F4A4
:101520002091070130910801309345022093440235
:1015300020910501309106012115310541F42DB7A7
:101540003EB74091090150910A01241B350BE091EF
:101550004402F0914502E217F307A0F42E1B3F0B63
:101560002817390778F0AC014E5F5F4F2417350715
:1015700048F04E0F5F1F5093450240934402819301
:10158000919302C0E0E0F0E0CF01DF91CF911F9195
:101590000F910895CF93DF93009709F481C0FC0168
:1015A000329713821282A0914602B091470210979F
:1015B00081F420813181820F931F20914402309168
:1015C00045022817390751F5F0934502E09344028C
:1015D00067C0ED0120E030E0CE17DF0740F44A811C
:1015E0005B819E0141155105F1F0EA01F5CFD383EE
:1015F000C28340815181840F951FC817D90759F4C0
:1016000088819981840F951F0296918380838A81B6
:101610009B81938382832115310529F4F09347023E
:10162000E09346023DC0E901FB83EA834991599169
:10163000C40FD51FEC17FD0761F480819181840FE1
:10164000951F0296E90199838883828193819B8308
:101650008A83E0E0F0E012968D919C9113970097B9
:1016600019F0FD01DC01F7CF8D919C9111979D013F
:101670002E5F3F4F820F931F20914402309145020D
:101680002817390769F4309729F41092470210920D
:10169000460202C013821282B0934502A093440214
:1016A000DF91CF91089581E090E0F8940C94580B6D
:0416B000F894FFCFDC
:1016B40018021802010000480280000D09070605FF
:1016C4004D0B0A0804420C7E306D79335B5F707FEA
:1016D4007B00000000CE02A102FE02750299028581
:0416E4000276020088
:00000001FF
